:020000040800F2
:1000000000000220E9820008057900080D79000847
:10001000157900081D790008257900080000000006
:100020000000000000000000000000002D79000822
:100030003B79000800000000497900085779000862
:1000400039830008398300083983000839830008A0
:100050003983000839830008398300083983000890
:10006000398300083983000839830008657900085E
:10007000797900088D790008A1790008B579000820
:100080003983000839830008398300083983000860
:100090003983000839830008398300083983000850
:1000A0003983000839830008398300083983000840
:1000B000C9790008398300083983000839830008AA
:1000C0003983000839830008398300083983000820
:1000D0003983000839830008398300083983000810
:1000E0003983000839830008398300083983000800
:1000F00039830008398300083983000839830008F0
:1001000039830008398300083983000839830008DF
:1001100039830008398300083983000839830008CF
:1001200039830008398300083983000839830008BF
:1001300039830008398300083983000839830008AF
:10014000398300083983000839830008398300089F
:10015000398300083983000839830008398300088F
:10016000398300083983000839830008398300087F
:10017000398300083983000839830008398300086F
:10018000398300083983000839830008398300085F
:100190003983000800000000398300083983000813
:1001A000398300083983000839830008398300083F
:1001B000398300083983000839830008398300082F
:1001C000398300083983000839830008398300081F
:0801D00039830008398300089F
:1001E00010B5054C237833B9044B13B10448AFF371
:1001F00000800123237010BD980100200000000042
:1002000044D3000808B5034B1BB103490348AFF3BF
:10021000008008BD000000009C01002044D30008BD
:1002200081F0004102E000BF83F0004330B54FEAA7
:1002300041044FEA430594EA050F08BF90EA020F14
:100240001FBF54EA000C55EA020C7FEA645C7FEAA7
:10025000655C00F0E2804FEA5454D4EB5555B8BFCA
:100260006D420CDD2C4480EA020281EA030382EA3B
:10027000000083EA010180EA020281EA0303362DCD
:1002800088BF30BD11F0004F4FEA01314FF4801CA0
:100290004CEA113102D0404261EB410113F0004FB2
:1002A0004FEA03334CEA133302D0524263EB430369
:1002B00094EA050F00F0A780A4F10104D5F1200E07
:1002C0000DDB02FA0EFC22FA05F2801841F1000162
:1002D00003FA0EF2801843FA05F359410EE0A5F136
:1002E00020050EF1200E012A03FA0EFC28BF4CF067
:1002F000020C43FA05F3C01851EBE37101F000451D
:1003000007D54FF0000EDCF1000C7EEB00006EEB29
:100310000101B1F5801F1BD3B1F5001F0CD34908B3
:100320005FEA30004FEA3C0C04F101044FEA44520A
:1003300012F5800F80F09A80BCF1004F08BF5FEA91
:10034000500C50F1000041EB045141EA050130BD71
:100350005FEA4C0C404141EB0101013C28BFB1F583
:10036000801FE9D291F0000F04BF01460020B1FACE
:1003700081F308BF2033A3F10B03B3F120020CDAA1
:100380000C3208DD02F1140CC2F10C0201FA0CF07F
:1003900021FA02F10CE002F11402D8BFC2F1200CE4
:1003A00001FA02F120FA0CFCDCBF41EA0C0190409A
:1003B000E41AA2BF01EB0451294330BD6FEA0404E3
:1003C0001F3C1CDA0C340EDC04F11404C4F12002CE
:1003D00020FA04F001FA02F340EA030021FA04F3E0
:1003E00045EA030130BDC4F10C04C4F1200220FA37
:1003F00002F001FA04F340EA0300294630BD21FA75
:1004000004F0294630BD94F0000F83F4801306BF3A
:1004100081F480110134013D4EE77FEA645C18BF2E
:100420007FEA655C29D094EA050F08BF90EA020FC5
:1004300005D054EA000C04BF1946104630BD91EABD
:10044000030F1EBF0021002030BD5FEA545C05D1C0
:100450004000494128BF41F0004130BD14F58004FF
:100460003CBF01F5801130BD01F0004545F0FE4173
:1004700041F470014FF0000030BD7FEA645C1ABFA8
:10048000194610467FEA655C1CBF0B46024650EADF
:10049000013406BF52EA033591EA030F41F400210B
:1004A00030BD00BF90F0000F04BF0021704730B591
:1004B0004FF4806404F132044FF000054FF0000166
:1004C00050E700BF90F0000F04BF0021704730B527
:1004D0004FF4806404F1320410F0004548BF4042FC
:1004E0004FF000013EE700BF42004FEAE2014FEA51
:1004F00031014FEA02701FBF12F07F4393F07F4F2C
:1005000081F06051704732F07F4208BF704793F02E
:100510007F4F04BF41F40021704730B54FF4607441
:1005200001F0004521F000411CE700BF50EA010244
:1005300008BF704730B54FF000050AE050EA0102ED
:1005400008BF704730B511F0004502D5404261EB5D
:1005500041014FF4806404F132045FEA915C3FF49E
:10056000D8AE4FF003025FEADC0C18BF03325FEA3B
:10057000DC0C18BF033202EBDC02C2F1200300FAEC
:1005800003FC20FA02F001FA03FE40EA0E0021FA11
:1005900002F11444BDE600BF53B94AB9002908BFAF
:1005A00000281CBF4FF0FF314FF0FF3000F088B93A
:1005B000ADF1080C6DE904CE00F006F8DDF804E0BA
:1005C000DDE9022304B070472DE9F047089D0F468E
:1005D00004468C46002B48D18A42164661D9B2FAAD
:1005E00082F34BB1C3F1200201FA03FC20FA02F2BC
:1005F0009E4042EA0C0C9C404FEA164EB7B2BCFB40
:10060000FEF1220C0EFB11CC42EA0C4201FB07F07A
:10061000904209D9B21801F1FF3C80F0EE8090427F
:1006200040F2EB8002393244121AA4B2B2FBFEF05F
:100630000EFB102244EA024400FB07F7A74209D947
:10064000341900F1FF3280F0DA80A74240F2D780FF
:100650003444023840EA0140E41B00211DB1DC4073
:100660000023C5E90043BDE8F0878B4206D90DB1F0
:10067000C5E9000100210846BDE8F087B3FA83F11F
:10068000002948D1BB4202D3824200F20781841A7A
:1006900067EB030201209446002DE4D0C5E9004C2D
:1006A000E1E7002A00F09280B2FA82F3002B40F0DA
:1006B000A8808A1A4FEA164E1FFA86FC0121200CE8
:1006C000B2FBFEF70EFB172240EA02420CFB07F0DA
:1006D000904207D9B21807F1FF3802D2904200F2D7
:1006E000E2804746121AA4B2B2FBFEF00EFB1022C3
:1006F00044EA02440CFB00FCA44507D9341900F17C
:10070000FF3202D2A44500F2CB801046A4EB0C04C9
:1007100040EA0740A2E7C1F120068B4022FA06FC1E
:100720004CEA030C07FA01F420FA06F3F7404FEA0B
:100730001C49234300FA01F81FFA8CFEB7FBF9F0BD
:100740001C0C09FB107744EA074400FB0EF7A74294
:1007500002FA01F20AD91CEB040400F1FF3A80F01E
:100760009B80A74240F2988002386444E41B9FB209
:10077000B4FBF9F309FB134447EA044403FB0EFE00
:10078000A64509D91CEB040403F1FF3780F08280F1
:10079000A6457FD9023B644443EA0040A4EB0E0423
:1007A000A0FB02E7BC427346B94663D360D05DB19B
:1007B000B8EB030264EB090404FA06F622FA01F32B
:1007C0001E43CC40C5E9006400214CE7620848089C
:1007D00042EAC1710B0C43EA00438AB242EA034287
:1007E000B3FBF6F1E407B4463746B6461F23B0FB29
:1007F000F6F0D21B41EA004161E7614614E710467A
:1008000028E7C3F1200120FA01F29E4027FA01F106
:100810009F403A434FEA164E1FFA86FCB1FBFEF7A3
:100820000EFB1710110C41EA004107FB0CF888453C
:1008300004FA03F43AD9711807F1FF3001D2884560
:100840001FD8A1EB0801B1FBFEF808FB0CF70EFB6B
:10085000181192B242EA0142BA422FD2B21808F1FC
:10086000FF31C6D2BA42C4D2A8F102013244C0E775
:10087000F0459CD2BEEB020367EB0C070138B9468A
:1008800095E7A6EB08084144B81EB1FBFEF808FB4B
:100890000CF7DCE73B467FE7504667E70846FBE698
:1008A0003444023832E7023F32441BE7A1EB08012F
:1008B0003846B1FBFEF808FB0CF7C8E7414698E75D
:1008C000704700BF000000000000000000000000B2
:1008D00001F0FF01102A2BDB10F0070F08D010F8F1
:1008E000013B013A8B422DD010F0070F42B3F6D1F5
:1008F000F0B441EA012141EA014122F007047FF00E
:1009000000070023F0E80256083C85EA010586EA64
:10091000010685FA47F5A3FA87F586FA47F6A5FAA0
:1009200087F68EB9EED1F0BC01F0FF0102F00702AC
:1009300032B110F8013B013A83EA010313B1F8D157
:100940000020704701387047002D06BF3546033838
:10095000073815F0010F07D1013015F4807F02BF71
:10096000013015F4C03F0130F0BC0138704700BFC2
:1009700080B400AF064BD3F88830054A43F47003C7
:10098000C2F8883000BFBD465DF8047B704700BFE9
:1009900000ED00E080B483B000AF786039607B6820
:1009A0009B6823F47C123B681A437B689A6000BF03
:1009B0000C37BD465DF8047B704780B483B000AF50
:1009C000786039607B689B6823F0E0723B681A436B
:1009D0007B689A6000BF0C37BD465DF8047B7047AA
:1009E00080B483B000AF78607B689B6803F0E073ED
:1009F00018460C37BD465DF8047B704780B487B05D
:100A000000AFF860B9607A603B60FB6860331A46FB
:100A1000BB689B0013447B617B691A68084B1340D9
:100A20007A6802F0F8413A680A43134343F00042FF
:100A30007B691A6000BF1C37BD465DF8047B7047B8
:100A400000F0FF0380B485B000AF786039607B6848
:100A500060331A463B689B001344FB60FB681B68CD
:100A600003F0F84318461437BD465DF8047B704721
:100A700080B487B000AFF860B9607A60FB6860331B
:100A80001A46BB689B0013447B617B691B6823F09B
:100A900000427B681A437B691A6000BF1C37BD4661
:100AA0005DF8047B704780B487B000AFF860B96030
:100AB0007A60FB6860331A46BB689B0013447B6115
:100AC0007B691B6823F080727B681A437B691A601C
:100AD00000BF1C37BD465DF8047B704780B487B00B
:100AE00000AFF860B9607A60FB6860331A46BB6893
:100AF0009B0013447B617B691B6823F000727B6859
:100B00001A437B691A6000BF1C37BD465DF8047B41
:100B1000704780B483B000AF786039607B685B69F0
:100B200023F000423B681A437B685A6100BF0C37D0
:100B3000BD465DF8047B704780B483B000AF786039
:100B40007B68DB6803F44063002B01D1012300E0E4
:100B5000002318460C37BD465DF8047B704780B40F
:100B600087B000AFF860B9607A60FB6830331A462E
:100B7000BB681B0A9B0003F00C0313447B617B6979
:100B80001A68BB6803F01F031F2101FA03F3DB435C
:100B90001A407B689B0E03F01F01BB6803F01F0324
:100BA00001FA03F31A437B691A6000BF1C37BD4684
:100BB0005DF8047B704780B487B000AFF860B9601F
:100BC0007A60FB6814331A46BB685B0E9B0003F027
:100BD000040313447B617B691A68BB681B0D03F037
:100BE0001F03072101FA03F3DB431A40BB681B0D07
:100BF00003F01F03796801FA03F31A437B691A6053
:100C000000BF1C37BD465DF8047B704780B485B0DB
:100C100000AFF860B9607A60FB68D3F8B020BB68B9
:100C2000C3F31203DB431A407B6803F0180308493F
:100C3000D940BB680B40C3F312031A43FB68C3F8E7
:100C4000B02000BF1437BD465DF8047B704700BF7D
:100C5000FFFF070080B483B000AF78607B689B68BB
:100C600003F01F0318460C37BD465DF8047B704740
:100C700080B483B000AF78607B689B6823F020432A
:100C800023F03F037A68936000BF0C37BD465DF8E0
:100C9000047B704780B483B000AF78607B689B684A
:100CA00003F00053B3F1005F01D1012300E0002302
:100CB00018460C37BD465DF8047B704780B483B09E
:100CC00000AF78607B689B6823F0104323F03F03FC
:100CD00043F080527B689A6000BF0C37BD465DF8D8
:100CE000047B704780B483B000AF78607B689B68FA
:100CF00003F08053B3F1805F01D1012300E00023B2
:100D000018460C37BD465DF8047B704780B483B04D
:100D100000AF78607B689B6823F0004323F03F03BB
:100D200043F001027B689A6000BF0C37BD465DF856
:100D3000047B704780B483B000AF78607B689B68A9
:100D400023F0004323F03F0343F002027B689A60E4
:100D500000BF0C37BD465DF8047B704780B483B09C
:100D600000AF78607B689B6803F00103012B01D121
:100D7000012300E0002318460C37BD465DF8047BD4
:100D8000704780B483B000AF78607B689B6803F0E5
:100D90000203022B01D1012300E0002318460C3787
:100DA000BD465DF8047B704780B483B000AF7860C7
:100DB0007B689B6823F0004323F03F0343F0040269
:100DC0007B689A6000BF0C37BD465DF8047B7047B6
:100DD00080B483B000AF78607B689B6823F00043E9
:100DE00023F03F0343F010027B689A6000BF0C378A
:100DF000BD465DF8047B704780B483B000AF786077
:100E00007B689B6803F00403042B01D1012300E0FD
:100E1000002318460C37BD465DF8047B704780B44C
:100E200083B000AF78607B689B6823F0004323F0B9
:100E30003F0343F020027B689A6000BF0C37BD4639
:100E40005DF8047B704780B483B000AF78607B6846
:100E50009B6803F00803082B01D1012300E0002365
:100E600018460C37BD465DF8047B704790B589B0D5
:100E700000AF78600023FB770023FB607B68002BCA
:100E800001D10123A9E17B685B69002B7B68DB6DE5
:100E9000002B09D1786806F0C5FD7B6800221A6630
:100EA0007B68002283F858207B681B681846FFF790
:100EB000F1FE0346002B04D07B681B681846FFF741
:100EC000D7FE7B681B681846FFF70CFF0346002B14
:100ED00015D17B681B681846FFF7F0FE9C4B1B681A
:100EE0009B099C4AA2FB03239B0901335B00FB6027
:100EF00002E0FB68013BFB60FB68002BF9D17B68DB
:100F00001B681846FFF7EEFE0346002B0DD17B68E9
:100F1000DB6D43F010027B68DA657B681B6E43F083
:100F200001027B681A660123FB777B681B68184601
:100F3000FFF762FF78617B68DB6D03F01003002B25
:100F400040F042817B69002B40F03E817B68DB6D85
:100F500023F4817343F002027B68DA657B681B68C7
:100F60001846FFF7FBFE0346002B41D17B681B6848
:100F7000B3F1A04F04D07B681B68774A93420FD12E
:100F80004FF0A040FFF7EAFE04467348FFF7E6FE85
:100F900003462343002B0CBF01230023DBB212E0E6
:100FA0006E48FFF7DBFE04466D48FFF7D7FE0346A9
:100FB0001C436C48FFF7D2FE03462343002B0CBFB3
:100FC00001230023DBB2002B12D07B681B68B3F136
:100FD000A04F04D07B681B685F4A934201D1624AEC
:100FE00000E0624A7B685B6819461046FFF7D2FC56
:100FF0007B685B7F5A037B68DB6B1A437B68DB682B
:101000001A437B689B681A437B6893F824301B045F
:101010001343BB617B6893F82430012B06D17B68B6
:101020009B6A013B5B04BA691343BB617B68DB6A63
:10103000002B09D07B68DB6A03F478727B681B6B3A
:101040001343BA691343BB617B681B68DA68484B7A
:1010500013407A681268B9690B43D3607B681B68D8
:101060001B6923F040617B685A6B7B681B680A43ED
:101070001A617B681B681846FFF7E5FE38617B69DB
:10108000002B7FD13B69002B7CD17B681B7F9A03AF
:101090007B6893F838305B001343BB617B681B6847
:1010A000DB6823F4804323F002037A681268B9698D
:1010B0000B43D3607B681B69002B17D07B681B68D0
:1010C0001A697B681B6842F480321A617B681B686E
:1010D000D3F8C03023F47F5323F03F037A681169BB
:1010E0007A6812680B43C2F8C03013E07B681B6853
:1010F0001A697B681B6822F480321A617B681B685E
:10110000D3F8C0307A68126823F47F5323F03F038A
:10111000C2F8C0307B6893F84030012B2AD17B683D
:101120001B681B6923F4FF6323F004037A68516C86
:101130007A68926C11437A68D26C11437A68126DA6
:101140000A431A437B681B6842F001021A6119E0E6
:1011500000000020632D3E050001005000040050F7
:10116000000500500006005000030050000700502A
:101170000740F0FF7B681B681A697B681B6822F0D8
:1011800001021A617B685B69012B0CD17B681B68CB
:101190001B6B23F00F017B681B6A5A1E7B681B6860
:1011A0000A431A6307E07B681B681A6B7B681B683D
:1011B00022F00F021A637B68DB6D23F0030343F018
:1011C00001027B68DA6507E07B68DB6D43F01002A3
:1011D0007B68DA650123FB77FB7F18462437BD4621
:1011E00090BD00BF80B586B000AFF860B9607A608E
:1011F000FB681B68B3F1A04F04D0FB681B685A4A18
:10120000934201D1594B00E0594B1846FFF722FD9C
:101210003861FB681B681846FFF7EEFD0346002B9C
:1012200040F09B80FB6893F85830012B01D10223DA
:1012300096E0FB68012283F85820FB681B684D4A42
:10124000934208D03B69002B05D03B69052B02D0A7
:101250003B69092B7AD1F86800F00AFE0346FB755A
:10126000FB7D002B6DD1FB68DB6D23F4706323F0F5
:10127000010343F48072FB68DA65FB681B683A4A35
:10128000934209D0FB681B683B4A934202D0FB683B
:101290001B6803E0394B01E04FF0A043FA68126885
:1012A000934202D03B69002B05D1FB68DB6D23F430
:1012B0008012FB68DA65FB68DB6D03F48053002B5A
:1012C00006D0FB681B6E23F00602FB681A6602E07C
:1012D000FB6800221A66FB685B6D294ADA62FB68CC
:1012E0005B6D284A1A63FB685B6D274A5A63FB688B
:1012F0001B681C221A60FB68002283F85820FB68D8
:101300001B685A68FB681B6842F010025A60FB6851
:101310001B68DA68FB681B6842F00102DA60FB6850
:10132000586DFB681B6840331946BA687B6802F049
:10133000C9FA0346FB75FB681B681846FFF734FDC6
:101340000DE0FB68002283F8582008E00123FB75BC
:10135000FB68002283F8582001E00223FB75FB7D27
:1013600018461837BD4680BD0001005000030050EC
:101370000007005000060050000500500004005017
:101380005B200008332100084F21000880B584B09D
:1013900000AF78607B6893F85830012B01D10223AD
:1013A00051E07B68012283F858200321786800F01F
:1013B000A3FC0346FB73FB7B002B3FD17B681B68C0
:1013C000DA687B681B6822F00102DA607B685B6D7B
:1013D00093F82530DBB2022B0FD17B685B6D18468A
:1013E00002F0EBFA0346FB73FB7B002B05D07B6816
:1013F000DB6D43F040027B68DA657B681B685A68E6
:101400007B681B6822F010025A60FB7B002B05D121
:10141000786800F0C3FD0346FB7302E0786800F0D3
:10142000BDFDFB7B002B09D17B68DB6D23F488536A
:1014300023F0010343F001027B68DA657B68002238
:1014400083F85820FB7B18461037BD4680BD80B41A
:1014500083B000AF786000BF0C37BD465DF8047BF9
:10146000704780B483B000AF786000BF0C37BD46D2
:101470005DF8047B7047000080B5B6B000AF7860BF
:101480003960002387F8D7300023FB607B6893F82E
:101490005830012B02D1022300F013BC7B680122DB
:1014A00083F858207B681B681846FFF7A5FC0346A5
:1014B000002B40F0F3837B6818683B6859683B68F1
:1014C0001B681A46FFF74BFB7B681B681846FFF743
:1014D00093FCC7F8D0007B681B681846FFF7B3FC85
:1014E000C7F8CC00D7F8D030002B40F0D981D7F81E
:1014F000CC30002B40F0D4813B689B68B3F1004FA7
:101500000FD17B6818683B681B6800221946FFF7FB
:1015100052FB7B681B684FF000411846FFF7F9FA51
:101520000EE07B6818683B6819683B689B681A4640
:10153000FFF741FB7B681B6800211846FFF7E9FABB
:101540003B685A697B681B68DB68DB0803F00303B0
:101550005B0002FA03F3C7F8C8303B681B69042B31
:1015600022D07B6818683B6819693B681A68D7F80D
:10157000C830FFF743FA7B6818683B6819693B6815
:101580009B691A46FFF78FFA7B6818683B681969F0
:101590003B681B7F012B02D14FF0007300E000235A
:1015A0001A46FFF79BFA7BE17B681B68002118460F
:1015B000FFF748FA0346C3F31203002B0AD17B68F6
:1015C0001B6800211846FFF73DFA03469B0E03F007
:1015D0001F021EE07B681B6800211846FFF732FAE5
:1015E0000346C7F8BC30D7F8BC3093FAA3F3C7F86A
:1015F000C030D7F8C030C7F8B830D7F8B830002BB3
:1016000001D1202304E0D7F8B830B3FA83F3DBB27A
:101610001A463B681B68C3F31203002B05D13B68D5
:101620001B689B0E03F01F0318E03B681B68C7F89C
:10163000B030D7F8B03093FAA3F3C7F8AC30D7F88E
:10164000AC30C7F8B430D7F8B430002B01D1202328
:1016500004E0D7F8B430B3FA83F3DBB29A4206D190
:101660007B681B68002200211846FFF701FA7B689F
:101670001B6801211846FFF7E5F90346C3F312037F
:10168000002B0AD17B681B6801211846FFF7DAF9A5
:1016900003469B0E03F01F021EE07B681B680121BE
:1016A0001846FFF7CFF90346C7F8A430D7F8A4309F
:1016B00093FAA3F3C7F8A030D7F8A030C7F8A83042
:1016C000D7F8A830002B01D1202304E0D7F8A830A8
:1016D000B3FA83F3DBB21A463B681B68C3F3120309
:1016E000002B05D13B681B689B0E03F01F0318E01D
:1016F0003B681B68C7F89830D7F8983093FAA3F383
:10170000C7F89430D7F89430C7F89C30D7F89C309D
:10171000002B01D1202304E0D7F89C30B3FA83F3E7
:10172000DBB29A4206D17B681B6800220121184671
:10173000FFF79EF97B681B6802211846FFF782F9C4
:101740000346C3F31203002B0AD17B681B680221F6
:101750001846FFF777F903469B0E03F01F021EE0C1
:101760007B681B6802211846FFF76CF90346C7F82F
:101770008C30D7F88C3093FAA3F3C7F88830D7F8B9
:101780008830C7F89030D7F89030002B01D1202353
:1017900004E0D7F89030B3FA83F3DBB21A463B6823
:1017A0001B68C3F31203002B05D13B681B689B0E1B
:1017B00003F01F0316E03B681B68C7F88030D7F8BA
:1017C000803093FAA3F3FB67FB6FC7F88430D7F838
:1017D0008430002B01D1202304E0D7F88430B3FA01
:1017E00083F3DBB29A4206D17B681B680022022198
:1017F0001846FFF73DF97B681B6803211846FFF781
:1018000021F90346C3F31203002B0AD17B681B683E
:1018100003211846FFF716F903469B0E03F01F023B
:1018200017E07B681B6803211846FFF70BF9034696
:101830007B677B6F93FAA3F33B673B6FBB67BB6F21
:10184000002B01D1202303E0BB6FB3FA83F3DBB29B
:101850001A463B681B68C3F31203002B05D13B6893
:101860001B689B0E03F01F0311E03B681B68BB66FF
:10187000BB6E93FAA3F37B667B6EFB66FB6E002B5D
:1018800001D1202303E0FB6EB3FA83F3DBB29A426B
:1018900006D17B681B68002203211846FFF7E8F891
:1018A0007B681B681846FFF759FA0346002B40F087
:1018B0003D817B6818683B6819683B68DB681A469D
:1018C000FFF7A4F93B68DB68A24A934240F02E81FF
:1018D0007B6818683B681B68C3F31203002B0BD1AD
:1018E0003B681B689B0E013303F01F03092B94BF59
:1018F00001230023DBB219E03B681B68FB65FB6D2D
:1019000093FAA3F3BB65BB6D3B663B6E002B01D125
:10191000202303E03B6EB3FA83F3DBB2013303F021
:101920001F03092B94BF01230023DBB2002B79D0C6
:101930003B681B68C3F31203002B07D13B681B688D
:101940009B0E01339B0603F0F84215E03B681B68D1
:101950003B653B6D93FAA3F3FB64FB6C7B657B6D8E
:10196000002B01D1202303E07B6DB3FA83F3DBB2BC
:1019700001339B0603F0F8423B681B68C3F3120374
:10198000002B09D13B681B689B0E013303F01F033A
:10199000012101FA03F317E03B681B687B647B6C51
:1019A00093FAA3F33B643B6CBB64BB6C002B01D18B
:1019B000202303E0BB6CB3FA83F3DBB2013303F003
:1019C0001F03012101FA03F342EA03013B681B688C
:1019D000C3F31203002B0AD13B681B689B0E013333
:1019E00003F01F0213465B0013441B0518E03B681D
:1019F0001B68BB63BB6B93FAA3F37B637B6BFB63DB
:101A0000FB6B002B01D1202303E0FB6BB3FA83F3C4
:101A1000DBB2013303F01F0213465B0013441B05C6
:101A20000B437EE03B681B68C3F31203002B07D116
:101A30003B681B689B0E01339B0603F0F84215E0E0
:101A40003B681B68FB62FB6A93FAA3F3BB62BB6A49
:101A50003B633B6B002B01D1202303E03B6BB3FACC
:101A600083F3DBB201339B0603F0F8423B681B684B
:101A7000C3F31203002B09D13B681B689B0E013393
:101A800003F01F03012101FA03F317E03B681B6811
:101A90003B623B6A93FAA3F3FB61FB697B627B6A5F
:101AA000002B01D1202303E07B6AB3FA83F3DBB27E
:101AB000013303F01F03012101FA03F342EA03019A
:101AC0003B681B68C3F31203002B0DD13B681B68F6
:101AD0009B0E013303F01F0213465B0013441E3BB1
:101AE0001B0543F000731BE03B681B687B617B694F
:101AF00093FAA3F33B613B69BB61BB69002B01D146
:101B0000202303E0BB69B3FA83F3DBB2013303F0B4
:101B10001F0213465B0013441E3B1B0543F000737A
:101B20000B433A6892681946FFF745F83B681A6814
:101B3000094B1340002B00F0BE807B681B68B3F19B
:101B4000A04F04D07B681B68044A93420AD1044B1F
:101B500009E000BF00007F40000008800001005045
:101B600000030050594B1846FEF73AFFC7F8C4006F
:101B70003B681B68564A934204D03B681B68554A31
:101B800093423AD1D7F8C43003F40003002B34D188
:101B90007B681B68B3F1A04F05D07B681B684E4A79
:101BA000934240F085807B681B68B3F1A04F04D05E
:101BB0007B681B68494A934201D1494A00E0434A85
:101BC000D7F8C43043F4000319461046FEF7F5FE7B
:101BD000444B1B689B09444AA2FB03239B095A1CE4
:101BE00013465B0013449B00FB6002E0FB68013B73
:101BF000FB60FB68002BF9D15AE03B681B683B4A4D
:101C0000934225D1D7F8C43003F08073002B1FD145
:101C10007B681B68314A93424CD07B681B68344A0E
:101C2000934247D07B681B68B3F1A04F04D07B6818
:101C30001B682A4A934201D1294A00E0234AD7F877
:101C4000C43043F0807319461046FEF7B6FE31E00B
:101C50003B681B68274A93422DD1D7F8C43003F460
:101C60008003002B27D17B681B681C4A934222D03B
:101C70007B681B68B3F1A04F04D07B681B68174AD0
:101C8000934201D1164A00E0104AD7F8C43043F419
:101C9000800319461046FEF790FE0CE07B68DB6D72
:101CA00043F020027B68DA65012387F8D73002E031
:101CB00000BF00E000BF7B68002283F8582097F83F
:101CC000D7301846D837BD4680BD00BF000700504A
:101CD000000021C31000C090000600500001005019
:101CE0000003005000000020632D3E05000052C795
:101CF00000050050000084CB80B588B000AF78604C
:101D000039600023FB613B68BB617B681B68184638
:101D1000FFF772F838617B681B681846FFF793F885
:101D2000F8603B69002B03D1FB68002B00F0988022
:101D30007B681B68DB6803F00073002B2AD07B688C
:101D40005B7F012B26D17B681B7F012B22D10123D6
:101D5000BB6114E0FB69454A93420DD97B68DB6D9A
:101D600043F010027B68DA657B681B6E43F001026A
:101D70007B681A66012374E0FB690133FB617B68B1
:101D80001B681B6803F04003402BE3D17B681B6892
:101D900040221A60BB69022B14D07B681B6818466E
:101DA000FFF72AF80346002B0CD07B681B68184607
:101DB000FEF7E7FF0346002B04D17B681B6818463B
:101DC000FFF706F8BB69012B14D07B681B68184627
:101DD000FFF739F80346002B0CD07B681B681846C8
:101DE000FEF7CFFF0346002B04D17B681B68184623
:101DF000FFF715F8BB69022B05D0BB69032B05D192
:101E00000C237B6105E008237B6102E004237B61F6
:101E100000BF00F049FBB8601BE000F045FB024644
:101E2000BB68D31A052B14D97B681B689A687B6939
:101E30001340002B0DD07B68DB6D43F010027B68F4
:101E4000DA657B681B6E43F001027B681A6601232A
:101E500007E07B681B689A687B691340002BDCD124
:101E6000002318462037BD4680BD00BFFFFF3FA3BB
:101E700080B584B000AF78600023BB607B681B68CE
:101E80001846FEF76BFF0346002B76D17B681B6874
:101E90009A683C4B1340002B0DD07B68DB6D43F000
:101EA00010027B68DA657B681B6E43F001027B6879
:101EB0001A66012362E07B681B681846FEF726FF5E
:101EC0007B681B68B3F1A04F04D07B681B682E4A67
:101ED000934201D12D4B00E02D4B1846FEF780FDBB
:101EE000034603F40003002B13D02A4B1B689B0905
:101EF000294AA2FB03239B095A1C13465B00134487
:101F00009B00BB6002E0BB68013BBB60BB68002B71
:101F1000F9D100F0C9FAF86028E07B681B68184620
:101F2000FEF71CFF0346002B04D17B681B68184694
:101F3000FEF7ECFE00F0B8FA0246FB68D31A022B5B
:101F400014D97B681B681B6803F00103012B0DD0BB
:101F50007B68DB6D43F010027B68DA657B681B6E83
:101F600043F001027B681A66012307E07B681B6867
:101F70001B6803F00103012BCFD100231846103753
:101F8000BD4680BD3F0000800001005000030050AE
:101F90000007005000000020632D3E0580B584B08E
:101FA00000AF78607B681B681846FEF7EAFEF860B1
:101FB0007B681B681846FEF7D1FE0346002B47D00E
:101FC000FB68002B44D17B681B689B6803F00D0302
:101FD000012B0CD17B681B681846FEF7ABFE7B68B3
:101FE0001B6803221A6000F05FFAB86029E07B6882
:101FF000DB6D43F010027B68DA657B681B6E43F093
:1020000001027B681A66012323E000F04DFA0246C4
:10201000BB68D31A022B14D97B681B689B6803F03A
:102020000103002B0DD07B68DB6D43F010027B6851
:10203000DA657B681B6E43F001027B681A66012338
:1020400007E07B681B689B6803F00103002BDCD171
:10205000002318461037BD4680BD80B584B000AF60
:1020600078607B689B6AFB60FB68DB6D03F0500364
:10207000002B4BD1FB68DB6D43F40072FB68DA6523
:10208000FB681B681B6803F00803002B21D0FB686A
:102090001B681846FEF750FD0346002B32D0FB6844
:1020A0001B68DB6803F40053002B2BD1FB68DB6D4E
:1020B00023F48072FB68DA65FB68DB6D03F4805300
:1020C000002B1FD1FB68DB6D43F00102FB68DA6572
:1020D00018E0FB681B68DB6803F00203002B11D1DA
:1020E000FB68DB6D23F48072FB68DA65FB68DB6DEF
:1020F00003F48053002B05D1FB68DB6D43F0010234
:10210000FB68DA65F86809F09FF80EE0FB68DB6DA4
:1021100003F01003002B03D0F868FFF7A2F904E0E6
:10212000FB685B6D5B6B7868984700BF1037BD46F6
:1021300080BD80B584B000AF78607B689B6AFB602F
:10214000F868FFF784F900BF1037BD4680BD80B541
:1021500084B000AF78607B689B6AFB60FB68DB6DD6
:1021600043F04002FB68DA65FB681B6E43F0040233
:10217000FB681A66F868FFF774F900BF1037BD46B0
:1021800080BD80B483B000AF78607B689B6803F04B
:102190000103012B01D1012300E0002318460C3775
:1021A000BD465DF8047B704780B483B000AF7860B3
:1021B0007B689B6803F00403042B01D1012300E03A
:1021C000002318460C37BD465DF8047B70470000BD
:1021D00090B5A1B000AF78603960002387F87F30F8
:1021E0007B6893F85830012B01D10223E7E07B682C
:1021F000012283F8582000237B660023BB667B689E
:102200001B68B3F1A04F02D16F4BBB6009E07B6844
:102210001B686E4A934202D16D4BBB6001E0002304
:10222000BB60BB68002B0BD17B68DB6D43F02002E9
:102230007B68DA657B68002283F858200123BEE0C2
:10224000BB681846FFF7B0FFB8677B681B68184685
:10225000FFF7AAFF0346002B40F0A080BB6F002BC6
:1022600040F09C807B681B68B3F1A04F04D07B6872
:102270001B68554A934201D1564B00E0564B7B6791
:102280003B681B68002B4BD07B6F9B6823F460423C
:102290003B6859687B6893F838305B030B431A43FB
:1022A0007B6F9A607B681B68B3F1A04F04D07B689A
:1022B0001B68454A93420FD14FF0A040FFF761FFE2
:1022C00004464148FFF75DFF03462343002B0CBF44
:1022D00001230023DBB212E03C48FFF752FF044623
:1022E0003B48FFF74EFF03461C433C48FFF749FFBE
:1022F00003462343002B0CBF01230023DBB2002B3A
:1023000056D07B6F9B6823F4716323F00F033A6808
:1023100011683A6892680A431A437B6F9A6047E0F3
:102320007B6F9B6823F460427B6F9A607B681B68BD
:10233000B3F1A04F04D07B681B68234A93420FD1AE
:102340004FF0A040FFF71DFF04461F48FFF719FF9D
:1023500003462343002B0CBF01230023DBB212E012
:102360001A48FFF70EFF04461948FFF70AFF034615
:102370001C431A48FFF705FF03462343002B0CBFFD
:1023800001230023DBB2002B12D07B6F9B6823F468
:10239000716323F00F037A6F936009E07B68DB6D54
:1023A00043F020027B68DA65012387F87F3000E084
:1023B00000BF7B68002283F8582097F87F301846CA
:1023C0008437BD4690BD00BF00010050000400509E
:1023D00000050050000300500007005000060050A8
:1023E00080B582B000AF0023FB71032001F022FE14
:1023F0000F2000F00DF80346002B02D00123FB71E3
:1024000001E005F0EBFAFB7918460837BD4680BDC0
:1024100080B584B000AF78600023FB73164B1B6857
:10242000002B22D0154B1A68134B1B684FF47A719E
:10243000B1FBF3F3B2FBF3F3184601F02EFE0346B3
:10244000002B0FD17B680F2B09D8002279684FF041
:10245000FF3001F0FAFD0A4A7B68136007E00123B0
:10246000FB7304E00123FB7301E00123FB73FB7B9F
:1024700018461037BD4680BD08000020000000202F
:102480000400002080B400AF054B1A68054B1B68A0
:102490001344034A136000BFBD465DF8047B7047D8
:1024A000B40100200800002080B400AF034B1B687B
:1024B0001846BD465DF8047B704700BFB40100209C
:1024C00080B584B000AF7860FFF7EEFFB8607B683E
:1024D000FB60FB68B3F1FF3F04D0094B1B68FA684F
:1024E0001344FB6000BFFFF7DFFF0246BB68D31A4F
:1024F000FA689A42F7D800BF00BF1037BD4680BDCA
:102500000800002080B588B000AF78607B68002BA1
:1025100001D10123FEE27B681B6803F00103002B5D
:1025200075D0974B9B6803F00C03BB61944BDB6841
:1025300003F003037B61BB690C2B02D17B69032B86
:1025400002D0BB69082B0BD18D4B1B6803F4003301
:10255000002B5BD07B685B68002B57D10123D9E24D
:102560007B685B68B3F5803F06D1854B1B68844A66
:1025700043F4803313601DE07B685B68B3F5A02FE4
:102580000CD17F4B1B687E4A43F4802313607C4B45
:102590001B687B4A43F4803313600BE0784B1B6865
:1025A000774A23F480331360754B1B68744A23F415
:1025B000802313607B685B68002B13D0FFF774FFE8
:1025C000386108E0FFF770FF02463B69D31A642BBD
:1025D00001D903239EE26A4B1B6803F40033002BEE
:1025E000F0D014E0FFF760FF386108E0FFF75CFF10
:1025F00002463B69D31A642B01D903238AE2604B5C
:102600001B6803F40033002BF0D100E000BF7B68AF
:102610001B6803F00203002B75D0594B9B6803F035
:102620000C03BB61564BDB6803F003037B61BB69A2
:102630000C2B02D17B69022B02D0BB69042B1FD16A
:102640004F4B1B6803F48063002B05D07B68DB686D
:10265000002B01D101235DE2494B5B6823F0FE4270
:102660007B681B691B06464913434B60454B1B683F
:102670001846FFF7CDFE0346002B43D0012349E265
:102680007B68DB68002B23D03D4B1B683C4A43F43E
:1026900080731360FFF708FF386108E0FFF704FF5D
:1026A00002463B69D31A022B01D9032332E2344B91
:1026B0001B6803F48063002BF0D0314B5B6823F080
:1026C000FE427B681B691B062D4913434B601AE0D1
:1026D0002B4B1B682A4A23F480731360FFF7E4FE38
:1026E000386108E0FFF7E0FE02463B69D31A022B8F
:1026F00001D903230EE2224B1B6803F48063002BF5
:10270000F0D100E000BF7B681B6803F00803002BDA
:1027100041D07B685B69002B1CD0194BD3F89430F7
:10272000174A43F00103C2F89430FFF7BDFE386149
:1027300008E0FFF7B9FE02463B69D31A022B01D924
:102740000323E7E10E4BD3F8943003F00203002B90
:10275000EFD020E00A4BD3F89430094A23F001036C
:10276000C2F89430FFF7A0FE38610DE0FFF79CFE41
:1027700002463B69D31A022B06D90323CAE100BFE4
:1027800000100240040000208C4BD3F8943003F07A
:102790000203002BEAD17B681B6803F00403002BC3
:1027A00000F0A6800023FB77844B9B6D03F08053E1
:1027B000002B01D1012300E00023002B0DD07F4B23
:1027C0009B6D7E4A43F0805393657C4B9B6D03F079
:1027D0008053FB60FB680123FB77794B1B6803F494
:1027E0008073002B18D1764B1B68754A43F48073B5
:1027F0001360FFF759FE386108E0FFF755FE024607
:102800003B69D31A022B01D9032383E16C4B1B686C
:1028100003F48073002BF0D07B689B68012B08D1F8
:10282000664BD3F89030654A43F00103C2F890300C
:1028300024E07B689B68052B10D1604BD3F8903067
:102840005E4A43F00403C2F890305C4BD3F89030FA
:102850005A4A43F00103C2F890300FE0574BD3F8C7
:102860009030564A23F00103C2F89030534BD3F80E
:102870009030524A23F00403C2F890307B689B6882
:10288000002B16D0FFF710FE38610AE0FFF70CFEB0
:1028900002463B69D31A41F28832934201D903239D
:1028A00038E1464BD3F8903003F00203002BEDD013
:1028B00015E0FFF7F9FD38610AE0FFF7F5FD024684
:1028C0003B69D31A41F28832934201D9032321E1B3
:1028D0003A4BD3F8903003F00203002BEDD1FB7F8D
:1028E000012B05D1354B9B6D344A23F08053936502
:1028F0007B681B6803F02003002B3CD07B689B693E
:10290000002B1CD02D4BD3F898302C4A43F00103F8
:10291000C2F89830FFF7C8FD386108E0FFF7C4FD42
:1029200002463B69D31A022B01D90323F2E0234B61
:10293000D3F8983003F00203002BEFD01BE01F4BBD
:10294000D3F898301D4A23F00103C2F89830FFF7FE
:10295000ABFD386108E0FFF7A7FD02463B69D31ADB
:10296000022B01D90323D5E0144BD3F8983003F0A0
:102970000203002BEFD17B68DB69002B00F0C980DC
:102980000E4B9B6803F00C030C2B00F083807B68DC
:10299000DB69022B5ED1094B1B68084A23F0807368
:1029A0001360FFF781FD38610CE0FFF77DFD024603
:1029B0003B69D31A022B05D90323ABE00010024078
:1029C00000700040554B1B6803F00073002BECD1E6
:1029D000524BDA68524B13407A68116A7A68526A2D
:1029E000013A120111437A68926A120211437A681D
:1029F000126B5208013A520511437A68526B520821
:102A0000013A520611437A68D26AD2060A43434910
:102A10001343CB60414B1B68404A43F08073136003
:102A20003E4BDB683D4A43F08073D360FFF73CFDCB
:102A3000386108E0FFF738FD02463B69D31A022BE4
:102A400001D9032366E0354B1B6803F00073002BAC
:102A5000F0D05EE0314B1B68304A23F08073136086
:102A6000FFF722FD386108E0FFF71EFD02463B69D3
:102A7000D31A022B01D903234CE0284B1B6803F027
:102A80000073002BF0D1254BDA682449254B134005
:102A9000CB603EE07B68DB69012B01D1012339E08B
:102AA0001E4BDB687B617B6903F003027B681B6A5A
:102AB0009A422CD17B6903F0F0027B685B6A013B90
:102AC0001B019A4223D17B6903F4FE427B689B6A17
:102AD0001B029A421BD17B6903F078427B68DB6A58
:102AE000DB069A4213D17B6903F4C0027B681B6B3F
:102AF0005B08013B5B059A4209D17B6903F0C06228
:102B00007B685B6B5B08013B5B069A4201D001234B
:102B100000E0002318462037BD4680BD001002406B
:102B20000C809F01FCFFEEFE80B586B000AF7860A0
:102B3000396000237B617B68002B01D101231EE1FA
:102B4000914B1B6803F00F033A689A4210D98E4BE1
:102B50001B6823F00F028C493B6813430B608A4BC0
:102B60001B6803F00F033A689A4201D0012306E183
:102B70007B681B6803F00103002B73D07B685B68E4
:102B8000032B29D1814B1B6803F00073002B01D16B
:102B90000123F4E000F09EF938613B697C4A9342DE
:102BA0003FD97A4B9B6803F0F003002B09D07B6878
:102BB0001B6803F00203002B33D07B689B68002B5B
:102BC0002FD1724B9B6823F0F003704A43F08003CF
:102BD000936080237B6124E07B685B68022B07D1D4
:102BE0006A4B1B6803F40033002B09D10123C6E0B4
:102BF000664B1B6803F48063002B01D10123BEE008
:102C000000F0CEF838613B69614A934209D95F4BC5
:102C10009B6823F0F0035D4A43F0800393608023B8
:102C20007B615A4B9B6823F003027B685B685749C2
:102C300013438B60FFF738FCF8600AE0FFF734FCC1
:102C40000246FB68D31A41F28832934201D903232A
:102C500095E04E4B9B6803F00C027B685B689B0021
:102C60009A42EBD17B681B6803F00203002B23D050
:102C70007B681B6803F00403002B05D0434B9B6863
:102C8000424A43F4E06393607B681B6803F00803E7
:102C9000002B07D03D4B9B6823F47C533B4A43F405
:102CA000E0639360394B9B6823F0F0027B689B687C
:102CB000364913438B6008E07B69802B05D1334B89
:102CC0009B68324A23F0F00393602F4B1B6803F09C
:102CD0000F033A689A421DD22B4B1B6823F00F0258
:102CE00029493B6813430B60FFF7DEFBF8600AE0FD
:102CF000FFF7DAFB0246FB68D31A41F288329342AF
:102D000001D903233BE0204B1B6803F00F033A6813
:102D10009A42EDD17B681B6803F00403002B08D0B6
:102D20001A4B9B6823F4E0627B68DB681749134306
:102D30008B607B681B6803F00803002B09D0134BE2
:102D40009B6823F460527B681B69DB000F491343C7
:102D50008B6000F025F802460C4B9B681B0903F0C2
:102D60000F030C49CB5C03F01F0322FA03F30A4A5A
:102D700013600A4B1B681846FFF74AFB03461846C8
:102D80001837BD4680BD00BF002002400010024041
:102D900000B4C40488D4000800000020040000200F
:102DA00080B487B000AF2C4B9B6803F00C03042B5E
:102DB00002D12A4B3B6147E0274B9B6803F00C0391
:102DC000082B02D1264B3B613EE0234B9B6803F06E
:102DD0000C030C2B36D1204BDB6803F00303FB60A4
:102DE0001D4BDB681B0903F00F030133BB60FB685D
:102DF000032B0CD11A4ABB68B2FBF3F3164AD26814
:102E0000120A02F07F0202FB03F37B610CE0134A1B
:102E1000BB68B2FBF3F3104AD268120A02F07F02D9
:102E200002FB03F37B6100BF0B4BDB685B0E03F01F
:102E3000030301335B007B607A697B68B2FBF3F3C9
:102E40003B6101E000233B613B6918461C37BD46EE
:102E50005DF8047B704700BF001002400024F400BE
:102E6000002D310180B400AF034B1B681846BD46EE
:102E70005DF8047B704700BF0000002080B500AF04
:102E8000FFF7F0FF0246064B9B681B0A03F007039F
:102E90000449CB5C03F01F0322FA03F3184680BDFC
:102EA0000010024098D4000880B500AFFFF7DAFFA9
:102EB0000246064B9B68DB0A03F007030449CB5C20
:102EC00003F01F0322FA03F3184680BD00100240EE
:102ED00098D4000880B487B000AF1E4BDB6803F0C5
:102EE00003033B611B4BDB681B0903F00F0301333A
:102EF000FB603B69032B0CD1174AFB68B2FBF3F371
:102F0000144AD268120A02F07F0202FB03F37B61CB
:102F10000CE0124AFB68B2FBF3F30E4AD268120AC5
:102F200002F07F0202FB03F37B6100BF094BDB6809
:102F30005B0E03F0030301335B00BB607A69BB687F
:102F4000B2FBF3F37B607B6818461C37BD465DF827
:102F5000047B704700100240002D31010024F40072
:102F600080B586B000AF78600023FB740023BB748B
:102F70007B681B6803F40023002B00F0988000237B
:102F80007B74434B9B6D03F08053002B0DD1404B62
:102F90009B6D3F4A43F0805393653D4B9B6D03F01F
:102FA0008053BB60BB6801237B743A4B1B68394A72
:102FB00043F480731360FFF777FAF86009E0FFF7D6
:102FC00073FA0246FB68D31A022B02D90323FB745F
:102FD00005E0304B1B6803F48073002BEFD0FB7CC3
:102FE000002B59D12A4BD3F8903003F440737B6106
:102FF0007B69002B1ED07B681B6D7A699A4219D0C1
:10300000234BD3F8903023F440737B61204BD3F8EB
:1030100090301F4A43F48033C2F890301C4BD3F8F1
:1030200090301B4A23F48033C2F89030184A7B69F1
:10303000C2F890307B6903F00103002B16D0FFF734
:1030400033FAF8600BE0FFF72FFA0246FB68D31A59
:1030500041F28832934202D90323FB7406E00C4B01
:10306000D3F8903003F00203002BECD0FB7C002B54
:103070000BD1074BD3F8903023F440727B681B6D63
:1030800003491343C1F8903008E0FB7CBB7405E0B2
:103090000010024000700040FB7CBB747B7C012B65
:1030A00005D1A74B9B6DA64A23F0805393657B689F
:1030B0001B6803F00103002B0AD0A14BD3F8883022
:1030C00023F003027B685B689D491343C1F8883095
:1030D0007B681B6803F00203002B0AD0984BD3F8DF
:1030E000883023F00C027B689B6895491343C1F834
:1030F00088307B681B6803F00403002B0AD0904BD8
:10310000D3F8883023F030027B68DB688C491343A6
:10311000C1F888307B681B6803F00803002B0AD0D5
:10312000874BD3F8883023F0C0027B681B69844941
:103130001343C1F888307B681B6803F01003002B31
:103140000AD07F4BD3F8883023F440727B685B69E8
:103150007B491343C1F888307B681B6803F0200368
:10316000002B0AD0764BD3F8883023F440627B687A
:103170009B6973491343C1F888307B681B6803F06F
:103180004003002B0AD06E4BD3F8883023F4405212
:103190007B68DB696A491343C1F888307B681B6828
:1031A00003F08003002B0AD0654BD3F8883023F45A
:1031B00040427B681B6A62491343C1F888307B68D0
:1031C0001B6803F48073002B0AD05D4BD3F8883062
:1031D00023F440327B685B6A59491343C1F8883055
:1031E0007B681B6803F40033002B0AD0544BD3F8E0
:1031F0009C3023F003027B689B6A51491343C1F85A
:103200009C307B681B6803F40073002B0AD04C4B86
:10321000D3F8883023F440227B68DB6A48491343A3
:10322000C1F888307B681B6803F48063002B15D0DD
:10323000434BD3F8883023F440127B681B6B404922
:103240001343C1F888307B681B6BB3F5801F05D131
:103250003B4BDB683A4A43F48013D3607B681B68BE
:1032600003F40063002B15D0354BD3F8883023F4DA
:1032700040027B685B6B32491343C1F888307B683E
:103280005B6BB3F5800F05D12D4BDB682C4A43F403
:103290008013D3607B681B6803F48053002B15D028
:1032A000274BD3F8883023F040727B689B6B24490E
:1032B0001343C1F888307B689B6BB3F1807F05D1E5
:1032C0001F4BDB681E4A43F48013D3607B681B6886
:1032D00003F40053002B15D0194BD3F8883023F09A
:1032E00040627B68DB6B16491343C1F888307B680A
:1032F000DB6BB3F1006F05D1114BDB68104A43F46F
:103300008013D3607B681B6803F48043002B19D0C3
:103310000B4BD3F8883023F040627B681B6C084964
:103320001343C1F888307B681B6CB3F1006F09D17F
:10333000034BDB68024A43F48013D36002E000BF12
:10334000001002407B681B6803F40043002B15D07B
:10335000294BD3F8883023F040527B685B6C2649B8
:103360001343C1F888307B685B6CB3F1805F05D193
:10337000214BDB68204A43F48033D3607B681B68B1
:1033800003F48033002B15D01B4BD3F8883023F087
:1033900040427B689B6C18491343C1F888307B68B6
:1033A0009B6CB3F1804F05D1134BDB68124A43F499
:1033B0008033D3607B681B6803F48023002B15D017
:1033C0000D4BD3F89C3023F440127B68DB6C0A4928
:1033D0001343C1F89C307B68DB6CB3F5001F05D14B
:1033E000054BDB68044A43F48013D360BB7C18466A
:1033F0001837BD4680BD00BF0010024080B487B0C2
:1034000000AF7860396000237B6164E13B681A6833
:1034100001217B6901FA03F31340FB60FB68002B79
:1034200000F056813B685B6803F00303012B05D075
:103430003B685B6803F00303022B30D17B689B6819
:103440003B617B695B00032202FA03F3DB433A69C9
:1034500013403B613B68DA687B695B0002FA03F367
:103460003A6913433B617B683A699A607B685B68A1
:103470003B6101227B6902FA03F3DB433A691340A3
:103480003B613B685B681B0903F001027B6902FA40
:1034900003F33A6913433B617B683A695A603B68BE
:1034A0005B6803F00303032B09D13B685B6803F0FF
:1034B0000303032B1BD13B689B68012B17D07B6850
:1034C000DB683B617B695B00032202FA03F3DB43A9
:1034D0003A6913403B613B689A687B695B0002FA7A
:1034E00003F33A6913433B617B683A69DA603B68EE
:1034F0005B6803F00303022B23D17B69DA087B6846
:10350000083253F822303B617B6903F007039B00CC
:103510000F2202FA03F3DB433A6913403B613B6835
:103520001A697B6903F007039B0002FA03F33A6907
:1035300013433B617B69DA087B680832396943F8D9
:1035400022107B681B683B617B695B00032202FAE7
:1035500003F3DB433A6913403B613B685B6803F06C
:1035600003027B695B0002FA03F33A6913433B6190
:103570007B683A691A603B685B6803F44033002B50
:1035800000F0A6805B4B1B6E5A4A43F001031366A2
:10359000584B1B6E03F00103BB60BB68564A7B6946
:1035A0009B08023352F823303B617B6903F003032D
:1035B0009B000F2202FA03F3DB433A6913403B619D
:1035C0007B68B3F1904F1FD07B684C4A934219D06F
:1035D0007B684B4A934213D07B684A4A93420DD092
:1035E0007B68494A934207D07B68484A934201D19D
:1035F00005230AE0062308E0042306E0032304E091
:10360000022302E0012300E000237A6902F00302B2
:10361000920093403A6913433B6137497B699B08A9
:1036200002333A6941F82320394B9B683B61FB68C0
:10363000DB433A6913403B613B685B6803F48013EA
:10364000002B03D03A69FB6813433B61304A3B6966
:1036500093602F4BDB683B61FB68DB433A691340A7
:103660003B613B685B6803F40013002B03D03A69AD
:10367000FB6813433B61264A3B69D360244B5B687C
:103680003B61FB68DB433A6913403B613B685B6825
:1036900003F40033002B03D03A69FB6813433B610A
:1036A0001B4A3B6953601A4B1B683B61FB68DB4359
:1036B0003A6913403B613B685B6803F48033002B3D
:1036C00003D03A69FB6813433B61114A3B691360BD
:1036D0007B6901337B613B681A687B6922FA03F3DB
:1036E000002B7FF493AE00BF00BF1C37BD465DF8D2
:1036F000047B7047001002400000014000040048B5
:1037000000080048000C0048001000480014004861
:103710000004014080B485B000AF78600B467B8028
:103720007B681A697B881340002B02D00123FB734E
:1037300001E00023FB73FB7B18461437BD465DF8A0
:10374000047B704780B483B000AF78600B467B8009
:1037500013467B707B78002B03D07A887B689A6154
:1037600002E07A887B689A6200BF0C37BD465DF83C
:10377000047B704780B584B000AF78607B68002B15
:1037800001D101238EE07B681B681A46474B9A42A1
:103790000FD87B681B681A46454B1344454AA2FB69
:1037A00003231B099A007B685A647B68424A1A64A7
:1037B0000EE07B681B681A46404B13443D4AA2FB4F
:1037C00003231B099A007B685A647B683C4A1A648D
:1037D0007B68022283F825207B681B681B68FB60DE
:1037E000FB6823F4FF4323F07003FB607B689A6857
:1037F0007B68DB681A437B681B691A437B685B69DB
:103800001A437B689B691A437B68DB691A437B68B0
:103810001B6A1343FA681343FB607B681B68FA68F2
:103820001A60786800F014FA7B689B68B3F5804FE3
:1038300002D17B6800225A607B685A687B689B6C67
:1038400002F07F021A607B68DB6C7A68126D5A6046
:103850007B685B68002B10D07B685B68042B0CD8FE
:10386000786800F03DFA7B685B6D00221A607B6827
:103870009B6D7A68D26D5A6008E07B6800225A65B9
:103880007B6800229A657B680022DA657B680022EB
:10389000DA637B68012283F825207B68002283F8A5
:1038A0002420002318461037BD4680BD070402407F
:1038B000F8FFFDBFCDCCCCCC00000240F8FBFDBF33
:1038C0000004024080B586B000AFF860B9607A604D
:1038D0003B600023FB75FB6893F82430012B01D17A
:1038E000022366E0FB68012283F82420FB6893F83A
:1038F0002530DBB2012B55D1FB68022283F825204D
:10390000FB680022DA63FB681B681A68FB681B68A7
:1039100022F001021A603B687A68B968F86800F022
:1039200059F9FB681B6B002B08D0FB681B681A68F1
:10393000FB681B6842F00E021A600FE0FB681B6810
:103940001A68FB681B6822F004021A60FB681B6897
:103950001A68FB681B6842F00A021A60FB689B6CDD
:103960001B6803F48033002B07D0FB689B6C1A683C
:10397000FB689B6C42F480721A60FB685B6D002BE5
:1039800007D0FB685B6D1A68FB685B6D42F4807260
:103990001A60FB681B681A68FB681B6842F001022A
:1039A0001A6005E0FB68002283F824200223FB75DF
:1039B000FB7D18461837BD4680BD80B485B000AF8A
:1039C00078600023FB737B68002B01D101234CE05E
:1039D0007B6893F82530DBB2022B05D07B6804228C
:1039E000DA630123FB7337E07B681B681A687B6826
:1039F0001B6822F001021A607B681B681A687B68EA
:103A00001B6822F00E021A607B689B6C1A687B6848
:103A10009B6C22F480721A607B685B6C03F01F025F
:103A20007B681B6C012101FA02F25A607B68DB6C37
:103A30007A68126D5A607B685B6D002B0CD07B68D6
:103A40005B6D1A687B685B6D22F480721A607B681C
:103A50009B6D7A68D26D5A607B68012283F82520BD
:103A60007B68002283F82420FB7B18461437BD4670
:103A70005DF8047B704780B584B000AF78607B68E8
:103A80001B6C1B68FB607B681B681B68BB607B68EA
:103A90005B6C03F01F0304229A40FB681340002B69
:103AA00026D0BB6803F00403002B21D07B681B6881
:103AB0001B6803F02003002B07D17B681B681A6882
:103AC0007B681B6822F004021A607B685B6C03F061
:103AD0001F027B681B6C042101FA02F25A607B68AA
:103AE0001B6B002B71D07B681B6B786898476CE070
:103AF0007B685B6C03F01F0302229A40FB68134053
:103B0000002B2ED0BB6803F00203002B29D07B686A
:103B10001B681B6803F02003002B0BD17B681B681C
:103B20001A687B681B6822F00A021A607B6801220F
:103B300083F825207B685B6C03F01F027B681B6C9D
:103B4000022101FA02F25A607B68002283F82420E5
:103B50007B68DB6A002B38D07B68DB6A7868984723
:103B600033E07B685B6C03F01F0308229A40FB681C
:103B70001340002B2AD0BB6803F00803002B25D08C
:103B80007B681B681A687B681B6822F00E021A604B
:103B90007B685B6C03F01F027B681B6C012101FAE0
:103BA00002F25A607B680122DA637B68012283F8A3
:103BB00025207B68002283F824207B685B6B002B28
:103BC00004D07B685B6B7868984700BF00BF1037F4
:103BD000BD4680BD80B485B000AFF860B9607A6042
:103BE0003B60FB68DB6CFA68126D5A60FB685B6DCA
:103BF000002B04D0FB689B6DFA68D26D5A60FB689D
:103C00005B6C03F01F02FB681B6C012101FA02F2DE
:103C10005A60FB681B683A685A60FB689B68102B07
:103C200008D1FB681B687A689A60FB681B68BA68F1
:103C3000DA6007E0FB681B68BA689A60FB681B687B
:103C40007A68DA6000BF1437BD465DF8047B7047C0
:103C500080B487B000AF78607B681B681A461B4B46
:103C60009A420BD81A4B3B617B681B68DBB2083B5E
:103C7000184AA2FB03231B097B610BE0164B3B6137
:103C80007B681B68DBB2083B124AA2FB03231B09BB
:103C900008337B613B69FB607B685B6C9B089A0027
:103CA000FB6813441A467B689A647B680B4ADA64A3
:103CB0007B6903F01F0301229A407B681A6500BFED
:103CC0001C37BD465DF8047B704700BF0704024007
:103CD00000080240CDCCCCCC200802408008024035
:103CE00080B485B000AF78607B685B6803F07F03C9
:103CF000FB60FA680B4B13449B001A467B685A65BD
:103D00007B68094A9A65FB68013B03F01F030122A7
:103D10009A407B68DA6500BF1437BD465DF8047BC6
:103D2000704700BF3F8200104009024080B485B058
:103D300000AF78607B68002B41D14B4B1B6803F4CC
:103D4000C063B3F5806F31D1474BD3F88030464A1A
:103D500023F48073C2F88030434B1B6823F4C063A4
:103D6000414A43F400731360404B1B68322202FB4C
:103D700003F33F4AA2FB03239B0C0133FB6002E0E9
:103D8000FB68013BFB60384B5B6903F48063B3F570
:103D9000806F02D1FB68002BF2D1334B5B6903F4D7
:103DA0008063B3F5806F58D1032357E02E4BD3F8CF
:103DB00080302D4A23F48073C2F880304DE07B6858
:103DC000B3F5007F41D1284B1B6803F4C063B3F502
:103DD000806F31D1244BD3F88030234A43F4807371
:103DE000C2F88030204B1B6823F4C0631E4A43F4A2
:103DF000007313601D4B1B68322202FB03F31C4A45
:103E0000A2FB03239B0C0133FB6002E0FB68013B38
:103E1000FB60154B5B6903F48063B3F5806F02D1DF
:103E2000FB68002BF2D1104B5B6903F48063B3F5A0
:103E3000806F12D1032311E00B4BD3F880300A4A74
:103E400043F48073C2F8803007E0074B1B6823F40B
:103E5000C063054A43F48063136000231846143797
:103E6000BD465DF8047B70470070004000000020F4
:103E700083DE1B4380B400AF054B9B68044A43F4C8
:103E80008043936000BFBD465DF8047B704700BF70
:103E90000070004080B485B000AF78607B6803F0AC
:103EA0000703FB600C4BDB68BB60BA684FF6FF038F
:103EB0001340BB60FB681A02BB68134343F0BF6347
:103EC00043F40033BB60044ABB68D36000BF1437BF
:103ED000BD465DF8047B704700ED00E080B400AFA4
:103EE000044BDB681B0A03F007031846BD465DF868
:103EF000047B704700ED00E080B483B000AF034660
:103F0000FB7197F90730002B0BDBFB7903F01F02E5
:103F1000074997F907305B09012000FA02F241F8DE
:103F2000232000BF0C37BD465DF8047B704700BFFF
:103F300000E100E080B483B000AF03463960FB715C
:103F400097F90730002B0ADB3B68DAB20C4997F986
:103F500007301201D2B20B4483F800230AE03B6819
:103F6000DAB20849FB7903F00F03043B1201D2B225
:103F70000B441A7600BF0C37BD465DF8047B7047D2
:103F800000E100E000ED00E080B489B000AFF8602F
:103F9000B9607A60FB6803F00703FB61FB69C3F15A
:103FA0000703042B28BF0423BB61FB690433062BE2
:103FB00002D9FB69033B00E000237B614FF0FF3235
:103FC000BB6902FA03F3DA43BB681A407B699A4083
:103FD0004FF0FF317B6901FA03F3D9437B680B4053
:103FE000134318462437BD465DF8047B7047000034
:103FF00080B582B000AF78607B68013BB3F1807F11
:1040000001D301230FE00A4A7B68013B53600F2173
:104010004FF0FF30FFF78EFF054B00229A60044BF4
:1040200007221A60002318460837BD4680BD00BF2E
:1040300010E000E080B582B000AF78607868FFF7EC
:1040400029FF00BF0837BD4680BD80B586B000AFF0
:104050000346B9607A60FB73FFF740FF78617A68C6
:10406000B9687869FFF790FF024697F90F3011465B
:104070001846FFF75FFF00BF1837BD4680BD80B50B
:1040800082B000AF0346FB7197F907301846FFF77F
:1040900033FF00BF0837BD4680BD80B582B000AF9A
:1040A00078607868FFF7A4FF034618460837BD46D6
:1040B00080BD80B582B000AF78607B68002B01D1F5
:1040C00001238DE07B6893F84130DBB2002B06D1F1
:1040D0007B68002283F84020786803F081FF7B68CA
:1040E000242283F841207B681B681A687B681B6860
:1040F00022F001021A607B685A687B681B6822F014
:1041000070621A617B681B689A687B681B6822F47E
:1041100000429A607B68DB68012B07D17B689A6854
:104120007B681B6842F400429A6006E07B689A68EC
:104130007B681B6842F404429A607B68DB68022B50
:1041400008D17B681B685A687B681B6842F4006270
:104150005A6007E07B681B685A687B681B6822F41A
:1041600000625A607B681B685B687A68126843F07B
:10417000007343F4004353607B681B68DA687B6814
:104180001B6822F40042DA607B681A697B685B690D
:1041900042EA03017B689B691A027B681B680A4339
:1041A000DA607B68D9697B681A6A7B681B680A4396
:1041B0001A607B681B681A687B681B6842F0010202
:1041C0001A607B6800225A647B68202283F84120B1
:1041D0007B6800221A637B68002283F84220002358
:1041E00018460837BD4680BD80B588B002AFF8607C
:1041F000084611461A4603467B810B463B8113460F
:10420000FB80FB6893F84130DBB2202B40F0F98053
:104210003B6A002B02D0BB8C002B05D1FB684FF40E
:1042200000725A640123EDE0FB6893F84030012BE3
:1042300001D10223E6E0FB68012283F84020FEF76B
:1042400033F978617B690093192301224FF400410F
:10425000F86800F055F90346002B01D00123D1E0A6
:10426000FB68212283F84120FB68402283F842202A
:10427000FB6800225A64FB683A6A5A62FB68BA8C8F
:104280005A85FB6800225A63F8883A8979897B69E4
:104290000193BB6A00930346F86800F0B9F803463F
:1042A000002B05D0FB68002283F840200123A9E001
:1042B000FB685B8D9BB2FF2B0ED9FB68FF221A8532
:1042C000FB681B8DDAB27989002300934FF080736D
:1042D000F86800F0D9FA0FE0FB685B8D9AB2FB68D2
:1042E0001A85FB681B8DDAB27989002300934FF0A1
:1042F0000073F86800F0C8FA7A69B96AF86800F0E3
:1043000058F90346002B01D001237BE0FB685B6A70
:104310001A78FB681B689A62FB685B6A5A1CFB6828
:104320005A62FB685B8D9BB2013B9AB2FB685A856F
:10433000FB681B8D013B9AB2FB681A85FB685B8D9D
:104340009BB2002B34D0FB681B8D002B30D17B69D6
:104350000093BB6A00228021F86800F0D1F8034680
:10436000002B01D001234DE0FB685B8D9BB2FF2B3E
:104370000ED9FB68FF221A85FB681B8DDAB279899A
:10438000002300934FF08073F86800F07DFA0FE08F
:10439000FB685B8D9AB2FB681A85FB681B8DDAB2ED
:1043A0007989002300934FF00073F86800F06CFAED
:1043B000FB685B8D9BB2002B9ED17A69B96AF86865
:1043C00000F03EF90346002B01D001231AE0FB6800
:1043D0001B682022DA61FB681B685968FB681A6851
:1043E0000A4B0B405360FB68202283F84120FB6896
:1043F000002283F84220FB68002283F8402000233B
:1044000000E0022318461837BD4680BD00E800FED4
:1044100080B586B002AFF860084611461A460346DA
:104420007B810B463B811346FB80FB88DAB279899E
:10443000204B00934FF08073F86800F025FAFA697A
:10444000B969F86800F0B5F80346002B01D00123E4
:104450002CE0FB88012B05D13B89DAB2FB681B6895
:104460009A6215E03B891B0A9BB2DAB2FB681B68B3
:104470009A62FA69B969F86800F09BF80346002B64
:1044800001D0012312E03B89DAB2FB681B689A6213
:10449000FB690093BB6900228021F86800F030F8C6
:1044A0000346002B01D0012300E0002318461037FB
:1044B000BD4680BD0020008080B483B000AF78602E
:1044C0007B681B689B6903F00203022B03D17B68A6
:1044D0001B6800229A627B681B689B6903F00103DA
:1044E000012B07D07B681B689A697B681B6842F0C8
:1044F00001029A6100BF0C37BD465DF8047B70472E
:1045000080B584B000AFF860B9603B601346FB71C2
:104510003BE0BA693968F86800F0D6F80346002B2A
:1045200001D0012341E03B68B3F1FF3F2DD0FDF7FF
:10453000BBFF0246BB69D31A3A689A4202D33B6872
:10454000002B22D1FB681B689A69BB681340BA68CC
:104550009A420CBF01230023DBB21A46FB799A4230
:1045600013D1FB685B6C43F02002FB685A64FB6864
:10457000202283F84120FB68002283F84220FB6858
:10458000002283F8402001230FE0FB681B689A6932
:10459000BB681340BA689A420CBF01230023DBB208
:1045A0001A46FB799A42B4D0002318461037BD460C
:1045B00080BD80B584B000AFF860B9607A6033E048
:1045C0007A68B968F86800F07FF80346002B01D0DC
:1045D000012331E0BB68B3F1FF3F25D0FDF764FF55
:1045E00002467B68D31ABA689A4202D3BB68002B92
:1045F0001AD1FB681B689B6903F00203022B13D0DE
:10460000FB685B6C43F02002FB685A64FB68202265
:1046100083F84120FB68002283F84220FB680022D7
:1046200083F84020012307E0FB681B689B6903F0C7
:104630000203022BC4D1002318461037BD4680BDAB
:1046400080B584B000AFF860B9607A602FE07A6816
:10465000B968F86800F038F80346002B01D0012350
:104660002DE0FDF721FF02467B68D31ABA689A4213
:1046700002D3BB68002B1AD1FB681B689B6903F04F
:104680002003202B13D0FB685B6C43F02002FB68F7
:104690005A64FB68202283F84120FB68002283F8DB
:1046A0004220FB68002283F84020012307E0FB68DA
:1046B0001B689B6903F02003202BC8D100231846F8
:1046C0001037BD4680BD000080B58AB000AFF860ED
:1046D000B9607A60002387F82730FB681B689B6904
:1046E000BB6100233B627B68FB61BB6903F0100385
:1046F000002B68D0FB681B681022DA6149E0BB68B8
:10470000B3F1FF3F45D0FDF7CFFE0246FB69D31A58
:10471000BA689A4202D3BB68002B3AD1FB681B6887
:104720005B6803F480437B61FB6893F84230FB7461
:10473000FB681B689B6903F40043B3F5004F21D16C
:104740007B69B3F5804F1DD0FB7C202B1AD0FB6812
:104750001B685A68FB681B6842F480425A60FDF788
:10476000A3FEF8610EE0FDF79FFE0246FB69D31A37
:10477000192B07D93B6A43F020033B62012387F8DA
:10478000273006E0FB681B689B6903F02003202BA1
:10479000E9D1FB681B689B6903F02003202B03D041
:1047A00097F82730002BAAD097F82730002B03D199
:1047B000FB681B682022DA613B6A43F004033B621A
:1047C000012387F82730FB681B689B69BB61BB69C5
:1047D00003F48073002B0BD03B6A43F001033B6270
:1047E000FB681B684FF48072DA61012387F8273079
:1047F000BB6903F48063002B0BD03B6A43F00803D2
:104800003B62FB681B684FF48062DA61012387F822
:104810002730BB6903F40073002B0BD03B6A43F0D5
:1048200002033B62FB681B684FF40072DA610123EC
:1048300087F8273097F82730002B1CD0F868FFF74F
:104840003BFEFB681B685968FB681A680D4B0B4000
:104850005360FB685A6C3B6A1A43FB685A64FB68F6
:10486000202283F84120FB68002283F84220FB6865
:10487000002283F8402097F8273018462837BD4695
:1048800080BD00BF00E800FE80B487B000AFF860D4
:104890007B600B467B8113467B727B89C3F30902E5
:1048A0007B7A1B0403F47F031A437B681A433B6A39
:1048B000134323F000437B61FB681B685A683B6A23
:1048C0005B0D03F48061084B0B43DB4302EA0301F9
:1048D000FB681B687A690A435A6000BF1C37BD46F3
:1048E0005DF8047B704700BFFF63FF0380B483B0B3
:1048F00000AF786039607B6893F84130DBB2202BE1
:1049000038D17B6893F84030012B01D1022332E08B
:104910007B68012283F840207B68242283F84120B1
:104920007B681B681A687B681B6822F001021A60AA
:104930007B681B681A687B681B6822F480521A60C7
:104940007B681B6819687B681B683A680A431A60B1
:104950007B681B681A687B681B6842F001021A605A
:104960007B68202283F841207B68002283F8402066
:10497000002300E0022318460C37BD465DF8047B97
:10498000704780B485B000AF786039607B6893F879
:104990004130DBB2202B39D17B6893F84030012BBA
:1049A00001D1022333E07B68012283F840207B6839
:1049B000242283F841207B681B681A687B681B6887
:1049C00022F001021A607B681B681B68FB60FB68B1
:1049D00023F47063FB603B681B02FA681343FB60BF
:1049E0007B681B68FA681A607B681B681A687B68BA
:1049F0001B6842F001021A607B68202283F8412084
:104A00007B68002283F84020002300E00223184640
:104A10001437BD465DF8047B704780B584B000AFA5
:104A200078607B68002B01D101239DE07B685B6A85
:104A3000002B08D17B685B68B3F5827F09D07B6867
:104A40000022DA6105E07B6800221A617B6800229F
:104A50005A617B6800229A627B6893F85D30DBB212
:104A6000002B06D17B68002283F85C20786803F075
:104A70000FFB7B68022283F85D207B681B681A6845
:104A80007B681B6822F040021A607B68DB68B3F524
:104A9000E06F02D90023FB6002E04FF48053FB601B
:104AA0007B68DB68B3F5706F07D07B68DB68B3F5B4
:104AB000E06F02D07B6800229A627B685B6803F437
:104AC00082727B689B6803F404431A437B681B690A
:104AD00003F002031A437B685B6903F001031A4386
:104AE0007B689B6903F400731A437B68DB6903F0FE
:104AF00038031A437B681B6A03F0800342EA030110
:104B00007B689B6A03F400527B681B680A431A6047
:104B10007B689B691B0C03F004027B685B6A03F0F3
:104B200010031A437B685B6B03F008031A437B682E
:104B3000DB6803F4706342EA0301FB6803F480520C
:104B40007B681B680A435A607B681B68DA697B686C
:104B50001B6822F40062DA617B6800221A667B68B7
:104B6000012283F85D20002318461037BD4680BD22
:104B700080B582B000AF78607B68002B01D1012343
:104B800049E07B6893F83D30DBB2002B06D17B68AF
:104B9000002283F83C20786803F0BEFA7B6802228A
:104BA00083F83D207B681A687B68043319461046F9
:104BB00000F06EFD7B68012283F848207B680122AB
:104BC00083F83E207B68012283F83F207B68012226
:104BD00083F840207B68012283F841207B68012212
:104BE00083F842207B68012283F843207B680122FE
:104BF00083F844207B68012283F845207B680122EA
:104C000083F846207B68012283F847207B680122D5
:104C100083F83D20002318460837BD4680BD0000BC
:104C200080B485B000AF78607B6893F83D30DBB22C
:104C3000012B01D0012354E07B68022283F83D2040
:104C40007B681B68DA687B681B6842F00102DA60E7
:104C50007B681B68264A934222D07B681B68B3F1AD
:104C6000804F1DD07B681B68224A934218D07B6816
:104C70001B68214A934213D07B681B681F4A9342EA
:104C80000ED07B681B681E4A934209D07B681B6864
:104C90001C4A934204D07B681B681B4A934215D17F
:104CA0007B681B689A68194B1340FB60FB68062BF6
:104CB00015D0FB68B3F5803F11D07B681B681A687C
:104CC0007B681B6842F001021A6008E07B681B6881
:104CD0001A687B681B6842F001021A6000E000BF9E
:104CE000002318461437BD465DF8047B704700BFAB
:104CF000002C01400004004000080040000C00406F
:104D00000034014000400140005001400700010014
:104D100080B582B000AF78607B68002B01D10123A1
:104D200049E07B6893F83D30DBB2002B06D17B680D
:104D3000002283F83C20786800F041F87B6802226A
:104D400083F83D207B681A687B6804331946104657
:104D500000F09EFC7B68012283F848207B680122DA
:104D600083F83E207B68012283F83F207B68012284
:104D700083F840207B68012283F841207B68012270
:104D800083F842207B68012283F843207B6801225C
:104D900083F844207B68012283F845207B68012248
:104DA00083F846207B68012283F847207B68012234
:104DB00083F83D20002318460837BD4680BD80B4E7
:104DC00083B000AF786000BF0C37BD465DF8047B50
:104DD0007047000080B584B000AF78603960002370
:104DE000FB733B68002B09D17B6893F83E30DBB244
:104DF000012B14BF01230023DBB23CE03B68042BF2
:104E000009D17B6893F83F30DBB2012B14BF01233B
:104E10000023DBB22FE03B68082B09D17B6893F8B5
:104E20004030DBB2012B14BF01230023DBB222E0B0
:104E30003B680C2B09D17B6893F84130DBB2012B26
:104E400014BF01230023DBB215E03B68102B09D10E
:104E50007B6893F84230DBB2012B14BF012300239F
:104E6000DBB208E07B6893F84330DBB2012B14BF60
:104E700001230023DBB2002B01D00123F1E03B68CA
:104E8000002B04D17B68022283F83E2023E03B689C
:104E9000042B04D17B68022283F83F201BE03B688F
:104EA000082B04D17B68022283F8402013E03B6882
:104EB0000C2B04D17B68022283F841200BE03B6875
:104EC000102B04D17B68022283F8422003E07B6828
:104ED000022283F843203B680C2B41D801A252F8F0
:104EE00023F000BF194F0008614F0008614F000810
:104EF000614F00082B4F0008614F0008614F000808
:104F0000614F00083D4F0008614F0008614F0008E5
:104F1000614F00084F4F00087B681B68DA687B68A8
:104F20001B6842F00202DA601DE07B681B68DA68E9
:104F30007B681B6842F00402DA6014E07B681B683F
:104F4000DA687B681B6842F00802DA600BE07B6875
:104F50001B68DA687B681B6842F01002DA6002E0C6
:104F60000123FB7300BFFB7B002B79D17B681B689F
:104F700001223968184601F04AF87B681B683B4AF1
:104F8000934218D07B681B68394A934213D07B68E0
:104F90001B68384A93420ED07B681B68364A93429E
:104FA00009D07B681B68354A934204D07B681B6834
:104FB000334A934201D1012300E00023002B07D0A4
:104FC0007B681B685A6C7B681B6842F400425A6419
:104FD0007B681B68254A934222D07B681B68B3F12B
:104FE000804F1DD07B681B68264A934218D07B688F
:104FF0001B68254A934213D07B681B68234A93425F
:105000000ED07B681B681A4A934209D07B681B68E4
:10501000184A934204D07B681B68194A934215D101
:105020007B681B689A681A4B1340BB60BB68062BF1
:1050300015D0BB68B3F5803F11D07B681B681A6838
:105040007B681B6842F001021A6008E07B681B68FD
:105050001A687B681B6842F001021A6000E000BF1A
:10506000FB7B18461037BD4680BD00BF002C0140B9
:10507000003401400040014000440140004801402C
:10508000005001400004004000080040000C0040B7
:105090000700010080B584B000AF78607B681B68B2
:1050A000DB68FB607B681B681B69BB60BB6803F047
:1050B0000203002B20D0FB6803F00203002B1BD05F
:1050C0007B681B686FF002021A617B6801221A7705
:1050D0007B681B689B6903F00303002B03D078688F
:1050E00000F0B8FA05E0786806F070F8786800F02B
:1050F000BBFA7B6800221A77BB6803F00403002B1D
:1051000020D0FB6803F00403002B1BD07B681B68D6
:105110006FF004021A617B6802221A777B681B68B1
:105120009B6903F44073002B03D0786800F092FA77
:1051300005E0786806F04AF8786800F095FA7B6830
:1051400000221A77BB6803F00803002B20D0FB680D
:1051500003F00803002B1BD07B681B686FF008026C
:105160001A617B6804221A777B681B68DB6903F08D
:105170000303002B03D0786800F06CFA05E0786830
:1051800006F024F8786800F06FFA7B6800221A773E
:10519000BB6803F01003002B20D0FB6803F0100362
:1051A000002B1BD07B681B686FF010021A617B68B4
:1051B00008221A777B681B68DB6903F44073002BB5
:1051C00003D0786800F046FA05E0786805F0FEFF45
:1051D000786800F049FA7B6800221A77BB6803F010
:1051E0000103002B0CD0FB6803F00103002B07D058
:1051F0007B681B686FF001021A61786805F0D0FFC8
:10520000BB6803F08003002B04D1BB6803F4005398
:10521000002B0CD0FB6803F08003002B07D07B68C9
:105220001B686FF402521A61786800F0B5FFBB6822
:1052300003F48073002B0CD0FB6803F08003002B79
:1052400007D07B681B686FF480721A61786800F081
:10525000ADFFBB6803F04003002B0CD0FB6803F0EC
:105260004003002B07D07B681B686FF040021A6177
:10527000786800F003FABB6803F02003002B0CD021
:10528000FB6803F02003002B07D07B681B686FF0DE
:1052900020021A61786800F075FFBB6803F4801380
:1052A000002B0CD0FB6803F48013002B07D07B6825
:1052B0001B686FF480121A61786800F081FFBB6888
:1052C00003F40013002B0CD0FB6803F40013002B35
:1052D00007D07B681B686FF400121A61786800F0D1
:1052E00079FFBB6803F48003002B0CD0FB6803F448
:1052F0008003002B07D07B681B686FF480021A6163
:10530000786800F071FFBB6803F40003002B0CD039
:10531000FB6803F40003002B07D07B681B686FF465
:1053200000021A61786800F069FF00BF1037BD46BF
:1053300080BD000080B586B000AFF860B9607A60CB
:105340000023FB75FB6893F83C30012B01D102234D
:1053500066E0FB68012283F83C207B68142B57D859
:1053600001A252F823F000BFBD53000811540008F9
:105370001154000811540008CB53000811540008C0
:105380001154000811540008D953000811540008A2
:105390001154000811540008E75300081154000884
:1053A0001154000811540008F55300081154000866
:1053B000115400081154000803540008FB681B68CE
:1053C000B968184600F012FA25E0FB681B68B96856
:1053D000184600F0A7FA1EE0FB681B68B96818467B
:1053E00000F036FB17E0FB681B68B968184600F050
:1053F000C3FB10E0FB681B68B968184600F052FC5C
:1054000009E0FB681B68B968184600F0B5FC02E0CB
:105410000123FB7500BFFB68002283F83C20FB7D65
:1054200018461837BD4680BD80B584B000AF78609F
:1054300039600023FB737B6893F83C30012B01D16A
:105440000223F6E07B68012283F83C207B6802227D
:1054500083F83D207B681B689B68BB60BB6823F4B6
:10546000441323F07703BB60BB6823F47F43BB6026
:105470007B681B68BA689A603B681B686F4A9342F6
:1054800000F0C1806D4A934200F2C6806C4A93429C
:1054900000F0B9806A4A934200F2BE80694A9342A2
:1054A00000F0B180674A934200F2B680664A9342A8
:1054B00000F0A980644A934200F2AE80634A9342AE
:1054C00000F0A180614A934200F2A680604A9342B4
:1054D00000F099805E4A934200F29E80B3F1101F63
:1054E00000F09180B3F1101F00F29680B3F5801F99
:1054F00000F08980B3F5801F00F28E80B3F5005F65
:105500003ED0B3F5005F00F28780B3F5805F00F016
:105510008680B3F5805F7FD8702B1AD0702B7BD834
:10552000602B50D0602B77D8502B3CD0502B73D8A9
:10553000402B58D0402B6FD8302B64D0302B6BD8F9
:10554000202B60D0202B67D8002B5CD0102B5AD09A
:1055500062E07B6818683B6899683B685A683B68FA
:10556000DB6800F034FD7B681B689B68BB60BB6830
:1055700043F07703BB607B681B68BA689A604FE0B2
:105580007B6818683B6899683B685A683B68DB68C9
:1055900000F01DFD7B681B689A687B681B6842F4FD
:1055A00080429A603CE07B6818683B6859683B68B9
:1055B000DB681A4600F04CFC7B681B6850211846DB
:1055C00000F0E8FC2CE07B6818683B6859683B6891
:1055D000DB681A4600F096FC7B681B686021184661
:1055E00000F0D8FC1CE07B6818683B6859683B6891
:1055F000DB681A4600F02CFC7B681B6840211846CB
:1056000000F0C8FC0CE07B681A683B681B68194610
:10561000104600F0BFFC03E00123FB7300E000BF75
:105620007B68012283F83D207B68002283F83C20C0
:10563000FB7B18461037BD4680BD00BF70001000D0
:1056400060001000500010004000100030001000FA
:105650002000100080B483B000AF786000BF0C372A
:10566000BD465DF8047B704780B483B000AF7860BE
:1056700000BF0C37BD465DF8047B704780B483B033
:1056800000AF786000BF0C37BD465DF8047B704703
:1056900080B485B000AF786039607B681B68FB60C0
:1056A0007B68494A934217D07B68B3F1804F13D08F
:1056B0007B68464A93420FD07B68454A93420BD0A1
:1056C0007B68444A934207D07B68434A934203D0A5
:1056D0007B68424A934208D1FB6823F07003FB6069
:1056E0003B685B68FA681343FB607B68364A934209
:1056F00023D07B68B3F1804F1FD07B68334A93423D
:105700001BD07B68324A934217D07B68314A934260
:1057100013D07B68304A93420FD07B68304A934263
:105720000BD07B682F4A934207D07B682E4A934266
:1057300003D07B68294A934208D1FB6823F4407365
:10574000FB603B68DB68FA681343FB60FB6823F08F
:1057500080023B685B691343FB603B689A687B6827
:10576000DA623B681A687B689A627B68164A9342E1
:1057700013D07B68184A93420FD07B68184A934233
:105780000BD07B68174A934207D07B68164A934236
:1057900003D07B68114A934203D13B681A697B6846
:1057A0001A637B681B6843F004027B681A607B689D
:1057B00001225A617B68FA681A6000BF1437BD463F
:1057C0005DF8047B704700BF002C014000040040DE
:1057D00000080040000C004000340140005001402F
:1057E00000400140004401400048014080B487B0BF
:1057F00000AF786039607B681B6A7B617B681B6ADD
:1058000023F001027B681A627B685B683B617B68FE
:105810009B69FB60FB6823F4803323F07003FB601B
:10582000FB6823F00303FB603B681B68FA681343C3
:10583000FB607B6923F002037B613B689B687A69AC
:1058400013437B617B68314A934213D07B68304AB3
:1058500093420FD07B682F4A93420BD07B682E4A2D
:10586000934207D07B682D4A934203D07B682C4A31
:1058700093420ED17B681B6A23F004027B681A6294
:105880007B6923F008037B613B68DB687A6913431B
:105890007B617B681D4A934213D07B681C4A93420C
:1058A0000FD07B681B4A93420BD07B681A4A934205
:1058B00007D07B68194A934203D07B68184A934209
:1058C00011D13B6923F480733B613B6923F400737E
:1058D0003B613B685B693A6913433B613B689B6989
:1058E0003A6913433B617B683A695A607B68FA689E
:1058F0009A613B685A687B685A637B687A691A6266
:1059000000BF1C37BD465DF8047B7047002C01408A
:105910000034014000400140004401400048014083
:105920000050014080B487B000AF786039607B6878
:105930001B6A7B617B681B6A23F010027B681A621A
:105940007B685B683B617B689B69FB60FB6823F05D
:10595000807323F4E043FB60FB6823F44073FB6037
:105960003B681B681B02FA681343FB607B6923F0EA
:1059700020037B613B689B681B017A6913437B6151
:105980007B682D4A934207D07B682C4A934203D010
:105990007B682B4A93420FD17B681B6A23F040023D
:1059A0007B681A627B6923F080037B613B68DB685C
:1059B0001B017A6913437B617B681F4A934213D0B2
:1059C0007B681E4A93420FD07B681E4A93420BD0DD
:1059D0007B681D4A934207D07B681C4A934203D0E0
:1059E0007B68174A934213D13B6923F480633B6180
:1059F0003B6923F400633B613B685B699B003A6948
:105A000013433B613B689B699B003A6913433B61CD
:105A10007B683A695A607B68FA689A613B685A68A1
:105A20007B689A637B687A691A6200BF1C37BD463F
:105A30005DF8047B704700BF002C0140003401403A
:105A40000050014000400140004401400048014036
:105A500080B487B000AF786039607B681B6A7B6177
:105A60007B681B6A23F480727B681A627B685B68C0
:105A70003B617B68DB69FB60FB6823F4803323F0C8
:105A80007003FB60FB6823F00303FB603B681B684B
:105A9000FA681343FB607B6923F400737B613B6806
:105AA0009B681B027A6913437B617B682C4A934293
:105AB00007D07B682B4A934203D07B682A4A9342E3
:105AC0000FD17B681B6A23F480627B681A627B6952
:105AD00023F400637B613B68DB681B027A69134334
