:020000040800F2
:10000000000002206D420008234000082B40000839
:10001000334000083B400008434000080000000057
:100020000000000000000000000000004B4000083D
:1000300059400008000000006740000875400008B3
:10004000BD420008BD420008BD420008BD42000894
:10005000BD420008BD420008BD420008BD42000884
:10006000BD420008BD420008BD420008BD42000874
:10007000BD420008BD420008BD420008BD42000864
:10008000BD420008BD42000883400008BD42000890
:10009000BD420008BD420008BD420008BD42000844
:1000A000BD420008BD420008BD420008BD42000834
:1000B0008F400008BD420008BD420008BD42000854
:1000C000BD4200089D400008E1400008BD42000814
:1000D000BD420008BD420008BD420008BD42000804
:1000E000BD420008BD420008BD420008BD420008F4
:1000F000BD420008BD420008BD420008BD420008E4
:10010000BD420008BD420008BD420008BD420008D3
:10011000BD420008BD420008BD420008BD420008C3
:10012000BD420008BD420008BD420008BD420008B3
:10013000BD420008BD420008BD420008BD420008A3
:10014000BD420008BD420008BD420008BD42000893
:10015000BD420008BD420008BD420008BD42000883
:10016000BD420008BD420008BD420008BD42000873
:10017000BD420008BD420008BD420008BD42000863
:10018000BD420008BD420008BD420008BD42000853
:10019000BD42000800000000BD420008BD4200084A
:1001A000BD420008BD420008BD420008BD42000833
:1001B000BD420008BD420008BD420008BD42000823
:1001C000BD420008BD420008BD420008BD42000813
:0801D000BD420008BD42000819
:1001E00010B5054C237833B9044B13B10448AFF371
:1001F00000800123237010BD2801002000000000B2
:1002000084B4000808B5034B1BB103490348AFF39E
:10021000008008BD000000002C01002084B400080C
:1002200081F0004102E000BF83F0004330B54FEAA7
:1002300041044FEA430594EA050F08BF90EA020F14
:100240001FBF54EA000C55EA020C7FEA645C7FEAA7
:10025000655C00F0E2804FEA5454D4EB5555B8BFCA
:100260006D420CDD2C4480EA020281EA030382EA3B
:10027000000083EA010180EA020281EA0303362DCD
:1002800088BF30BD11F0004F4FEA01314FF4801CA0
:100290004CEA113102D0404261EB410113F0004FB2
:1002A0004FEA03334CEA133302D0524263EB430369
:1002B00094EA050F00F0A780A4F10104D5F1200E07
:1002C0000DDB02FA0EFC22FA05F2801841F1000162
:1002D00003FA0EF2801843FA05F359410EE0A5F136
:1002E00020050EF1200E012A03FA0EFC28BF4CF067
:1002F000020C43FA05F3C01851EBE37101F000451D
:1003000007D54FF0000EDCF1000C7EEB00006EEB29
:100310000101B1F5801F1BD3B1F5001F0CD34908B3
:100320005FEA30004FEA3C0C04F101044FEA44520A
:1003300012F5800F80F09A80BCF1004F08BF5FEA91
:10034000500C50F1000041EB045141EA050130BD71
:100350005FEA4C0C404141EB0101013C28BFB1F583
:10036000801FE9D291F0000F04BF01460020B1FACE
:1003700081F308BF2033A3F10B03B3F120020CDAA1
:100380000C3208DD02F1140CC2F10C0201FA0CF07F
:1003900021FA02F10CE002F11402D8BFC2F1200CE4
:1003A00001FA02F120FA0CFCDCBF41EA0C0190409A
:1003B000E41AA2BF01EB0451294330BD6FEA0404E3
:1003C0001F3C1CDA0C340EDC04F11404C4F12002CE
:1003D00020FA04F001FA02F340EA030021FA04F3E0
:1003E00045EA030130BDC4F10C04C4F1200220FA37
:1003F00002F001FA04F340EA0300294630BD21FA75
:1004000004F0294630BD94F0000F83F4801306BF3A
:1004100081F480110134013D4EE77FEA645C18BF2E
:100420007FEA655C29D094EA050F08BF90EA020FC5
:1004300005D054EA000C04BF1946104630BD91EABD
:10044000030F1EBF0021002030BD5FEA545C05D1C0
:100450004000494128BF41F0004130BD14F58004FF
:100460003CBF01F5801130BD01F0004545F0FE4173
:1004700041F470014FF0000030BD7FEA645C1ABFA8
:10048000194610467FEA655C1CBF0B46024650EADF
:10049000013406BF52EA033591EA030F41F400210B
:1004A00030BD00BF90F0000F04BF0021704730B591
:1004B0004FF4806404F132044FF000054FF0000166
:1004C00050E700BF90F0000F04BF0021704730B527
:1004D0004FF4806404F1320410F0004548BF4042FC
:1004E0004FF000013EE700BF42004FEAE2014FEA51
:1004F00031014FEA02701FBF12F07F4393F07F4F2C
:1005000081F06051704732F07F4208BF704793F02E
:100510007F4F04BF41F40021704730B54FF4607441
:1005200001F0004521F000411CE700BF50EA010244
:1005300008BF704730B54FF000050AE050EA0102ED
:1005400008BF704730B511F0004502D5404261EB5D
:1005500041014FF4806404F132045FEA915C3FF49E
:10056000D8AE4FF003025FEADC0C18BF03325FEA3B
:10057000DC0C18BF033202EBDC02C2F1200300FAEC
:1005800003FC20FA02F001FA03FE40EA0E0021FA11
:1005900002F11444BDE600BF4FEA410212F5001219
:1005A00015D211D56FF47873B3EB625212D94FEABA
:1005B000C12343F0004343EA505311F0004F23FAA4
:1005C00002F018BF404270474FF00000704750EAF9
:1005D000013005D111F0004008BF6FF000407047B6
:1005E0004FF00000704700BF034613F8012B002AAC
:1005F000FBD1181A0138704700000000000000000D
:1006000001F0FF01102A2BDB10F0070F08D010F8C3
:10061000013B013A8B422DD010F0070F42B3F6D1C7
:10062000F0B441EA012141EA014122F007047FF0E0
:1006300000070023F0E80256083C85EA010586EA37
:10064000010685FA47F5A3FA87F586FA47F6A5FA73
:1006500087F68EB9EED1F0BC01F0FF0102F007027F
:1006600032B110F8013B013A83EA010313B1F8D12A
:100670000020704701387047002D06BF354603380B
:10068000073815F0010F07D1013015F4807F02BF44
:10069000013015F4C03F0130F0BC0138704700BF95
:1006A00080B400AF064BD3F88830054A43F470039A
:1006B000C2F8883000BFBD465DF8047B704700BFBC
:1006C00000ED00E080B483B000AF786039607A68F4
:1006D0003B68B2FBF3F3074A013B5360054B002232
:1006E0009A60044B05221A6000BF0C37BD465DF8C6
:1006F000047B704710E000E080B582B000AF786006
:100700004FF47A717868FFF7DDFF00BF0837BD4608
:1007100080BD000080B485B000AF7860104B1B68CE
:10072000BB60BB687B68FB60FB68B3F1FF3F0CD02C
:10073000FB680133FB6008E0094B1B6803F480335E
:10074000002B02D0FB68013BFB60FB68002BF3D160
:1007500000BF00BF1437BD465DF8047B704700BF83
:1007600010E000E080B483B000AF7860044A7B689A
:10077000136000BF0C37BD465DF8047B704700BFB7
:100780000000002080B48BB000AFF860B9607A60E0
:10079000FB681A68BB687B617B6993FAA3F33B61D2
:1007A0003B69BB61BB69002B01D1202303E0BB691E
:1007B000B3FA83F3DBB25B00032101FA03F3DB43FB
:1007C0001A40BB683B623B6A93FAA3F3FB61FB6987
:1007D0007B627B6A002B01D1202303E07B6AB3FAA2
:1007E00083F3DBB25B00796801FA03F31A43FB6819
:1007F0001A6000BF2C37BD465DF8047B704780B49B
:1008000085B000AFF860B9607A60FB685A68BB6871
:10081000DB431A40BB68796801FB03F31A43FB68AA
:100820005A6000BF1437BD465DF8047B704780B442
:100830008BB000AFF860B9607A60FB689A68BB68FB
:100840007B617B6993FAA3F33B613B69BB61BB6945
:10085000002B01D1202303E0BB69B3FA83F3DBB2A1
:100860005B00032101FA03F3DB431A40BB683B62E0
:100870003B6A93FAA3F3FB61FB697B627B6A002B03
:1008800001D1202303E07B6AB3FA83F3DBB25B0080
:10089000796801FA03F31A43FB689A6000BF2C37AA
:1008A000BD465DF8047B704780B48BB000AFF86044
:1008B000B9607A60FB68DA68BB687B617B6993FA30
:1008C000A3F33B613B69BB61BB69002B01D12023D2
:1008D00003E0BB69B3FA83F3DBB25B00032101FAE7
:1008E00003F3DB431A40BB683B623B6A93FAA3F312
:1008F000FB61FB697B627B6A002B01D1202303E053
:100900007B6AB3FA83F3DBB25B00796801FA03F325
:100910001A43FB68DA6000BF2C37BD465DF8047BE4
:10092000704780B48BB000AFF860B9607A60FB6844
:100930001A6ABB687B617B6993FAA3F33B613B69ED
:10094000BB61BB69002B01D1202303E0BB69B3FA73
:1009500083F3DBB29B000F2101FA03F3DB431A4060
:10096000BB683B623B6A93FAA3F3FB61FB697B6262
:100970007B6A002B01D1202303E07B6AB3FA83F367
:10098000DBB29B00796801FA03F31A43FB681A6231
:1009900000BF2C37BD465DF8047B704780B48BB038
:1009A00000AFF860B9607A60FB685A6ABB681B0ADE
:1009B0007B617B6993FAA3F33B613B69BB61BB69D4
:1009C000002B01D1202303E0BB69B3FA83F3DBB230
:1009D0009B000F2101FA03F3DB431A40BB681B0A9B
:1009E0003B623B6A93FAA3F3FB61FB697B627B6A20
:1009F000002B01D1202303E07B6AB3FA83F3DBB23F
:100A00009B00796801FA03F31A43FB685A6200BF3E
:100A10002C37BD465DF8047B704780B588B000AFC9
:100A2000786039603B681B683B613B6993FAA3F3CC
:100A3000FB60FB687B617B69002B01D1202303E015
:100A40007B69B3FA83F3DBB2FB6148E03B681A6869
:100A50000121FB6901FA03F31340BB61BB69002B61
:100A60003AD03B685B68012B03D03B685B68022B84
:100A70000ED13B689B681A46B9697868FFF7D7FEC4
:100A80003B6819683B68DB681A467868FFF7B7FE71
:100A90003B681B691A46B9697868FFF705FF3B6830
:100AA0005B68022B11D1BB69FF2B07D83B685B69E0
:100AB0001A46B9697868FFF734FF06E03B685B695E
:100AC0001A46B9697868FFF769FF3B685B681A46A0
:100AD000B9697868FFF756FEFB690133FB613B6833
:100AE0001A68FB6922FA03F3002BAFD100231846E2
:100AF0002037BD4680BD80B483B000AF78603960D8
:100B00007B681B6B23F00F023B681A437B681A63F8
:100B100000BF0C37BD465DF8047B704780B483B0DE
:100B200000AF78607B689B6803F00103012B01D163
:100B3000012300E0002318460C37BD465DF8047B16
:100B40007047000090B585B000AF78603960002331
:100B5000FB737B68274A93420FD14FF0A040FFF709
:100B6000DDFF04462448FFF7D9FF03462343002B4B
:100B70000CBF01230023DBB212E02048FFF7CEFFB9
:100B800004461F48FFF7CAFF03461C431D48FFF7F2
:100B9000C5FF03462343002B0CBF01230023DBB218
:100BA000002B20D03B685B68002B12D07B689A68D2
:100BB000154B13403A6811683A68526811433A6815
:100BC000926811433A68D2680A431A437B689A6074
:100BD0000BE07B689A680C4B13403A6812681A4322
:100BE0007B689A6001E00123FB73FB7B1846143796
:100BF000BD4690BD000300500001005000040050AD
:100C00000005005000060050E030C0FF80B584B001
:100C100000AF786039600023FB737868FFF77EFFD0
:100C20000346002B11D17B68DB6823F4404323F09B
:100C300018033A6811683A68526811433A68926832
:100C40000A431A437B68DA6001E00123FB73FB7BF4
:100C500018461037BD4680BD80B584B000AF7860BF
:100C600039600023FB737868FFF758FF0346002BB9
:100C700032D13B685B68002B15D07B68DA681A4B71
:100C800013403A6811683A68926811433A68D2682A
:100C900011433A68126911433A6852690A431A4388
:100CA0007B68DA6011E07B68DA680F4B13403A68C2
:100CB00011683A68D26811433A68126911433A6878
:100CC00052690A431A437B68DA603B685B681946DD
:100CD0007868FFF710FF01E00123FB73FB7B1846E8
:100CE0001037BD4680BD00BF1CC0F0FF80B400AF10
:100CF000074B1B6803F48063B3F5806F01D10123B8
:100D000000E000231846BD465DF8047B704700BF35
:100D10000010024080B400AF074BD3F8903003F0CE
:100D20000203022B01D1012300E000231846BD4637
:100D30005DF8047B704700BF0010024080B400AF34
:100D4000044B9B6803F00C031846BD465DF8047B1A
:100D5000704700BF0010024080B400AF044B9B6896
:100D600003F0F0031846BD465DF8047B704700BFF2
:100D70000010024080B400AF044B9B6803F4E063B2
:100D80001846BD465DF8047B704700BF0010024066
:100D900080B400AF044B9B6803F460531846BD4613
:100DA0005DF8047B704700BF0010024080B483B040
:100DB00000AF7860064BD3F888207B681A407B68C8
:100DC0001B04134318460C37BD465DF8047B70477F
:100DD0000010024080B483B000AF7860064BD3F8B7
:100DE00088207B681A407B681B04134318460C3725
:100DF000BD465DF8047B70470010024080B400AF30
:100E0000044BDB6803F003031846BD465DF8047B22
:100E1000704700BF0010024080B400AF044BDB6895
:100E20001B0A03F07F031846BD465DF8047B70473C
:100E30000010024080B400AF044BDB6803F0C063D5
:100E40001846BD465DF8047B704700BF00100240A5
:100E500080B400AF044BDB6803F0F0031846BD46D6
:100E60005DF8047B704700BF0010024080B584B07D
:100E700000AF78600023FB607B68032B32D1786879
:100E8000FFF794FF0346B3F1031F16D0B3F1031F1E
:100E90001CD8514A934203D0504A934204D015E0E3
:100EA00000F02EF9F86092E0FFF720FF0346002BD8
:100EB00000F082804A4BFB607EE0FFF72BFF034689
:100EC000002B7BD04FF40043FB6077E000F018F973
:100ED0000346184600F03AF90346184600F064F954
:100EE000F86074E07B680C2B31D17868FFF75EFF07
:100EF0000346B3F10C1F15D0B3F10C1F1BD8394AB0
:100F0000934203D0384A934204D014E000F0F8F83A
:100F1000F8605CE0FFF7EAFE0346002B50D0304B50
:100F2000FB604DE0FFF7F6FE0346002B4AD04FF47E
:100F30000043FB6046E000F0E3F80346184600F08B
:100F400005F90346184600F019F9F8603FE07B68A0
:100F5000302B3CD17868FFF729FF0346B3F1301FEF
:100F600015D0B3F1301F1BD8204A934203D0204A3A
:100F7000934204D014E000F0C3F8F86027E0FFF7D4
:100F8000B5FE0346002B1FD0154BFB601CE0FFF79E
:100F9000C1FE0346002B19D04FF40043FB6015E05F
:100FA00000F0AEF80346184600F0D0F803461846A5
:100FB00000F0E4F8F8600AE000BF08E000BF06E0D7
:100FC00000BF04E000BF02E000BF00E000BFFB681C
:100FD00018461037BD4680BD010003000200030023
:100FE0000024F40004000C0008000C001000300085
:100FF0002000300080B584B000AF78600023FB6033
:101000007B68C02B34D17868FFF7E4FE0346B3F168
:10101000C01F15D0B3F1C01F1BD8344A934203D070
:10102000334A934204D014E000F06AF8F8601FE0FD
:10103000FFF75CFE0346002B17D02E4BFB6014E03D
:10104000FFF768FE0346002B11D04FF40043FB600E
:101050000DE000F055F80346184600F077F8034617
:10106000184600F08BF8F86002E000BF00E000BF17
:101070007B68B3F5407F34D17868FFF7ABFE034659
:10108000B3F1032F15D0B3F1032F1BD81A4A9342A3
:1010900003D01A4A934204D014E000F031F8F8600B
:1010A0001FE0FFF723FE0346002B17D0114BFB6018
:1010B00014E0FFF72FFE0346002B11D04FF400433E
:1010C000FB600DE000F01CF80346184600F03EF807
:1010D0000346184600F052F8F86002E000BF00E056
:1010E00000BFFB6818461037BD4680BD4000C000F9
:1010F0008000C0000024F40000010003000200038F
:1011000080B582B000AFFFF719FE03460C2B0CD060
:101110000C2B0ED8042B02D0082B03D009E0094B6E
:101120007B6009E0084B7B6006E000F053F87860D4
:1011300002E0044B7B6000BF7B6818460837BD4661
:1011400080BD00BF0024F400002D310180B582B0C5
:1011500000AF7860FFF700FE03461B0903F00F03A2
:10116000054AD35C03F01F037A6822FA03F318469A
:101170000837BD4680BD00BF44B6000880B582B0C8
:1011800000AF7860FFF7F6FD03461B0A054AD35C03
:1011900003F01F037A6822FA03F318460837BD46A6
:1011A00080BD00BF54B6000880B582B000AF786043
:1011B000FFF7EEFD0346DB0A054AD35C03F01F038D
:1011C0007A6822FA03F318460837BD4680BD00BF8F
:1011D00054B6000890B583B000AFFFF70FFE38603B
:1011E0003B68022B03D03B68032B03D005E0114B77
:1011F0007B6005E0104B7B6002E00E4B7B6000BF24
:10120000FFF70AFE02467B6803FB02F4FFF720FEAD
:1012100003461B090133B4FBF3F4FFF70BFE03464F
:101220005B0E01335B00B4FBF3F318460C37BD468D
:1012300090BD00BF0024F400002D310180B483B0C4
:1012400000AF78607B681B6843F001027B681A601E
:1012500000BF0C37BD465DF8047B704780B483B097
:1012600000AF78607B681B6823F001027B681A601E
:1012700000BF0C37BD465DF8047B704780B485B075
:1012800000AFF860B9607A60FB681B6823F4F8521D
:101290007B681902BB680B431A43FB681A6000BFE6
:1012A0001437BD465DF8047B704780B485B000AF4D
:1012B000F860B9607A60FB689B6823F4FF6323F0F1
:1012C0000703B9687A680A431A43FB689A6000BF4B
:1012D0001437BD465DF8047B704780B483B000AF1F
:1012E00078607B689B6843F400427B689A6000BF2B
:1012F0000C37BD465DF8047B704780B483B000AF07
:1013000078607B689B6823F400427B689A6000BF2A
:101310000C37BD465DF8047B704780B483B000AFE6
:10132000786039607B683A681A6100BF0C37BD4647
:101330005DF8047B704780B483B000AF786039609B
:101340007B681B6823F440123B681A437B681A6071
:1013500000BF0C37BD465DF8047B704780B483B096
:1013600000AF786039607B685B6823F400423B68BB
:101370001A437B685A6000BF0C37BD465DF8047B9A
:10138000704780B582B000AF786039607868FFF749
:1013900065FF3B6899683B68DB681A467868FFF729
:1013A0006DFF3B685B6819467868FFF7B6FF7868A1
:1013B000FFF744FF7868FFF7A0FF3B6819693B68B7
:1013C0009B691A467868FFF770FF3B681B69002B22
:1013D00002D07868FFF781FF3B681B681946786880
:1013E000FFF7A9FF3B685B6919467868FFF7B6FF0E
:1013F000002318460837BD4680BD80B483B000AFD7
:1014000078607B681B6803F04003402B01D1012307
:1014100000E0002318460C37BD465DF8047B70479A
:1014200080B483B000AF786039607B685B6823F478
:1014300080523B681A437B685A6000BF0C37BD4638
:101440005DF8047B704780B483B000AF786039608A
:101450003B689BB21A467B681A6100BF0C37BD46D9
:101460005DF8047B704780B584B000AF7860396068
:101470000123FB737868FFF7C0FF0346002B45D1BB
:101480007B681B6823F47F4323F0BF033A6811682D
:101490003A68526811433A68D26811433A6812694F
:1014A00011433A68526911433A68926911433A68A4
:1014B000D26911433A68126A0A431A437B681A6078
:1014C0007B685B6823F4706323F004033A689168D7
:1014D0003A685269120C0A431A437B685A603B68A7
:1014E0009B68B3F5006F04D24FF480517868FFF722
:1014F00097FF3B681B6AB3F5005F05D13B685B6AE9
:1015000019467868FFF79FFF0023FB737B68DB6950
:1015100023F400627B68DA61FB7B18461037BD4616
:1015200080BD80B483B000AF786039607B683A6872
:101530009A6200BF0C37BD465DF8047B704780B4EB
:1015400083B000AF786039607B683A68DA6200BFC8
:101550000C37BD465DF8047B704780B483B000AFA4
:10156000786039607B683A681A6300BF0C37BD4603
:101570005DF8047B704780B483B000AF7860396059
:101580007B683A685A6300BF0C37BD465DF8047B40
:10159000704780B483B000AF786039607B683A6888
:1015A0009A6300BF0C37BD465DF8047B704780B47A
:1015B00083B000AF786039607B683A68DA6300BF57
:1015C0000C37BD465DF8047B704780B483B000AF34
:1015D000786039607B683A681A6400BF0C37BD4692
:1015E0005DF8047B704780B483B000AF78603960E9
:1015F0007B689B6C1B0D1B053A681A437B689A64D9
:1016000000BF0C37BD465DF8047B704780B483B0E3
:1016100000AF786039607B683A68DA6400BF0C37E5
:10162000BD465DF8047B704780B483B000AF78603E
:101630007B685B6943F001027B685A6100BF0C372D
:10164000BD465DF8047B704780B584B000AF78601C
:1016500039607B681B68FB607B68434A934217D004
:101660007B68B3F1804F13D07B68404A93420FD020
:101670007B683F4A93420BD07B683E4A934207D037
:101680007B683D4A934203D07B683C4A934206D133
:10169000FB6823F070023B685B681343FB607B6868
:1016A000314A934223D07B68B3F1804F1FD07B68CF
:1016B0002E4A93421BD07B682D4A934217D07B68F9
:1016C0002C4A934213D07B682B4A93420FD07B68FD
:1016D0002B4A93420BD07B682A4A934207D07B68FF
:1016E000294A934203D07B68244A934206D1FB687F
:1016F00023F440723B68DB681343FB607B68FA6845
:101700001A603B689B6819467868FFF718FF3B68CA
:101710001B8819467868FFF704FF7B68124A9342DA
:1017200013D07B68144A93420FD07B68144A9342CB
:101730000BD07B68134A934207D07B68124A9342CE
:1017400003D07B680D4A934205D13B681B6919465B
:101750007868FFF702FF7868FFF766FF00231846F6
:101760001037BD4680BD00BF002C01400004004082
:1017700000080040000C00400034014000500140CF
:1017800000400140004401400048014080B586B05F
:1017900000AFF860B9607A600123FB75BB68B3F5F0
:1017A000801F45D0BB68B3F5801F48D8BB68B3F530
:1017B000803F36D0BB68B3F5803F40D8BB68B3F5F7
:1017C000805F27D0BB68B3F5805F38D8BB68B3F5BE
:1017D000807F18D0BB68B3F5807F30D8BB68012B01
:1017E00003D0BB68102B07D029E07968F86800F0B7
:1017F0002DF80346FB7523E07968F86800F0ACF833
:101800000346FB751CE07968F86800F02FF9034681
:10181000FB7515E07968F86800F0B2F90346FB75CE
:101820000EE07968F86800F035FA0346FB7507E0CA
:101830007968F86800F098FA0346FB7500E000BF8D
:10184000FB7D18461837BD4680BD000080B586B0C8
:1018500000AF786039607B681B6A23F001027B6807
:101860001A627B681B6A7B617B685B683B617B6893
:101870009B69FB60FB6823F00303FB60FB6823F4B8
:10188000803323F070033A6812681343FB607B696E
:1018900023F002023B681B6913437B617B6923F0E1
:1018A00001023B685B6813437B617B68244A934277
:1018B00013D07B68234A93420FD07B68224A93421D
:1018C0000BD07B68214A934207D07B68204A934221
:1018D00003D07B681F4A93421ED17B6923F0080224
:1018E0003B685B699B0013437B617B6923F00402C7
:1018F0003B689B689B0013437B613B6923F48072C8
:101900003B689B6913433B613B6923F400723B686E
:10191000DB695B0013433B617B683A695A607B6813
:10192000FA689A613B68DB6819467868FFF723FE1E
:101930007B687A691A62002318461837BD4680BD55
:10194000002C0140003401400040014000440140AF
:10195000004801400050014080B586B000AF78607B
:1019600039607B681B6A23F010027B681A627B680F
:101970001B6A7B617B685B683B617B689B69FB6082
:10198000FB6823F44073FB60FB6823F0807323F44F
:10199000E0433A68126812021343FB607B6923F04C
:1019A00020023B681B691B0113437B617B6923F0A9
:1019B00010023B685B681B0113437B617B68254A0F
:1019C000934213D07B68244A93420FD07B68234A0A
:1019D00093420BD07B68224A934207D07B68214A0E
:1019E000934203D07B68204A93421FD17B6923F046
:1019F00080023B685B699B0113437B617B6923F039
:101A000040023B689B689B0113437B613B6923F465
:101A100080623B689B699B0013433B613B6923F4F5
:101A200000623B68DB69DB0013433B617B683A691A
:101A30005A607B68FA689A613B68DB681946786887
:101A4000FFF7A7FD7B687A691A62002318461837EA
:101A5000BD4680BD002C01400034014000400140E3
:101A600000440140004801400050014080B586B06C
:101A700000AF786039607B681B6A23F480727B68F2
:101A80001A627B681B6A7B617B685B683B617B6871
:101A9000DB69FB60FB6823F00303FB60FB6823F456
:101AA000803323F070033A6812681343FB607B694C
:101AB00023F400723B681B691B0213437B617B6943
:101AC00023F480723B685B681B0213437B617B6875
:101AD000254A934213D07B68244A93420FD07B68F7
:101AE000234A93420BD07B68224A934207D07B68FB
:101AF000214A934203D07B68204A93421FD17B69DD
:101B000023F400623B685B699B0213437B617B6942
:101B100023F480623B689B689B0213437B613B69B3
:101B200023F480523B689B691B0113433B613B6973
:101B300023F400523B68DB695B0113433B617B6824
:101B40003A695A607B68FA68DA613B68DB68194673
:101B50007868FFF72CFD7B687A691A6200231846C3
:101B60001837BD4680BD00BF002C01400034014045
:101B70000040014000440140004801400050014045
:101B800080B586B000AF786039607B681B6A23F44B
:101B900080527B681A627B681B6A7B617B685B682A
:101BA0003B617B68DB69FB60FB6823F44073FB608F
:101BB000FB6823F0807323F4E0433A681268120252
:101BC0001343FB607B6923F400523B681B691B03D2
:101BD00013437B617B6923F480523B685B681B0382
:101BE00013437B617B68254A934213D07B68244A68
:101BF00093420FD07B68234A93420BD07B68224AE2
:101C0000934207D07B68214A934203D07B68204AE5
:101C100093421FD17B6923F400423B685B699B03BD
:101C200013437B617B6923F480423B689B689B0381
:101C300013437B613B6923F480423B689B699B01B2
:101C400013433B613B6923F400423B68DB69DB01E2
:101C500013433B617B683A695A607B68FA68DA61D2
:101C60003B68DB6819467868FFF7AFFC7B687A69E8
:101C70001A62002318461837BD4680BD002C01406B
:101C80000034014000400140004401400048014050
:101C90000050014080B584B000AF786039607B6847
:101CA0001B6A23F480327B681A627B681B6AFB60C4
:101CB0007B681B6DBB60BB6823F4803323F070032B
:101CC0003A6812681343BB60FB6823F400323B6838
:101CD0001B691B041343FB60FB6823F480323B68E1
:101CE0005B681B041343FB607B68194A934213D063
:101CF0007B68184A93420FD07B68174A93420BD0F7
:101D00007B68164A934207D07B68154A934203D0FA
:101D10007B68144A934209D17B685B6823F4803264
:101D20003B689B691B021A437B685A607B68BA68F0
:101D30001A653B68DB6819467868FFF754FC7B68D6
:101D4000FA681A62002318461037BD4680BD00BFEE
:101D5000002C01400034014000400140004401409B
:101D6000004801400050014080B584B000AF786069
:101D700039607B681B6A23F480127B681A627B6877
:101D80001B6AFB607B681B6DBB60BB6823F08073C4
:101D900023F4E0433A68126812021343BB60FB6805
:101DA00023F400123B681B691B051343FB60FB68AF
:101DB00023F480123B685B681B051343FB607B6860
:101DC000184A934213D07B68174A93420FD07B681E
:101DD000164A93420BD07B68154A934207D07B6822
:101DE000144A934203D07B68134A934209D17B681B
:101DF0005B6823F480223B689B699B021A437B68E3
:101E00005A607B68BA681A653B68DB68194678686F
:101E1000FFF7FCFB7B68FA681A620023184610374C
:101E2000BD4680BD002C014000340140004001400F
:101E300000440140004801400050014080B483B09C
:101E400000AF78607B681B6803F00103012B01D1B0
:101E5000012300E0002318460C37BD465DF8047BE3
:101E6000704780B483B000AF786039607B68DB6A0C
:101E700023F00F033A6892B21A437B68DA6200BF1C
:101E80000C37BD465DF8047B704780B483B000AF6B
:101E9000786039607B685B6823F440523B681A4382
:101EA0007B685A6000BF0C37BD465DF8047B704705
:101EB00080B483B000AF786039607B689B6823F49E
:101EC00040723B681A437B689A6000BF0C37BD467E
:101ED0005DF8047B7047000080B487B000AFF86005
:101EE000B9607A603B607B680B2B3CD83B6A002B67
:101EF00039D03B68B3F5004F22D17B68DBB21A467C
:101F00001C4B53F82230BA68B2FBF3F35A003B6A19
:101F10005B081A443B6AB2FBF3F39BB27B617A69BC
:101F20004FF6F07313403B617B695B089BB203F093
:101F300007033A6913433B61FB683A69DA6012E0D0
:101F40007B68DBB21A460B4B53F82230BA68B2FBFF
:101F5000F3F23B6A5B081A443B6AB2FBF3F39BB2B1
:101F60001A46FB68DA6000BF1C37BD465DF8047B8B
:101F7000704700BF5CB6000880B586B002AF7860DD
:101F800039600123FB730023BB607868FFF756FFBD
:101F90000346002B65D17B681A68344B13403A68BE
:101FA00091683A68126911433A68526911433A6874
:101FB000D2690A431A437B681A603B68DB6819469A
:101FC0007868FFF762FF3B689B6919467868FFF7FE
:101FD0006FFF7B68264A934204D10320FEF746FF39
:101FE000B86023E07B68234A934204D10C20FEF7BB
:101FF0003DFFB8601AE07B681F4A934204D130204D
:10200000FEF734FFB86011E07B681C4A934204D1AC
:10201000C020FEF7EFFFB86008E07B68184A9342E3
:1020200004D14FF44070FEF7E5FFB860BB68002BA9
:1020300011D03B685B68002B0DD00023FB733B681D
:102040001A683B68D9693B685B6800930B46B968BE
:102050007868FFF741FF3B681B6819467868FFF70F
:1020600000FFFB7B18461037BD4680BDF369FFEFCC
:10207000003801400044004000480040004C00404F
:102080000050004080B485B000AF78607B6803F0FA
:102090000703FB600C4BDB68BB60BA684FF6FF03BD
:1020A0001340BB60FB681A02BB68134343F0BF6375
:1020B00043F40033BB60044ABB68D36000BF1437ED
:1020C000BD465DF8047B704700ED00E080B400AFD2
:1020D000044BDB681B0A03F007031846BD465DF896
:1020E000047B704700ED00E080B483B000AF03468E
:1020F0003960FB7197F90730002B0ADB3B68DAB2D5
:102100000C4997F907301201D2B20B4483F800232F
:102110000AE03B68DAB20849FB7903F00F03043B9D
:102120001201D2B20B441A7600BF0C37BD465DF8DF
:10213000047B704700E100E000ED00E080B489B06E
:1021400000AFF860B9607A60FB6803F00703FB61D9
:10215000FB69C3F10703042B28BF0423BB61FB69A0
:102160000433062B02D9FB69033B00E000237B61AB
:102170004FF0FF32BB6902FA03F3DA43BB681A403F
:102180007B699A404FF0FF317B6901FA03F3D94331
:102190007B680B40134318462437BD465DF8047B2B
:1021A0007047000080B400AF054B1B68044A43F43D
:1021B0008073136000BFBD465DF8047B704700BFAD
:1021C0000010024080B400AF074B1B6803F480632B
:1021D000B3F5806F01D1012300E000231846BD460E
:1021E0005DF8047B704700BF0010024080B483B0EC
:1021F00000AF7860074B5B6823F0FE427B681B06EC
:10220000044913434B6000BF0C37BD465DF8047BA7
:10221000704700BF0010024080B483B000AF786008
:10222000064B9B6823F0030204497B6813438B60D1
:1022300000BF0C37BD465DF8047B704700100240BC
:1022400080B400AF044B9B6803F00C031846BD46F6
:102250005DF8047B704700BF0010024080B483B07B
:1022600000AF7860064B9B6823F0F00204497B685E
:1022700013438B6000BF0C37BD465DF8047B70478D
:102280000010024080B483B000AF7860064B9B68BA
:1022900023F4E06204497B6813438B6000BF0C3772
:1022A000BD465DF8047B70470010024080B483B0E7
:1022B00000AF7860064B9B6823F4605204497B684A
:1022C00013438B6000BF0C37BD465DF8047B70473D
:1022D0000010024080B400AF054B1B68044A43F075
:1022E0008073136000BFBD465DF8047B704700BF7C
:1022F0000010024080B400AF074B1B6803F000736E
:10230000B3F1007F01D1012300E000231846BD4650
:102310005DF8047B704700BF0010024080B485B0B8
:1023200000AFF860B9607A603B600A4BDA680A4B2C
:102330001340F968BA6811437A68120211433A6887
:102340000A4304491343CB6000BF1437BD465DF810
:10235000047B7047001002400C80FFF980B400AF8E
:10236000054BDB68044A43F08073D36000BFBD4671
:102370005DF8047B704700BF0010024080B485B058
:1023800000AF7860084B9A6D07497B6813438B65F3
:10239000054B9A6D7B681340FB60FB6800BF1437E8
:1023A000BD465DF8047B70470010024080B485B0E4
:1023B00000AF7860084B1A6E07497B6813430B66C1
:1023C000054B1A6E7B681340FB60FB6800BF143737
:1023D000BD465DF8047B70470010024080B483B0B6
:1023E00000AF7860064B1B6823F00F0204497B683E
:1023F00013430B6000BF0C37BD465DF8047B70478C
:102400000020024080B400AF044B1B6803F00F03B0
:102410001846BD465DF8047B704700BF00200240AF
:1024200080B400AF064BD3F88030054A23F48073A4
:10243000C2F8803000BFBD465DF8047B704700BF26
:102440000070004080B400AF054B9B68044A43F421
:102450008043936000BFBD465DF8047B704700BFBA
:102460000070004080B500AF0120FFF79FFF4FF0E4
:102470008050FFF783FF0320FFF704FEFFF726FEDF
:102480000346002203211846FFF758FE034619466B
:102490004FF0FF30FFF728FEFFF7D4FF00F01EF8E3
:1024A00000F096F800F0F0FB00F0A2FD00F0D2FF83
:1024B00001F098F801F038FC01F0A6FA07F088FC6A
:1024C00006F010F804F046FF034807F0FDFE02F0A6
:1024D00073FF00BFFDE700BF9CB4000880B582B069
:1024E00000AF0420FFF77AFF00BFFFF78BFF034622
:1024F000042BFAD1FFF794FFFFF754FE00BFFFF75C
:1025000061FE0346012BFAD14020FFF76FFE002346
:10251000552230210220FFF701FFFFF71FFFFFF7D1
:10252000D9FE00BFFFF7E6FE0346012BFAD10320D8
:10253000FFF772FE8020FFF791FE00BFFFF780FEDD
:1025400003460C2BFAD155237B6002E07B68013BEC
:102550007B607B68002BF9D10020FFF77FFE002015
:10256000FFF790FE0020FFF7A1FE0548FEF7C4F834
:102570000348FEF7F7F800BF0837BD4680BD00BF2F
:1025800080FE210A80B485B000AF7860084BDA6C19
:1025900007497B681343CB64054BDA6C7B681340B7
:1025A000FB60FB6800BF1437BD465DF8047B7047D5
:1025B0000010024080B483B000AF786039607B685F
:1025C0003A689A6200BF0C37BD465DF8047B7047DD
:1025D00080B586B000AF3B4600221A605A609A6010
:1025E000DA601A615A610420FFF7CCFF2020FFF760
:1025F000C9FF0120FFF7C6FF0220FFF7C3FF082035
:10260000FFF7C0FF4FF48041BB48FFF7D3FF4FF403
:102610000041B948FFF7CEFF4FF40071B748FFF70C
:10262000C9FF4FF48061B548FFF7C4FF0221B348EA
:10263000FFF7C0FF0121B048FFF7BCFF0221AE4801
:10264000FFF7B8FF0421AC48FFF7B4FF4FF4007167
:10265000A948FFF7AFFF4FF48061A748FFF7AAFF33
:102660004FF40061A448FFF7A5FF4FF48051A24842
:10267000FFF7A0FF0121A248FFF79CFF0221A0481D
:10268000FFF798FF04219E48FFF794FF08219C481C
:10269000FFF790FF80219A48FFF78CFF4FF48043AB
:1026A0003B6001237B600023BB600023FB600223AF
:1026B0003B613B4619469048FEF7AFF94FF40043A3
:1026C0003B6001237B600023BB600023FB6002238F
:1026D0003B613B4619468848FEF79FF94FF400736B
:1026E0003B6001237B600023BB600023FB6002236F
:1026F0003B613B4619468148FEF78FF94FF48063F2
:102700003B6001237B600023BB600023FB6002234E
:102710003B613B4619467948FEF77FF902233B604F
:1027200001237B600023BB600023FB6002233B612D
:102730003B4619467148FEF770F901233B600123BF
:102740007B600023BB600023FB6002233B613B46B0
:1027500019466948FEF761F902233B6001237B605B
:102760000023BB600023FB6002233B613B4619460C
:102770006148FEF752F904233B6001237B6000238C
:10278000BB600023FB6002233B613B4619465A486D
:10279000FEF743F94FF400433B6000237B600123C5
:1027A0003B613B4619465648FEF737F940233B60EC
:1027B00000237B6001233B613B4619464E48FEF7F0
:1027C0002CF980233B6000237B6001233B613B4667
:1027D00019464948FEF721F94FF480733B60002306
:1027E0007B6001233B613B4619464348FEF715F9E0
:1027F0004FF400733B6001237B600223BB60002326
:10280000FB6002233B613B4619463B48FEF705F956
:102810004FF480633B6001237B600223BB60002395
:10282000FB6002233B613B4619463348FEF7F5F84F
:102830004FF400633B6001237B600223BB600023F5
:10284000FB6002233B613B4619462B48FEF7E5F847
:102850004FF480533B6001237B600223BB60002365
:10286000FB6002233B613B4619462348FEF7D5F83F
:1028700001233B6001237B600223BB600023FB60DC
:1028800002233B613B4619461D48FEF7C6F802236A
:102890003B6001237B600223BB600023FB600223BB
:1028A0003B613B4619461648FEF7B7F804233B60E8
:1028B00001237B600223BB600023FB6002233B619A
:1028C0003B4619460E48FEF7A8F808233B60012353
:1028D0007B600223BB600023FB6002233B613B461D
:1028E00019460748FEF799F880233B6001237B6077
:1028F0000023BB60002305E00008004800140048E6
:10290000000C0048FB6000233B613B46194603482E
:10291000FEF783F800BF1837BD4680BD000C0048A5
:1029200080B400AF044BDB681B0A03F007031846B2
:10293000BD465DF8047B704700ED00E080B483B0D5
:1029400000AF0346FB7197F90730002B0BDBFB79D7
:1029500003F01F02074997F907305B09012000FACD
:1029600002F241F8232000BF0C37BD465DF8047B1E
:10297000704700BF00E100E080B483B000AF0346C1
:102980003960FB7197F90730002B0ADB3B68DAB23C
:102990000C4997F907301201D2B20B4483F8002397
:1029A0000AE03B68DAB20849FB7903F00F03043B05
:1029B0001201D2B20B441A7600BF0C37BD465DF847
:1029C000047B704700E100E000ED00E080B489B0D6
:1029D00000AFF860B9607A60FB6803F00703FB6141
:1029E000FB69C3F10703042B28BF0423BB61FB6908
:1029F0000433062B02D9FB69033B00E000237B6113
:102A00004FF0FF32BB6902FA03F3DA43BB681A40A6
:102A10007B699A404FF0FF317B6901FA03F3D94398
:102A20007B680B40134318462437BD465DF8047B92
:102A3000704780B483B000AF786039607B68D3F8AA
:102A4000C03023F47F5323F03F033A681A437B6876
:102A5000C3F8C0207B681B6923F480333A68002ADE
:102A600002D04FF4803200E000221A437B681A61E2
:102A700000BF0C37BD465DF8047B704780B483B05F
:102A800000AF786039607B68DB6823F440623B68A4
:102A90001A437B68DA6000BF0C37BD465DF8047BE3
:102AA000704780B487B000AFF860B9607A60FB68A7
:102AB00030331A46BB681B0A9B0003F00C03134417
:102AC0007B617B691A68BB6803F01F031F2101FA51
:102AD00003F3DB431A407B689B0E03F01F01BB68C6
:102AE00003F01F0301FA03F31A437B691A6000BF66
:102AF0001C37BD465DF8047B704780B487B000AFDB
:102B0000F860B9607A60FB6814331A46BB685B0EE4
:102B10009B0003F0040313447B617B691A68BB6864
:102B20001B0D03F01F03072101FA03F3DB431A40D7
:102B3000BB681B0D03F01F03796801FA03F31A4306
:102B40007B691A6000BF1C37BD465DF8047B704787
:102B500080B485B000AFF860B9607A60FB68D3F8E4
:102B6000B020BB68C3F31203DB431A407B6803F059
:102B700018030849D940BB680B40C3F312031A433A
:102B8000FB68C3F8B02000BF1437BD465DF8047B76
:102B9000704700BFFFFF070080B483B000AF7860CC
:102BA00039607B681B6923F4806323F003033A6870
:102BB0001A437B681A6100BF0C37BD465DF8047B81
:102BC000704780B483B000AF78607B689B6823F067
:102BD000204323F03F037A68936000BF0C37BD4663
:102BE0005DF8047B704780B483B000AF78607B6889
:102BF0009B6823F0104323F03F0343F080527B682F
:102C00009A6000BF0C37BD465DF8047B704700003A
:102C100080B483B000AF78600E4BD3F888207B6817
:102C20001B0C03F01F03032101FA03F3DB431A40DB
:102C30007B68D9B27B681B0C03F01F0301FA03F316
:102C400004491343C1F8883000BF0C37BD465DF816
:102C5000047B70470010024080B485B000AF7860FC
:102C6000084BDA6C07497B681343CB64054BDA6C7D
:102C70007B681340FB60FB6800BF1437BD465DF8FE
:102C8000047B70470010024080B594B000AF07F19C
:102C9000400300221A605A609A6007F1280300225C
:102CA0001A605A609A60DA601A615A6107F1180373
:102CB00000221A605A609A60DA603B4600221A606D
:102CC0005A609A60DA601A615A61BA48FFF7A0FF49
:102CD0004FF40050FFF7C0FF0420FFF7BDFF0120B5
:102CE000FFF7BAFF0220FFF7B7FF08233B6003237B
:102CF0007B6000233B613B461946AF48FDF78DFEE4
:102D000001233B6003237B6000233B613B46194664
:102D10004FF09040FDF781FE02233B6003237B6070
:102D200000233B613B4619464FF09040FDF775FE8E
:102D300004233B6003237B6000233B613B46194631
:102D40004FF09040FDF769FE08233B6003237B6052
:102D500000233B613B4619464FF09040FDF75DFE76
:102D600002233B6003237B6000233B613B46194603
:102D70009248FDF752FE4FF480533B6003237B6083
:102D800000233B613B4619468C48FDF746FE4FF455
:102D900080433B6003237B6000233B613B46194635
:102DA0008648FDF73AFEFFF7BBFD034600220021EF
:102DB0001846FFF70BFE034619461220FFF7DCFD0D
:102DC0001220FFF7BBFD00233B6400237B6400233C
:102DD000BB6407F1400319464FF0A040FDF716FF12
:102DE0004FF4AC63BB620723FB624FF480333B6359
:102DF00000237B630023BB634FF48053FB6307F125
:102E0000280319464FF0A040FDF726FF00214FF0A0
:102E1000A040FFF70EFE00214FF0A040FFF7BCFEE0
:102E20004FF44033BB610023FB6107F118031946DF
:102E30006348FDF787FE4FF480614FF0A040FFF735
:102E40001DFE4FF0A040FFF7BCFE4FF0A040FFF783
:102E5000CAFE5C4B1B689B095B4AA2FB03239A09D1
:102E600013469B0013449B001A46584BA3FB0223B6
:102E7000DB08FB6402E0FB6C013BFB64FB6C002B9A
:102E8000F9D1534A06214FF0A040FFF70AFE012274
:102E90004F494FF0A040FFF730FE7F224C494FF0E2
:102EA000A040FFF755FE4B4A0C214FF0A040FFF722
:102EB000F8FD012247494FF0A040FFF71EFE7F2298
:102EC00044494FF0A040FFF743FE434A12214FF020
:102ED000A040FFF7E6FD01223F494FF0A040FFF779
:102EE0000CFE7F223C494FF0A040FFF731FE3B4AE9
:102EF00018214FF0A040FFF7D4FD012237494FF0D1
:102F0000A040FFF7FAFD7F2234494FF0A040FFF7C1
:102F10001FFE334A4FF480714FF0A040FFF7C1FD10
:102F200001222F494FF0A040FFF7E7FD7F222C49F7
:102F30004FF0A040FFF70CFE2A4A4FF483714FF088
:102F4000A040FFF7AEFD012226494FF0A040FFF759
:102F5000D4FD7F2223494FF0A040FFF7F9FD224A1C
:102F60004FF486714FF0A040FFF79BFD01221E49F0
:102F70004FF0A040FFF7C1FD7F221B494FF0A0405A
:102F8000FFF7E6FD194A4FF489714FF0A040FFF7B3
:102F900088FD012215494FF0A040FFF7AEFD7F22CA
:102FA00012494FF0A040FFF7D3FD00BF5037BD4698
:102FB00080BD00BF02001C0000080048000400485B
:102FC0000003005000000020632D3E05CDCCCCCC8A
:102FD00002003004040060080800900C1000C010CB
:102FE0002000F0140002B0250008302E00106032DE
:102FF00080B590B000AF07F1300300221A605A602C
:103000009A6007F1180300221A605A609A60DA6029
:103010001A615A613B4600221A605A609A60DA606F
:103020001A615A61A448FFF7F3FD4FF40050FFF70F
:1030300013FE0120FFF710FE0420FFF70DFE022013
:10304000FFF70AFE20233B6003237B6000233B61E4
:103050003B4619464FF09040FDF7DFFC40233B60B4
:1030600003237B6000233B613B4619464FF09040B1
:10307000FDF7D3FC80233B6003237B6000233B618F
:103080003B4619464FF09040FDF7C7FC10233B60CC
:1030900003237B6000233B613B4619468748FDF7CD
:1030A000BCFC20233B6003237B6000233B613B4649
:1030B00019468248FDF7B1FC04233B6003237B6083
:1030C00000233B613B4619467D48FDF7A6FC4FF4C3
:1030D00000633B6003237B6000233B613B46194652
:1030E0007748FDF79AFC4FF400433B6003237B6075
:1030F00000233B613B4619467148FDF78EFCFFF704
:103100000FFC0346002200211846FFF75FFC034630
:1031100019461220FFF730FC1220FFF70FFC0023A6
:103120003B6300237B630023BB6307F13003194635
:103130006448FDF76BFD4FF4AC63BB610723FB6193
:103140004FF480333B6200237B620023BB624FF469
:103150008053FB6207F1180319465A48FDF77CFDBE
:1031600000215848FFF765FC00215648FFF714FD81
:103170004FF480615348FFF781FC5248FFF721FD6F
:103180005048FFF730FD504B1B689B094F4AA2FB8C
:1031900003239A0913469B0013449B001A464C4B89
:1031A000A3FB0223DB08FB6302E0FB6B013BFB6339
:1031B000FB6B002BF9D1474A06214248FFF771FC0F
:1031C000012244493F48FFF798FC7F2241493D488E
:1031D000FFF7BEFC404A0C213A48FFF762FC01228F
:1031E0003D493848FFF789FC7F223B493548FFF7C6
:1031F000AFFC3A4A12213348FFF753FC012237490A
:103200003048FFF77AFC7F2234492E48FFF7A0FCB4
:10321000334A18212B48FFF744FC0422304929483F
:10322000FFF76BFC7F222E492648FFF791FC2D4AC1
:103230004FF480712348FFF734FC012229492148CB
:10324000FFF75BFC7F2227491E48FFF781FC264AD7
:103250004FF483711B48FFF724FC012222491948CF
:10326000FFF74BFC7F2220491648FFF771FC1F4AED
:103270004FF486711348FFF714FC01221B491148D3
:10328000FFF73BFC7F2219490E48FFF761FC184A03
:103290004FF489710B48FFF704FC012214490948D7
:1032A000FFF72BFC7F2212490648FFF751FC00BFB5
:1032B0004037BD4680BD00BF02001C00000800482A
:1032C000000400480001005000000020632D3E056E
:1032D000CDCCCCCC0800900C1000C0102000F01415
:1032E0000008302E00106032002090360040C03AB6
:1032F0000080F03E80B483B000AF78607B681B68CC
:1033000023F400327B681A6000BF0C37BD465DF8BD
:10331000047B704780B483B000AF78607B681B6823
:1033200023F400227B681A6000BF0C37BD465DF8AD
:10333000047B704780B485B000AFF860B9607A60F4
:10334000FB68DB6823F4FF6323F00603B9687A683F
:103350000A431A43FB68DA6000BF1437BD465DF8C4
:10336000047B704780B483B000AF78607B68DB6813
:1033700023F400427B68DA6000BF0C37BD465DF87D
:10338000047B704780B483B000AF78607B685B6873
:1033900043F000727B685A6000BF0C37BD465DF891
:1033A000047B704780B485B000AF78607B681A0EEC
:1033B0000F4B1344FB60FB681A687B681B0C03F01F
:1033C0001F03032101FA03F3DB431A407B68D9B2E0
:1033D0007B681B0C03F01F0301FA03F31A43FB681D
:1033E0001A6000BF1437BD465DF8047B704700BF0C
:1033F0008810024080B485B000AF7860084BDA6C6A
:1034000007497B681343CB64054BDA6C7B68134038
:10341000FB60FB6800BF1437BD465DF8047B704756
:103420000010024080B485B000AF7860084B9A6D00
:1034300007497B6813438B65054B9A6D7B68134086
:10344000FB60FB6800BF1437BD465DF8047B704726
:103450000010024080B58EB000AF07F11C030022BF
:103460001A605A609A60DA601A615A619A613B1D6B
:1034700000221A605A609A60DA601A615A614FF449
:103480006020FFF78FFF0120FFF7B4FF4FF4807338
:103490007B600223BB600023FB6001233B610023B0
:1034A0007B610423BB613B1D19464FF09040FDF743
:1034B000B4FA4FF400737B600223BB600023FB600F
:1034C00001233B6100237B610423BB613B1D194643
:1034D0004FF09040FDF7A1FA4FF48000FFF7A2FFF4
:1034E0000023FB61134B3B6200237B620023BB6222
:1034F0000023FB6200233B6300237B6307F11C0373
:1035000019460D48FDF73DFF0B48FFF73BFF002232
:1035100000210948FFF70EFF0748FFF723FF064881
:10352000FFF7F8FE0448FFF7E5FE00BF3837BD4659
:1035300080BD00BFC285B2400058004080B485B055
:1035400000AF7860084BDA6C07497B681343CB64A3
:10355000054BDA6C7B681340FB60FB6800BF1437D7
:10356000BD465DF8047B70470010024080B485B012
:1035700000AF7860084B1A6E07497B6813430B66EF
:10358000054B1A6E7B681340FB60FB6800BF143765
:10359000BD465DF8047B70470010024080B483B0E4
:1035A00000AF786039607B685B6823F010023B688D
:1035B0001A437B685A6000BF0C37BD465DF8047B38
:1035C000704780B483B000AF78607B685B6843F07D
:1035D00008027B685A6000BF0C37BD465DF8047B6B
:1035E0007047000080B590B000AF07F118032822A3
:1035F0000021184606F0B8FF3B4600221A605A60C8
:103600009A60DA601A615A614FF48050FFF7AEFF9A
:103610000220FFF793FF08233B6002237B60002317
:10362000BB600023FB6000233B6105237B613B46BD
:1036300019462648FDF7F1F910233B6002237B6011
:103640000023BB600023FB6000233B6105237B61FB
:103650003B4619461D48FDF7E0F920233B60022355
:103660007B600023BB600023FB6000233B610523DC
:103670007B613B4619461548FDF7CFF90023BB6136
:103680004FF48273FB614FF4E0633B6200237B6283
:103690000023BB624FF40073FB6220233B630023D3
:1036A0007B630023BB630723FB6307F11803194601
:1036B0000748FDF7D8FE00210548FFF76FFF0448D3
:1036C000FFF77FFF00BF4037BD4680BD00040048C4
:1036D0000030014080B400AF044BDB681B0A03F0EC
:1036E00007031846BD465DF8047B704700ED00E017
:1036F00080B483B000AF0346FB7197F90730002B0D
:103700000BDBFB7903F01F02074997F907305B09D0
:10371000012000FA02F241F8232000BF0C37BD4619
:103720005DF8047B704700BF00E100E080B483B027
:1037300000AF03463960FB7197F90730002B0ADBB5
:103740003B68DAB20C4997F907301201D2B20B4448
:1037500083F800230AE03B68DAB20849FB7903F0FA
:103760000F03043B1201D2B20B441A7600BF0C3790
:10377000BD465DF8047B704700E100E000ED00E02D
:1037800080B489B000AFF860B9607A60FB6803F07C
:103790000703FB61FB69C3F10703042B28BF042364
:1037A000BB61FB690433062B02D9FB69033B00E0D4
:1037B00000237B614FF0FF32BB6902FA03F3DA4367
:1037C000BB681A407B699A404FF0FF317B6901FA70
:1037D00003F3D9437B680B40134318462437BD4697
:1037E0005DF8047B7047000080B485B000AF78605E
:1037F000084B9A6D07497B6813438B65054B9A6D9F
:103800007B681340FB60FB6800BF1437BD465DF862
:10381000047B70470010024080B483B000AF786032
:103820007B681B6823F080027B681A6000BF0C373E
:10383000BD465DF8047B704780B485B000AF78600A
:1038400039603B68012B2ED03B68042B29D03B68A4
:10385000102B24D03B68402B1FD03B68B3F5807FF2
:1038600019D03B68B3F5806F13D03B68B3F5805F28
:103870000DD03B68B3F5804F07D03B68B3F5803F70
:1038800001D1082310E009230EE007230CE00623F2
:103890000AE0052308E0042306E0032304E00223F2
:1038A00002E0012300E00023FB737B681833194614
:1038B000FB7B0B4AD35C0B44BB60BB681A68FB7B89
:1038C0000849CB5C194604238B40DB431A40BB6894
:1038D0001A6000BF1437BD465DF8047B704700BF17
:1038E0009CB60008A8B6000880B485B000AF786028
:1038F00039603B68012B2ED03B68042B29D03B68F4
:10390000102B24D03B68402B1FD03B68B3F5807F41
:1039100019D03B68B3F5806F13D03B68B3F5805F77
:103920000DD03B68B3F5804F07D03B68B3F5803FBF
:1039300001D1082310E009230EE007230CE0062341
:103940000AE0052308E0042306E0032304E0022341
:1039500002E0012300E00023FB737B681833194663
:10396000FB7B0A4AD35C0B44BB60BB681A68FB7BD9
:103970000749CB5C194608238B401A43BB681A6081
:1039800000BF1437BD465DF8047B70479CB6000845
:10399000A8B6000880B483B000AF786039607B6857
:1039A0009B6823F4A03323F007033A681A437B682B
:1039B0009A6000BF0C37BD465DF8047B704780B449
:1039C00083B000AF786039607B685B6823F0007378
:1039D00023F070033A681A437B685A6000BF0C37C3
:1039E000BD465DF8047B704780B483B000AF78605B
:1039F0007B689B6823F080027B689A6000BF0C376D
:103A0000BD465DF8047B704780B58EB000AF07F10E
:103A1000240300221A605A609A60DA601A613B1D22
:103A200020220021184606F09FFD0120FFF7DCFE52
:103A3000FFF750FE0346002201211846FFF7A0FEC3
:103A4000034619461C20FFF771FE1C20FFF750FEAD
:103A50005423BB840023BB623123FB6200233B63FE
:103A600007F1240319464FF08040FDF7EDFD4FF0BC
:103A70008040FFF7D1FE00214FF08040FFF78AFF22
:103A800010214FF08040FFF72FFF70237B60002351
:103A9000BB600023FB6019233B6100237B613B1D5E
:103AA0001A4610214FF08040FDF770FE10214FF0B4
:103AB0008040FFF7C1FE50214FF08040FFF77FFFAD
:103AC0004FF08040FFF790FF00BF3837BD4680BD04
:103AD00080B483B000AF7860094BD3F888207B684E
:103AE0001B0CDB431A407B689BB205491343C1F8AA
:103AF000883000BF0C37BD465DF8047B704700BFBF
:103B00000010024080B485B000AF7860084BDA6CDA
:103B100007497B681343CB64054BDA6C7B68134021
:103B2000FB60FB6800BF1437BD465DF8047B70473F
:103B30000010024080B485B000AF7860084B1A6E68
:103B400007497B6813430B66054B1A6E7B6813406D
:103B5000FB60FB6800BF1437BD465DF8047B70470F
:103B60000010024080B483B000AF78607B681B68AF
:103B700043F001027B681A6000BF0C37BD465DF858
:103B8000047B704780B483B000AF78607B681B68AB
:103B900023F000527B681A6000BF0C37BD465DF809
:103BA000047B704780B489B000AF786039607B686F
:103BB0000833FB60FB6853E8003FBB60BB6823F041
:103BC00060423B685B071343FB617B680833FA691B
:103BD000BA617B617969BA6941E800233B613B695D
:103BE000002BE4D100BF00BF2437BD465DF8047B45
:103BF000704780B489B000AF786039607B68083363
:103C0000FB60FB6853E8003FBB60BB6823F0606269
:103C10003B685B061343FB617B680833FA69BA6152
:103C20007B617969BA6941E800233B613B69002BFC
:103C3000E4D100BF00BF2437BD465DF8047B704768
:103C400080B483B000AF786039607B685B6823F430
:103C500000423B681A437B685A6000BF0C37BD4680
:103C60005DF8047B704780B483B000AF78607B68F8
:103C70005B6823F490427B685A607B689B6823F002
:103C80002A027B689A6000BF0C37BD465DF8047B52
:103C9000704780B483B000AF78607B68DB6903F065
:103CA0008003802B01D1012300E0002318460C374C
:103CB000BD465DF8047B704780B483B000AF786088
:103CC0007B68DB6903F40013B3F5001F01D1012306
:103CD00000E0002318460C37BD465DF8047B7047B2
:103CE00080B483B000AF78607B68DB6903F4800345
:103CF000B3F5800F01D1012300E0002318460C37F3
:103D0000BD465DF8047B704780B483B000AF786037
:103D10000B46FB70FA787B689A6200BF0C37BD4691
:103D20005DF8047B7047000080B58EB000AF07F1EE
:103D3000180320220021184606F016FC3B460022FC
:103D40001A605A609A60DA601A615A614FF4403022
:103D5000FFF7BEFE4FF48040FFF7ECFE0220FFF7B6
:103D6000D1FE40233B6002237B600023BB60002325
:103D7000FB6000233B6107237B613B4619462948D2
:103D8000FCF74BFE80233B6002237B600023BB607B
:103D90000023FB6000233B6107237B613B46194600
:103DA0002048FCF73AFE0023BB614FF4E133FB618E
:103DB00000233B6200237B620023BB620C23FB6277
:103DC00000233B6300237B6307F118031946164861
:103DD000FEF7D2F800211448FFF7E4FE0021124854
:103DE000FFF707FF1048FFF7CDFE4FF400410E48E4
:103DF000FFF726FF0C48FFF736FF0B48FFF7B2FE30
:103E000000BF0948FFF758FF0346002BF9D00648CA
:103E1000FFF766FF0346002BF3D000BF00BF383723
:103E2000BD4680BD000400480038014080B582B026
:103E300000AF78607B680A2B0AD100BF0D48FFF7FE
:103E400028FF0346002BF9D00D210A48FFF75CFF3D
:103E500000BF0848FFF71DFF0346002BF9D07B6821
:103E6000DBB219460348FFF74FFF7B681846083757
:103E7000BD4680BD0038014080B483B000AF78609B
:103E80007B689B6903F00803082B01D1012300E044
:103E9000002318460C37BD465DF8047B704780B49C
:103EA00083B000AF78607B689B6903F01003102B30
:103EB00001D1012300E0002318460C37BD465DF810
:103EC000047B704780B483B000AF78607B689B69E7
:103ED00003F02003202B01D1012300E0002318462A
:103EE0000C37BD465DF8047B704780B483B000AFEB
:103EF00078607B689B6903F48073B3F5807F01D1A0
:103F0000012300E0002318460C37BD465DF8047B12
:103F1000704780B483B000AF78607B689B6903F41E
:103F20000073B3F5007F01D1012300E000231846A0
:103F30000C37BD465DF8047B704780B483B000AF9A
:103F400078607B689B6903F48063B3F5806F01D16F
:103F5000012300E0002318460C37BD465DF8047BC2
:103F6000704780B483B000AF78607B68DB6943F052
:103F700008027B68DA6100BF0C37BD465DF8047B40
:103F8000704780B483B000AF78607B68DB6943F032
:103F900010027B68DA6100BF0C37BD465DF8047B18
:103FA000704780B483B000AF78607B68DB6943F012
:103FB00020027B68DA6100BF0C37BD465DF8047BE8
:103FC000704780B483B000AF78607B68DB6943F4EE
:103FD00080727B68DA6100BF0C37BD465DF8047BF8
:103FE000704780B483B000AF78607B68DB6943F4CE
:103FF00000727B68DA6100BF0C37BD465DF8047B58
:10400000704780B483B000AF78607B68DB6943F4AD
:1040100080627B68DA6100BF0C37BD465DF8047BC7
:10402000704780B400AF00BFFDE780B400AF00BFB1
:10403000FDE780B400AF00BFFDE780B400AF00BF74
:10404000FDE780B400AF00BFFDE780B400AF00BF64
:10405000BD465DF8047B704780B400AF00BFBD462D
:104060005DF8047B704780B400AF00BFBD465DF8CB
:10407000047B704780B400AF00BFBD465DF8047B91
:10408000704780B500AF04F00BFA00BF80BD80B56B
:1040900000AF04F00BFA00BF80BD000080B500AF98
:1040A0000E48FFF7E9FE0346002B02D00B48FFF74E
:1040B00058FF0A48FFF7F3FE0346002B02D00748DB
:1040C000FFF75FFF0548FFF7FDFE0346002B02D018
:1040D0000248FFF766FF00BF80BD00BF00580040E8
:1040E00080B500AF0E48FFF700FF0346002B02D05B
:1040F0000B48FFF766FF0A48FFF70BFF0346002B4C
:1041000002D00748FFF76DFF0548FFF716FF03468B
:10411000002B02D00248FFF774FF00BF80BD00BF34
:104120000058004080B586B000AF7860144A154B47
:10413000D31A7B617B693B61134B1B68002B02D157
:10414000114B124A1A60104B1A687B6813443A6983
:104150009A4207D206F07CFA03460C221A604FF00E
:10416000FF3309E0084B1B68FB60074B1A687B684C
:104170001344054A1360FB6818461837BD4680BDD6
:10418000000002200004000044010020303B002019
:1041900080B586B000AFF860B9607A6000237B61BB
:1041A0000AE0AFF300800146BB685A1CBA60CAB28D
:1041B0001A707B6901337B617A697B689A42F0DB14
:1041C0007B6818461837BD4680BD80B586B000AF05
:1041D000F860B9607A6000237B6109E0BB685A1C13
:1041E000BA601B781846FFF721FE7B6901337B61BB
:1041F0007A697B689A42F1DB7B6818461837BD46BE
:1042000080BD80B483B000AF78604FF0FF331846B4
:104210000C37BD465DF8047B704780B483B000AFB7
:10422000786039603B684FF400525A6000231846AA
:104230000C37BD465DF8047B704780B483B000AF97
:104240007860012318460C37BD465DF8047B704743
:1042500080B485B000AFF860B9607A60002318467A
:104260001437BD465DF8047B704700000D48854655
:10427000FCF716FA0C480D490D4A002302E0D45809
:10428000C4500433C4188C42F9D30A4A0A4C0023A0
:1042900001E013600432A242FBD306F0DFF9FEF71F
:1042A000E1F8FEE7000002200000002024010020C9
:1042B000A0B70008240100202C3B0020FEE70000EE
:1042C00080B500AF044A0021002001F09AFE0348A7
:1042D00000F006F800BF80BDACB40008B8030020B1
:1042E00080B582B000AF78606420FCF713FA02F06A
:1042F0004DFD00F0D5FC00F097F803F02BF8414A93
:104300000021002001F07DFE3F4A138843F4005352
:1043100013803E4B1B681A467B68DA617B681B681A
:1043200007EE903AF8EEE77A7B6893ED0B7A7B68BC
:10433000D3ED096A7B6893ED0A6A7B68DB691846EE
:10434000F0EE461AB0EE661AF0EE470AB0EE670AD3
:1043500001F0A6FC2C4A138843F0010313802A4A7B
:10436000138843F00203138004F0F0FC04F01CFEF9
:10437000254B1B88C3F34003DBB2002B28D0244B12
:1043800093ED0D7A234BD3ED0D7A77EE277AB6EEC7
:10439000007A67EE877A204BC3ED007A1F4BC3ED9E
:1043A000007A1B4B93ED0F7A1A4BD3ED0F7A77EE11
:1043B000277AB6EE007A67EE877A194BC3ED007A5A
:1043C0001549164804F072FE1449134804F06EFEB5
:1043D000144B1B68002BC7D005F06CFC0346002B68
:1043E0000BD103F0EFF80346002B06D1786800F0FC
:1043F000ADFD0C4B00221A60B6E700BF0837BD4682
:1044000080BD00BFB8B400082039002074390020F6
:10441000683800200C380020F0370020D437002006
:1044200058390020A439002080B582B000AF0023A5
:104430007B6000237B600CE07B68342202FB03F38B
:10444000094A13447968184600F09AF87B680133EA
:104450007B607A68054B1B689A42EDD900BF00BFAC
:104460000837BD4680BD00BFB8030020A03900203A
:1044700080B584B000AF78607B68FB603C4B1B88E4
:104480009BB201339AB23A4B1A80394B1B889BB2CC
:104490001A46342302FB03F3FA6813445B6903F002
:1044A0000903002B05D0334A138843F4806313803B
:1044B00004E0304A138823F4006313802C4B1B88DC
:1044C0009BB21A46342302FB03F3FA6813441B68B9
:1044D00007EE903AF8EEE77A254B1B889BB21A4616
:1044E000342302FB03F3FA68134493ED0B7A204B59
:1044F0001B889BB21A46342302FB03F3FA68134469
:10450000D3ED096A1A4B1B889BB21A46342302FB6F
:1045100003F3FA68134493ED0A6A154B1B889BB2A8
:104520001A46342302FB03F3FA681344DB69184686
:10453000F0EE461AB0EE661AF0EE470AB0EE670AE1
:1045400001F0AEFB00F042FD0B4B4FF000029A630E
:10455000094B9B6B094A9363074B4FF000025A6467
:10456000054B5B6C054A536400BF1037BD4680BDE8
:10457000D439002020390020683800200C38002071
:1045800080B582B000AF786039607B685B6903F00A
:104590000103002B05D17B685B6903F00803002B46
:1045A00004D03968786800F00BF804E0396878685E
:1045B00000F042F900BF00BF0837BD4680BD0000D3
:1045C00080B584B000AF786039604FF00003FB60C5
:1045D0004FF00003BB603B68002B03DD7B68343B7E
:1045E0009B6A01E04FF000037A6813627B685B69A5
:1045F00003F00803002B0ED17B6803F134023B6803
:10460000013319461046FFF7BBFF7B6834331A6A43
:104610007B689A6216E0834B1B6807EE903AF8EECF
:10462000677A7B68C3ED0A7A7E4B1B6807EE903A87
:10463000F8EE677A7B68C3ED0A7A7B6834337A6870
:10464000926A1A627B681B68B3F5FA6F17DD764BC6
:104650001A687B68DA617B685B6903F00803002BEA
:104660001BD07B68DB6940F6B832934202DC6E4BAC
:104670001B6801E040F6B8337A68D3610DE07B68CF
:104680001B68B3F57A7F04DD684B1A687B68DA61D2
:1046900003E0674B1A687B68DA613B68002B0AD13C
:1046A0007B68DB6941F27C52934204DD7B6841F216
:1046B0008832DA6109E07B685B6903F00803002B4C
:1046C00003D07B6840F6B832DA617B6893ED087AF4
:1046D0007B68D3ED0A7AB4EEE77AF1EE10FA02DDE8
:1046E0007B681B6A01E07B689B6AFB607B6893EDDB
:1046F000087A7B68D3ED0A7AB4EEE77AF1EE10FA25
:1047000002DD7B689B6A01E07B681B6ABB607B689B
:10471000D3ED087A7B6893ED0A7A7B68DA697B6867
:10472000303319461046F0EE470AB0EE670A00F043
:1047300067FA7B6893ED0C7A7B681B6807EE903A0A
:10474000F8EEE77AB4EEE77AF1EE10FA3ADB7B683E
:104750001B6807EE903AF8EEE77A7B68C3ED0B7AB8
:104760007B681B6807EE903AF8EEE77A97ED027ADD
:104770007B68DA697B68243319461046B0EE471A25
:10478000DFED2C0AB0EE670A00F0BCF97B6893ED10
:10479000087A7B68D3ED0A7AB4EEE77AF1EE10FA84
:1047A00004DD7B685A6A7B681A6203E07B685A6A98
:1047B0007B689A623B68002B2FD17B684FF0000228
:1047C0001A622AE07B681B6807EE903AF8EEE77AF7
:1047D0007B6893ED0C7AD7ED036A7B68DA697B68B6
:1047E000243319461046B0EE661AF0EE470AB0EED2
:1047F000670A00F087F97B68D3ED097A7B6893ED4F
:104800000A7A7B68DA697B682C3319461046F0EE29
:10481000470AB0EE670A00F0F3F900BF1037BD4653
:1048200080BD00BF80390020C0390020C43900207D
:10483000C83900200000000080B483B000AF786069
:1048400039607B6840F6B832DA617A4B1B6807EE54
:10485000903AF8EE677A7B68C3ED087A7B681A6A4B
:104860007B689A627B689A6A7B685A627B6840F6CA
:10487000B832DA617B685B6903F01003002B1ED04D
:104880006C4B1B686C4A1268934206D96A4B1B68D2
:1048900007EE903AF8EE677A05E0664B1B6807EE84
:1048A000903AF8EE677A7B68C3ED087A7B681A6AFB
:1048B0007B689A627B689A6A7B685A6297E07B6839
:1048C0005B6903F02003002B1ED05A4B1B685B4A28
:1048D0001268934206D9594B1B6807EE903AF8EEDE
:1048E000677A05E0534B1B6807EE903AF8EE677A5B
:1048F0007B68C3ED087A7B681A6A7B689A627B687A
:104900009A6A7B685A6272E07B685B6903F04003D5
:10491000002B1ED0474B1B68494A1268934206D9A8
:10492000474B1B6807EE903AF8EE677A05E0414B7B
:104930001B6807EE903AF8EE677A7B68C3ED087A59
:104940007B681A6A7B689A627B689A6A7B685A629B
:104950004DE07B685B6903F08003002B1ED0354B74
:104960001B68384A1268934206D9364B1B6807EE1B
:10497000903AF8EE677A05E02E4B1B6807EE903A06
:10498000F8EE677A7B68C3ED087A7B681A6A7B6801
:104990009A627B689A6A7B685A6228E07B685B69E6
:1049A00003F48073002B11D0274B1B6807EE903A5D
:1049B000F8EEE77A7B68C3ED087A7B681A6A7B6851
:1049C0009A627B689A6A7B685A6210E0194B1B688E
:1049D00007EE903AF8EE677A7B68C3ED087A7B6859
:1049E0001A6A7B689A627B689A6A7B685A627B68FB
:1049F0005B693F2B2EDD7B6834335B693F2B29DD00
:104A00007B6840F6B832DA617B68D3ED087A9FEDB7
:104A1000107AF4EEC77AF1EE10FA02DB7B680B4AEB
:104A20001A627B681A6A7B689A627B689A6A7B68FA
:104A30005A6231E078390020AC390020B0390020CA
:104A4000B4390020B8390020BC3900200080094565
:104A5000008009457B68343B5B693F2B1CDD7B682C
:104A60005B693F2B18DD7B6840F6B832DA617B6802
:104A7000D3ED087A1FED0A7AF4EEC77AF1EE10FA58
:104A800002DB7B681D4A1A627B681A6A7B689A623D
:104A90007B689A6A7B685A627B68343B5B6903F087
:104AA0000103002B23D07B685B691F2B1FDD7B6814
:104AB00034335B6903F00103002B18D07B6840F6A8
:104AC000B832DA617B68D3ED087A9FED0D7AF4EEA7
:104AD000C77AF1EE10FA02DB7B68084A1A627B683B
:104AE0001A6A7B689A627B689A6A7B685A6200BF1E
:104AF0000C37BD465DF8047B704700BF0080094558
:104B00000080094580B588B000AF87ED050AC7ED84
:104B1000040A87ED031AB860796097ED057AD7ED3E
:104B2000047A77EE677AC7ED057A97ED057ADFEDBF
:104B30002F6AC7EE267AC7ED057A97ED037ADFED87
:104B40002C6AC7EE267AC7ED037ABB6807EE903A67
:104B5000B8EEE77ADFED266AC7EE267AC7ED077A68
:104B6000D7ED037A27EEA77AD7ED077A77EEA76A13
:104B7000D7ED057A66EEA77A77EE277AB0EE670A68
:104B800005F048FAF0EE407A9FED197A67EE877AE1
:104B90007B68C3ED007A7B68D3ED007A9FED157AD0
:104BA000F4EEC77AF1EE10FA03DD7B68124A1A6060
:104BB00017E07B6893ED007A104B1B6807EE903A84
:104BC000F8EE677AB4EEE77AF1EE10FA00D408E076
:104BD0000A4B1B6807EE903AF8EE677A7B68C3EDE4
:104BE000007A00BF2037BD4680BD00BF0000FA44F8
:104BF00000007A4400A08C4500A08C457839002044
:104C000080B487B000AF87ED030AC7ED020A786071
:104C1000396097ED037ADFED216AC7EE267AC7ED9A
:104C2000037A97ED027ADFED1D6AC7EE267AC7EDAB
:104C3000027A7B6807EE903AB8EEE77ADFED176A02
:104C4000C7EE267AC7ED057AD7ED057AF5EE407AFC
:104C5000F1EE10FA02D14FF07E537B61D7ED037A6B
:104C600027EEA77AD7ED027A67EEA77A77EE677A12
:104C7000F0EEE76AD7ED057A37EEA77AC6EE877AC7
:104C80009FED067A67EE877A3B68C3ED007A00BF36
:104C90001C37BD465DF8047B704700BF00007A44B6
:104CA00080B582B000AF00237B6000237B600CE006
:104CB0007B68342202FB03F3094A134479681846DF
:104CC00000F012F87B6801337B607A68054B1B6843
:104CD0009A42EDD900BF00BF0837BD4680BD00BF76
:104CE000B8030020A039002080B487B000AF7860FE
:104CF000396000233B6100237B613B68002B02D1BC
:104D00007B6801225A607B685B6803F00103002B1B
:104D10003ED07B685B6803F00803002B38D17B68CA
:104D200001225A617B6800229A613B68002B00F0E7
:104D300005817B681B68B3F5C87F1EDD7B681B6837
:104D40007A68343A926907EE902AB8EEE77A7E4A9A
:104D5000D2ED007A67EE277AFDEEE77A17EE902A19
:104D60009B1A7B617B69002B0EDC7B681B687B6177
:104D70007B68343B00229A6106E07B681B687B619C
:104D80007B68343B00229A617B687A691A60D5E0BF
:104D90007B685B6803F00103002B40F0CA807B68EE
:104DA0005B6803F00803002B40F0C3807B681B683E
:104DB000F02B13DC7B685B6843F010027B685A6160
:104DC0007B6834335B6803F00103002B02D04FF49F
:104DD000967200E000227B689A61AFE07B681B68F6
:104DE000B3F5E17F13DC7B685B6843F020027B68EE
:104DF0005A617B6834335B6803F00103002B02D0F7
:104E000040F2262200E000227B689A6196E07B68EF
:104E10001B68B3F5347F13DC7B685B6843F04002AA
:104E20007B685A617B6834335B6803F00103002BB5
:104E300002D040F2EE2200E000227B689A617DE021
:104E40007B681B6840F24C42934267DD7B68DA68FE
:104E50007B689B689342B8BF1346FB607B689A6887
:104E60007B68DB689342A8BF13463B613B69002B1C
:104E700040D0FA683B6992FBF3F3012B3ADC7B6884
:104E80005B6843F480727B685A617B6800229A6198
:104E90003B68002B4CD07B681B68B3F5C87F1EDDD8
:104EA0007B681B687A68343A926907EE902AB8EEFC
:104EB000E77A254AD2ED007A67EE277AFDEEE77AA7
:104EC00017EE902A9B1A7B617B69002B0EDC7B68B6
:104ED0001B687B617B68343B00229A6106E07B683B
:104EE0001B687B617B68343B00229A617B687A692E
:104EF0001A601DE07B685B6843F080027B685A6142
:104F00007B6834335B6803F00103002B02D04FF45D
:104F1000487200E000227B689A610FE07B685B6862
:104F200043F080027B685A617B6800229A6105E049
:104F300004E07B685A687B685A6100BF00BF1C3779
:104F4000BD465DF8047B70476439002080B485B0AD
:104F500000AF78607B68FB60194B1B88C3F380232C
:104F6000DBB2002B26D0174B1B680133154A1360A8
:104F7000154B1B889BB21A46342302FB03F3343BC8
:104F8000FA6813449A690F4B1B689A4204DB0E4B74
:104F90001B889BB2002B0ED1094A138843F400737F
:104FA0001380074A138823F480631380054B002283
:104FB0001A6000E000BF1437BD465DF8047B7047FF
:104FC00020390020CC390020D439002080B400AF33
:104FD000184B1B88C3F38013DBB2002B24D1154B75
:104FE0001B88C3F30003DBB2002B1DD0114B1B88C1
:104FF000C3F34023DBB2002B17D00E4A138843F4CF
:10500000006313800C4B1B889BB219460B4A342358
:1050100001FB03F3134424331B68094AD360084B94
:10502000DB68084AD36000E000BFBD465DF8047B42
:10503000704700BF20390020D4390020B803002079
:105040000C3800206838002080B5B8B000AF684B3D
:105050001B6903F08003002B11D18720FBF75AFB5B
:10506000644B1B680133634A1360634B00221A6070
:10507000604B1B68022B02DD5E4B00221A605F4B07
:105080001B6903F40043002B13D18720FBF742FB7D
:10509000594B1B680133584A1360564B1B68584ADA
:1050A000D35C1A46544B1B689A4202DC524B0022D6
:1050B0001A604F4B1B6903F04003002B12D187206D
:1050C000FBF728FB4C4B1B68013B4B4A13604A4BD8
:1050D0001B68002B06DA474B1B68494AD35C013B2F
:1050E000454A1360424B1B6903F48073002B10D1B7
:1050F0008720FBF70FFB3F4B1A683F4B196841486D
:1051000013469B0013440B4450F82330984700F09B
:1051100047FF00F0DBFF3C4BC7F8DC30354B1B682A
:10512000002B03D1394BC7F8DC300EE0314B1B6844
:10513000012B03D1364BC7F8DC3006E02D4B1B6842
:10514000022B02D1334BC7F8DC3007F18000D7F8CF
:10515000DC30314A202105F0BFF807F18003184602
:10516000FBF742FA0346C3F11503DA0F13445B1051
:10517000C7F8D830D7F8D830002B02DA0023C7F8A8
:10518000D830D7F8D830142B02DD1423C7F8D83024
:10519000D7F8D82007F1A0032021184605F0E4F93C
:1051A00007F1A002D7F8D830134400221A70D7F8BC
:1051B000D83007F1A002D018D7F8D830C3F12801B1
:1051C00007F18003154A05F087F80A4B1B680C4A63
:1051D000D35C87F8CB30002387F8D73036E0064B16
:1051E0001B68DBB297F8D7209A4219D12A2218E01F
:1051F00000080048480100204C010020000C004835
:10520000B4B600088C000020C4B40008C8B400087C
:10521000D0B40008D8B40008E0B40008ECB400082A
:105220006F2297F8D7305B00E0333B4403F8942CAF
:1052300097F8D7305B000133E0333B44202203F87A
:10524000942C97F8D730013387F8D73097F8D720C8
:1052500097F8CB309A42C2D397F8CB305B00013B32
:10526000E0333B44002203F8942C07F14C0318462A
:10527000FBF7BAF90346C3F11503DA0F13445B10C9
:10528000C7F8D030D7F8D030002B02DA0023C7F8A7
:10529000D030D7F8D030142B02DD1423C7F8D0302B
:1052A000D7F8D02007F158032021184605F05CF903
:1052B00007F15802D7F8D030134400221A70D7F8FB
:1052C000D03007F15802D018D7F8D030C3F12801F8
:1052D00007F14C03334A04F0FFFF334B1968334B9B
:1052E0001B681A46D2001A440B465B000B44190196
:1052F000C91A53182E4A1344381D2E4A202104F08F
:10530000EBFF3B1D1846FBF76FF90346C3F115038E
:10531000DA0F13445B10C7F8CC30D7F8CC30002B31
:1053200002DA0023C7F8CC30D7F8CC30142B02DDDA
:105330001423C7F8CC30D7F8CC2007F12403202160
:10534000184605F011F907F12402D7F8CC301344C0
:1053500000221A70D7F8CC3007F12402D018D7F801
:10536000CC30C3F128013B1D0E4A04F0B5FF07F114
:10537000A0031A460021002000F02BFE07F158037D
:105380001A460021012000F024FE07F124031A46EA
:105390000021022000F01DFE00F014FE00BFE037E7
:1053A000BD4680BDECB40008480100204C0100203F
:1053B00004000020F0B4000880B500AF00F0E6FD66
:1053C00002F042FDFFF740FE0120FBF7A3F900BF0A
:1053D000F8E7000080B500AF33E0224B1B68224A9B
:1053E0000021002000F00DFE204B1B6903F4004358
:1053F000002B09D18720FBF78DF91A4B1B6803F5A9
:10540000FA73184A13601CE0194B1B6903F0400340
:10541000002B09D18720FBF77DF9124B1B68A3F500
:10542000FA73104A13600CE0114B1B6903F480738C
:10543000002B06D18720FBF76DF90A4B4FF4FA5287
:105440001A600B4B1B6903F08003002BC5D101F0E0
:1054500009FA084B02221A60074B02221A6000BFA9
:1054600080BD00BF7C390020F8B40008000C004863
:1054700000080048243900202839002080B500AFFA
:10548000344B00221A6023E0334B1B68334A00215F
:10549000002000F0B6FD324B1B6903F40043002BE3
:1054A00008D17D20FBF736F92B4B1B6864332A4A61
:1054B00013600DE02B4B1B6903F04003002B07D159
:1054C0007D20FBF727F9244B1B68643B224A1360BD
:1054D000244B1B6903F08003002BD5D19620FBF7EA
:1054E00019F923E0204B1B681C4A0021002000F022
:1054F00088FD1B4B1B6903F40043002B08D17D2062
:10550000FBF708F9184B1B686433174A13600DE06A
:10551000144B1B6903F04003002B07D17D20FBF7E0
:10552000F9F8114B1B68643B0F4A13600D4B1B6964
:1055300003F08003002BD5D101F02EF9054B022298
:105540001A600A4B00221A606420FBF7E3F800BFE0
:1055500080BD00BF243900207439002000B5000848
:10556000000C004800080048C039002028390020FD
:1055700080B500AF25E0204B1B88204A0021002089
:1055800000F03FFD1E4B1B6903F40043002B09D1C3
:105590007D20FBF7BFF8184B1B880A339AB2164BD5
:1055A0001A800EE0174B1B6903F04003002B08D153
:1055B0007D20FBF7AFF8104B1B880A3B9AB20E4BCD
:1055C0001A80104B1B6903F08003002BD3D101F02C
:1055D000F1FD0D4B03221A600C4B00221A600C499E
:1055E0004FF000024FF00003C1E900236420FBF7F5
:1055F00091F800BF80BD00BFDC39002008B500086D
:10560000000C0048000800482439002028390020F8
:105610004839002080B500AF2AE0224B1B88224A7F
:105620000021002000F0EDFC204B1B6903F4004337
:10563000002B09D17D20FBF76DF81A4B1B880A332C
:105640009AB2184B1A8013E0194B1B6903F0400300
:10565000002B0DD17D20FBF75DF8164B1B680A3B34
:10566000144A13600F4B1B880A3B9AB20D4B1A80E9
:105670000F4B1B6903F08003002BCED101F002FE1B
:105680000D4B04221A600D4B00221A600C494FF09A
:1056900000024FF00003C1E900236420FBF73AF851
:1056A00000BF80BDDE39002010B50008000C0048A6
:1056B000000800483439002024390020283900200F
:1056C0004839002080B500AF25E01A4B1B881A4AE4
:1056D0000021002000F095FC184B1B6903F40043E7
:1056E000002B09D17D20FBF715F8124B1B880133E5
:1056F0009AB2104B1A800EE0114B1B6903F0400365
:10570000002B08D17D20FBF705F80A4B1B88013BD5
:105710009AB2084B1A800A4B1B6903F08003002BD6
:10572000D3D1084B03221A60074B02221A6000BF34
:1057300080BD00BFDA39002018B50008000C004811
:1057400000080048243900202839002080B500AF27
:10575000224B00221A6023E0214B1B68214A0021C2
:10576000002000F04EFC204B1B6903F40043002B8B
:1057700008D17D20FAF7CEFF194B1B683233184A47
:1057800013600DE0194B1B6903F04003002B07D198
:105790007D20FAF7BFFF124B1B68323B104A1360A3
:1057A000124B1B6903F08003002BD5D10C4B1B68F7
:1057B00007EE903AB8EE677ADFED0D6AC7EE267A0B
:1057C0000C4BC3ED007A00F0B5FF044B01221A60C8
:1057D000094B00221A6000BF80BD00BF24390020A1
:1057E0007839002020B50008000C00480008004867
:1057F00000000043643900202839002080B500AF44
:10580000034800F009F8034800F006F800BF80BD27
:105810000C3800206838002080B582B000AF786076
:105820005C220021786804F09FFE214B1B6807EE84
:10583000903AF8EE677A7B68C3ED007A7B684FF0A8
:1058400000021A621B4B1B6807EE903AF8EE677A6B
:105850007B68C3ED037A7B684FF000025A607B6877
:105860004FF000029A607B684FF000021A617B687B
:105870004FF000025A617B684FF07E529A617B685C
:105880004FF00002DA617B684FF000025A627B68D9
:105890000022DA627B6800221A867B6800229A6204
:1058A0007B684FF00002DA6300BF0837BD4680BD59
:1058B000743900207839002080B584B000AF78605A
:1058C0007B6893ED047A7B68D3ED037AB4EEE77AD4
:1058D000F1EE10FA63D57B681A697B689A607B6881
:1058E000D3ED007A9FED677A67EE877A7B68C3ED28
:1058F000057A7B6893ED057A7B68D3ED026A7B6855
:10590000D3ED027A66EEA77A77EE277AB0EE670AD1
:1059100004F080FBF0EE407A7B68C3ED047A7B688C
:1059200093ED007AF7EE006AC6EE877A7B68C3EDE6
:10593000087A7B6893ED047A7B68D3ED027A37EEC0
:10594000677A7B68D3ED087A67EE277A7B68C3EDC8
:10595000097A7B68D3ED097A9FED4B7A27EE877A37
:105960007B68D3ED067A67EE277AFCEEE77A17EECE
:10597000902A7B68DA627B6800229A627B6893EDEA
:10598000037A7B68D3ED047AB4EEE77AF1EE10FA8D
:1059900000D973E07B68DA687B681A616EE07B6827
:1059A0001A697B689A607B68D3ED007A9FED357A3F
:1059B00067EE877A7B68C3ED057A7B6893ED027AA0
:1059C0007B68D3ED027A27EE277A7B68D3ED057AE0
:1059D00077EE677AC7ED037AD7ED037AF5EEC07AF2
:1059E000F1EE10FA06DD97ED030A04F013FBF0EE7A
:1059F000407A01E0DFED257A7B68C3ED047A7B68AD
:105A000093ED007AF7EE006AC6EE877A7B68C3ED05
:105A1000087A7B6893ED027A7B68D3ED047A37EEDF
:105A2000677A7B68D3ED087A67EE277A7B68C3EDE7
:105A3000097A7B68D3ED097A9FED137A27EE877A8E
:105A40007B68D3ED067A67EE277AFCEEE77A17EEED
:105A5000902A7B68DA627B6800229A627B6893ED09
:105A6000037A7B68D3ED047AB4EEE77AF1EE10FAAC
:105A700000DA03E07B68DA687B681A6100BF1037E0
:105A8000BD4680BDF7E9D23F00401C470000000042
:105A900080B582B000AF78607B68D3ED0D7A9FED62
:105AA000207A77EE877A7B68C3ED0D7A7B68D3ED39
:105AB0000F7A9FED1B7A77EE877A7B68C3ED0F7ABA
:105AC0007B68D3ED0E7A9FED167A77EE877A7B6846
:105AD000C3ED0E7A7B68D3ED117A9FED117A77EEE4
