:020000040800F2
:1000000000000220C59900083198000839980008BE
:100010004198000849980008519800080000000025
:1000200000000000000000000000000059980008D7
:100030006798000800000000759800088398000881
:10004000159A0008159A0008159A0008159A0008D4
:10005000159A0008159A0008159A0008159A0008C4
:10006000159A0008159A0008159A0008159A0008B4
:10007000159A0008159A0008159A0008159A0008A4
:1000800091980008A5980008B9980008159A0008EA
:10009000159A0008159A0008159A0008159A000884
:1000A000159A0008159A0008159A0008159A000874
:1000B000D5980008159A0008159A0008159A0008A6
:1000C000159A0008E9980008FD980008159A00089C
:1000D000159A0008159A0008159A0008159A000844
:1000E000159A0008159A0008159A0008159A000834
:1000F000159A0008159A0008159A0008159A000824
:10010000159A0008159A0008159A0008159A000813
:10011000159A0008159A0008159A0008159A000803
:10012000159A0008159A0008159A0008159A0008F3
:10013000159A0008159A0008159A0008159A0008E3
:10014000159A0008159A0008159A0008159A0008D3
:10015000159A0008159A0008159A0008159A0008C3
:10016000159A0008159A0008159A0008159A0008B3
:10017000159A0008159A0008159A0008159A0008A3
:10018000159A0008159A0008159A0008159A000893
:10019000159A000800000000159A0008159A00083A
:1001A000159A0008159A0008159A0008159A000873
:1001B000159A0008159A0008159A0008159A000863
:1001C000159A0008159A0008159A0008159A000853
:0801D000159A0008159A0008B9
:1001E00010B5054C237833B9044B13B10448AFF371
:1001F00000800123237010BD60010020000000007A
:10020000A8F9000808B5034B1BB103490348AFF335
:10021000008008BD0000000064010020A8F900086B
:1002200081F0004102E000BF83F0004330B54FEAA7
:1002300041044FEA430594EA050F08BF90EA020F14
:100240001FBF54EA000C55EA020C7FEA645C7FEAA7
:10025000655C00F0E2804FEA5454D4EB5555B8BFCA
:100260006D420CDD2C4480EA020281EA030382EA3B
:10027000000083EA010180EA020281EA0303362DCD
:1002800088BF30BD11F0004F4FEA01314FF4801CA0
:100290004CEA113102D0404261EB410113F0004FB2
:1002A0004FEA03334CEA133302D0524263EB430369
:1002B00094EA050F00F0A780A4F10104D5F1200E07
:1002C0000DDB02FA0EFC22FA05F2801841F1000162
:1002D00003FA0EF2801843FA05F359410EE0A5F136
:1002E00020050EF1200E012A03FA0EFC28BF4CF067
:1002F000020C43FA05F3C01851EBE37101F000451D
:1003000007D54FF0000EDCF1000C7EEB00006EEB29
:100310000101B1F5801F1BD3B1F5001F0CD34908B3
:100320005FEA30004FEA3C0C04F101044FEA44520A
:1003300012F5800F80F09A80BCF1004F08BF5FEA91
:10034000500C50F1000041EB045141EA050130BD71
:100350005FEA4C0C404141EB0101013C28BFB1F583
:10036000801FE9D291F0000F04BF01460020B1FACE
:1003700081F308BF2033A3F10B03B3F120020CDAA1
:100380000C3208DD02F1140CC2F10C0201FA0CF07F
:1003900021FA02F10CE002F11402D8BFC2F1200CE4
:1003A00001FA02F120FA0CFCDCBF41EA0C0190409A
:1003B000E41AA2BF01EB0451294330BD6FEA0404E3
:1003C0001F3C1CDA0C340EDC04F11404C4F12002CE
:1003D00020FA04F001FA02F340EA030021FA04F3E0
:1003E00045EA030130BDC4F10C04C4F1200220FA37
:1003F00002F001FA04F340EA0300294630BD21FA75
:1004000004F0294630BD94F0000F83F4801306BF3A
:1004100081F480110134013D4EE77FEA645C18BF2E
:100420007FEA655C29D094EA050F08BF90EA020FC5
:1004300005D054EA000C04BF1946104630BD91EABD
:10044000030F1EBF0021002030BD5FEA545C05D1C0
:100450004000494128BF41F0004130BD14F58004FF
:100460003CBF01F5801130BD01F0004545F0FE4173
:1004700041F470014FF0000030BD7FEA645C1ABFA8
:10048000194610467FEA655C1CBF0B46024650EADF
:10049000013406BF52EA033591EA030F41F400210B
:1004A00030BD00BF90F0000F04BF0021704730B591
:1004B0004FF4806404F132044FF000054FF0000166
:1004C00050E700BF90F0000F04BF0021704730B527
:1004D0004FF4806404F1320410F0004548BF4042FC
:1004E0004FF000013EE700BF42004FEAE2014FEA51
:1004F00031014FEA02701FBF12F07F4393F07F4F2C
:1005000081F06051704732F07F4208BF704793F02E
:100510007F4F04BF41F40021704730B54FF4607441
:1005200001F0004521F000411CE700BF50EA010244
:1005300008BF704730B54FF000050AE050EA0102ED
:1005400008BF704730B511F0004502D5404261EB5D
:1005500041014FF4806404F132045FEA915C3FF49E
:10056000D8AE4FF003025FEADC0C18BF03325FEA3B
:10057000DC0C18BF033202EBDC02C2F1200300FAEC
:1005800003FC20FA02F001FA03FE40EA0E0021FA11
:1005900002F11444BDE600BF4FEA410212F5001219
:1005A00015D211D56FF47873B3EB625212D94FEABA
:1005B000C12343F0004343EA505311F0004F23FAA4
:1005C00002F018BF404270474FF00000704750EAF9
:1005D000013005D111F0004008BF6FF000407047B6
:1005E0004FF00000704700BF53B94AB9002908BF57
:1005F00000281CBF4FF0FF314FF0FF3000F088B9EA
:10060000ADF1080C6DE904CE00F006F8DDF804E069
:10061000DDE9022304B070472DE9F047089D0F463D
:1006200004468C46002B48D18A42164661D9B2FA5C
:1006300082F34BB1C3F1200201FA03FC20FA02F26B
:100640009E4042EA0C0C9C404FEA164EB7B2BCFBEF
:10065000FEF1220C0EFB11CC42EA0C4201FB07F02A
:10066000904209D9B21801F1FF3C80F0EE8090422F
:1006700040F2EB8002393244121AA4B2B2FBFEF00F
:100680000EFB102244EA024400FB07F7A74209D9F7
:10069000341900F1FF3280F0DA80A74240F2D780AF
:1006A0003444023840EA0140E41B00211DB1DC4023
:1006B0000023C5E90043BDE8F0878B4206D90DB1A0
:1006C000C5E9000100210846BDE8F087B3FA83F1CF
:1006D000002948D1BB4202D3824200F20781841A2A
:1006E00067EB030201209446002DE4D0C5E9004CDD
:1006F000E1E7002A00F09280B2FA82F3002B40F08A
:10070000A8808A1A4FEA164E1FFA86FC0121200C97
:10071000B2FBFEF70EFB172240EA02420CFB07F089
:10072000904207D9B21807F1FF3802D2904200F286
:10073000E2804746121AA4B2B2FBFEF00EFB102272
:1007400044EA02440CFB00FCA44507D9341900F12B
:10075000FF3202D2A44500F2CB801046A4EB0C0479
:1007600040EA0740A2E7C1F120068B4022FA06FCCE
:100770004CEA030C07FA01F420FA06F3F7404FEABB
:100780001C49234300FA01F81FFA8CFEB7FBF9F06D
:100790001C0C09FB107744EA074400FB0EF7A74244
:1007A00002FA01F20AD91CEB040400F1FF3A80F0CE
:1007B0009B80A74240F2988002386444E41B9FB2B9
:1007C000B4FBF9F309FB134447EA044403FB0EFEB0
:1007D000A64509D91CEB040403F1FF3780F08280A1
:1007E000A6457FD9023B644443EA0040A4EB0E04D3
:1007F000A0FB02E7BC427346B94663D360D05DB14B
:10080000B8EB030264EB090404FA06F622FA01F3DA
:100810001E43CC40C5E9006400214CE7620848084B
:1008200042EAC1710B0C43EA00438AB242EA034236
:10083000B3FBF6F1E407B4463746B6461F23B0FBD8
:10084000F6F0D21B41EA004161E7614614E7104629
:1008500028E7C3F1200120FA01F29E4027FA01F1B6
:100860009F403A434FEA164E1FFA86FCB1FBFEF753
:100870000EFB1710110C41EA004107FB0CF88845EC
:1008800004FA03F43AD9711807F1FF3001D2884510
:100890001FD8A1EB0801B1FBFEF808FB0CF70EFB1B
:1008A000181192B242EA0142BA422FD2B21808F1AC
:1008B000FF31C6D2BA42C4D2A8F102013244C0E725
:1008C000F0459CD2BEEB020367EB0C070138B9463A
:1008D00095E7A6EB08084144B81EB1FBFEF808FBFB
:1008E0000CF7DCE73B467FE7504667E70846FBE648
:1008F0003444023832E7023F32441BE7A1EB0801DF
:100900003846B1FBFEF808FB0CF7C8E7414698E70C
:10091000704700BF034613F8012B002AFBD1181AB9
:1009200001387047000000000000000000000000D7
:1009300001F0FF01102A2BDB10F0070F08D010F890
:10094000013B013A8B422DD010F0070F42B3F6D194
:10095000F0B441EA012141EA014122F007047FF0AD
:1009600000070023F0E80256083C85EA010586EA04
:10097000010685FA47F5A3FA87F586FA47F6A5FA40
:1009800087F68EB9EED1F0BC01F0FF0102F007024C
:1009900032B110F8013B013A83EA010313B1F8D1F7
:1009A0000020704701387047002D06BF35460338D8
:1009B000073815F0010F07D1013015F4807F02BF11
:1009C000013015F4C03F0130F0BC0138704700BF62
:1009D00080B400AF064BD3F88830054A43F4700367
:1009E000C2F8883000BFBD465DF8047B704700BF89
:1009F00000ED00E080B483B000AF786039607B68C0
:100A00009B6823F47C123B681A437B689A6000BFA2
:100A10000C37BD465DF8047B704780B483B000AFEF
:100A2000786039607B689B6823F0E0723B681A430A
:100A30007B689A6000BF0C37BD465DF8047B704749
:100A400080B483B000AF78607B689B6803F0E0738C
:100A500018460C37BD465DF8047B704780B487B0FC
:100A600000AFF860B9607A603B60FB6860331A469B
:100A7000BB689B0013447B617B691A68084B134079
:100A80007A6802F0F8413A680A43134343F000429F
:100A90007B691A6000BF1C37BD465DF8047B704758
:100AA00000F0FF0380B485B000AF786039607B68E8
:100AB00060331A463B689B001344FB60FB681B686D
:100AC00003F0F84318461437BD465DF8047B7047C1
:100AD00080B487B000AFF860B9607A60FB686033BB
:100AE0001A46BB689B0013447B617B691B6823F03B
:100AF00000427B681A437B691A6000BF1C37BD4601
:100B00005DF8047B704780B487B000AFF860B960CF
:100B10007A60FB6860331A46BB689B0013447B61B4
:100B20007B691B6823F080727B681A437B691A60BB
:100B300000BF1C37BD465DF8047B704780B487B0AA
:100B400000AFF860B9607A60FB6860331A46BB6832
:100B50009B0013447B617B691B6823F000727B68F8
:100B60001A437B691A6000BF1C37BD465DF8047BE1
:100B7000704780B483B000AF786039607B685B6990
:100B800023F000423B681A437B685A6100BF0C3770
:100B9000BD465DF8047B704780B483B000AF7860D9
:100BA0007B68DB6803F44063002B01D1012300E084
:100BB000002318460C37BD465DF8047B704780B4AF
:100BC00087B000AFF860B9607A60FB6830331A46CE
:100BD000BB681B0A9B0003F00C0313447B617B6919
:100BE0001A68BB6803F01F031F2101FA03F3DB43FC
:100BF0001A407B689B0E03F01F01BB6803F01F03C4
:100C000001FA03F31A437B691A6000BF1C37BD4623
:100C10005DF8047B704780B483B000AF78607B6878
:100C2000DB6C03F4C073002B01D1012300E000232F
:100C300018460C37BD465DF8047B704780B487B01A
:100C400000AFF860B9607A60FB6814331A46BB687D
:100C50005B0E9B0003F0040313447B617B691A68FD
:100C6000BB681B0D03F01F03072101FA03F3DB43ED
:100C70001A40BB681B0D03F01F03796801FA03F3E8
:100C80001A437B691A6000BF1C37BD465DF8047BC0
:100C90007047000080B485B000AFF860B9607A603A
:100CA000FB68D3F8B020BB68C3F31203DB431A40E0
:100CB0007B6803F018030849D940BB680B40C3F3B5
:100CC00012031A43FB68C3F8B02000BF1437BD46B7
:100CD0005DF8047B704700BFFFFF070080B483B05E
:100CE00000AF78607B689B6803F01F0318460C37E1
:100CF000BD465DF8047B704780B483B000AF786078
:100D00007B689B6803F4604318460C37BD465DF86A
:100D1000047B704780B483B000AF78607B689B68C9
:100D200023F0204323F03F037A68936000BF0C3721
:100D3000BD465DF8047B704780B483B000AF786037
:100D40007B689B6803F00053B3F1005F01D101237E
:100D500000E0002318460C37BD465DF8047B704761
:100D600080B483B000AF78607B689B6823F0104349
:100D700023F03F0343F080527B689A6000BF0C373A
:100D8000BD465DF8047B704780B483B000AF7860E7
:100D90007B689B6803F08053B3F1805F01D101232E
:100DA00000E0002318460C37BD465DF8047B704711
:100DB00080B483B000AF78607B689B6823F0004309
:100DC00023F03F0343F001027B689A6000BF0C37B9
:100DD000BD465DF8047B704780B483B000AF786097
:100DE0007B689B6823F0004323F03F0343F002023B
:100DF0007B689A6000BF0C37BD465DF8047B704786
:100E000080B483B000AF78607B689B6803F0010317
:100E1000012B01D1012300E0002318460C37BD4609
:100E20005DF8047B704780B483B000AF78607B6866
:100E30009B6803F00203022B01D1012300E0002391
:100E400018460C37BD465DF8047B704780B483B00C
:100E500000AF78607B689B6823F0004323F03F037A
:100E600043F004027B689A6000BF0C37BD465DF812
:100E7000047B704780B483B000AF78607B689B6868
:100E800023F0004323F03F0343F010027B689A6095
:100E900000BF0C37BD465DF8047B704780B483B05B
:100EA00000AF78607B689B6803F00403042B01D1DA
:100EB000012300E0002318460C37BD465DF8047B93
:100EC000704780B483B000AF78607B689B6823F084
:100ED000004323F03F0343F020027B689A6000BF89
:100EE0000C37BD465DF8047B704780B483B000AF1B
:100EF00078607B689B6803F00803082B01D101230D
:100F000000E0002318460C37BD465DF8047B7047AF
:100F100090B589B000AF78600023FB770023FB60B9
:100F20007B68002B01D10123A9E17B685B69002B61
:100F30007B68DB6D002B09D1786808F06DF87B6861
:100F400000221A667B68002283F858207B681B68A1
:100F50001846FFF7F1FE0346002B04D07B681B68A0
:100F60001846FFF7D7FE7B681B681846FFF70CFF93
:100F70000346002B15D17B681B681846FFF7F0FE6F
:100F80009C4B1B689B099C4AA2FB03239B090133D2
:100F90005B00FB6002E0FB68013BFB60FB68002B31
:100FA000F9D17B681B681846FFF7EEFE0346002B5D
:100FB0000DD17B68DB6D43F010027B68DA657B68DE
:100FC0001B6E43F001027B681A660123FB777B6886
:100FD0001B681846FFF762FF78617B68DB6D03F0E2
:100FE0001003002B40F042817B69002B40F03E81D2
:100FF0007B68DB6D23F4817343F002027B68DA6562
:101000007B681B681846FFF7FBFE0346002B41D1A7
:101010007B681B68B3F1A04F04D07B681B68774ADC
:1010200093420FD14FF0A040FFF7EAFE0446734809
:10103000FFF7E6FE03462343002B0CBF01230023EA
:10104000DBB212E06E48FFF7DBFE04466D48FFF7A7
:10105000D7FE03461C436C48FFF7D2FE03462343EA
:10106000002B0CBF01230023DBB2002B12D07B68C6
:101070001B68B3F1A04F04D07B681B685F4A9342A2
:1010800001D1624A00E0624A7B685B6819461046FB
:10109000FFF7B0FC7B685B7F5A037B68DB6B1A430E
:1010A0007B68DB681A437B689B681A437B6893F80C
:1010B00024301B041343BB617B6893F82430012B5D
:1010C00006D17B689B6A013B5B04BA691343BB6131
:1010D0007B68DB6A002B09D07B68DB6A03F47872DB
:1010E0007B681B6B1343BA691343BB617B681B6846
:1010F000DA68484B13407A681268B9690B43D360C9
:101100007B681B681B6923F040617B685A6B7B68B6
:101110001B680A431A617B681B681846FFF7E5FEE7
:1011200038617B69002B7FD13B69002B7CD17B68C8
:101130001B7F9A037B6893F838305B001343BB61D5
:101140007B681B68DB6823F4804323F002037A6822
:101150001268B9690B43D3607B681B69002B17D0F9
:101160007B681B681A697B681B6842F480321A61CD
:101170007B681B68D3F8C03023F47F5323F03F0310
:101180007A6811697A6812680B43C2F8C03013E0BC
:101190007B681B681A697B681B6822F480321A61BD
:1011A0007B681B68D3F8C0307A68126823F47F53D9
:1011B00023F03F03C2F8C0307B6893F84030012B26
:1011C0002AD17B681B681B6923F4FF6323F00403A7
:1011D0007A68516C7A68926C11437A68D26C1143C8
:1011E0007A68126D0A431A437B681B6842F0010259
:1011F0001A6119E000000020632D3E050001005037
:10120000000400500005005000060050000300508C
:10121000000700500740F0FF7B681B681A697B6875
:101220001B6822F001021A617B685B69012B0CD1FB
:101230007B681B681B6B23F00F017B681B6A5A1EBF
:101240007B681B680A431A6307E07B681B681A6B9C
:101250007B681B6822F00F021A637B68DB6D23F04A
:10126000030343F001027B68DA6507E07B68DB6D0E
:1012700043F010027B68DA650123FB77FB7F184699
:101280002437BD4690BD00BF80B586B000AF786002
:101290007B681B68B3F1A04F04D07B681B68674A6A
:1012A000934201D1664B00E0664B1846FFF716FDEE
:1012B00038617B681B681846FFF7F0FD0346002B7A
:1012C00040F0B4807B6893F85830012B01D10223A1
:1012D000AFE07B68012283F85820786801F0E6F9D6
:1012E0000346FB75FB7D002B40F09B807B68DB6D2C
:1012F00023F4706323F0010343F480727B68DA65A2
:101300007B681B684D4A934209D07B681B684E4A34
:10131000934202D07B681B6803E04C4B01E04FF026
:10132000A0437A681268934202D03B69002B05D132
:101330007B68DB6D23F480127B68DA657B68DB6D8C
:1013400003F48053B3F5805F06D17B681B6E23F0F6
:1013500006027B681A6602E07B6800221A667B68D8
:101360001B681C221A607B68002283F858207B6867
:101370001B68324A934209D07B681B68324A934209
:1013800002D07B681B6803E0304B01E04FF0A043C4
:101390007A681268934208D03B69002B05D03B69FC
:1013A000052B02D03B69092B14D17B681B68DB68D5
:1013B00003F00073002B07D07B68DB6D23F44053F0
:1013C00043F480527B68DA657B681B681846FFF738
:1013D0003DFD2DE07B68DB6D43F480127B68DA65B0
:1013E0007B681B68154A934209D07B681B68164AC4
:1013F000934202D07B681B6803E0144B01E04FF07E
:10140000A043FB60FB68DB6803F00073002B0FD088
:101410007B68DB6D23F4405343F480527B68DA65CC
:1014200006E07B68002283F8582001E00223FB7568
:10143000FB7D18461837BD4680BD00BF0001005037
:101440000003005000070050000500500004005049
:1014500080B584B000AF78607B6893F85830012B7A
:1014600001D1022323E07B68012283F85820032165
:10147000786801F05FF80346FB73FB7B002B11D10A
:10148000786801F0A9F90346FB73FB7B002B09D1B7
:101490007B68DB6D23F4885323F0010343F00102E2
:1014A0007B68DA657B68002283F85820FB7B18464E
:1014B0001037BD4680BD000080B586B000AF7860B3
:1014C0007B681B68B3F1A04F04D07B681B68924A0D
:1014D000934201D1914B00E0914B1846FFF7FEFB80
:1014E00038617B681B681846FFF7D8FC0346002B61
:1014F00040F032817B6893F85830012B01D10223F0
:101500002DE17B68012283F85820786801F0CEF83D
:101510000346FB75FB7D002B40F019817B68DB6D7A
:1015200023F4706323F0010343F480727B68DA656F
:101530007B681B68784A934209D07B681B68794AAC
:10154000934202D07B681B6803E0774B01E04FF0C9
:10155000A0437A681268934202D03B69002B05D100
:101560007B68DB6D23F480127B68DA657B68DB6D5A
:1015700003F48053002B06D07B681B6E23F0060219
:101580007B681A6602E07B6800221A667B681B682B
:101590001C221A607B68002283F858207B681B6835
:1015A0005A687B681B6822F01C025A607B689B6942
:1015B000082B08D17B681B685A687B681B6842F05F
:1015C00008025A6008E07B681B685A687B681B68E1
:1015D00042F004025A6000BF7B68DB6B002B07D12E
:1015E0007B681B685A687B681B6842F010025A606F
:1015F0007B681B68484A934209D07B681B68494A4C
:10160000934202D07B681B6803E0474B01E04FF038
:10161000A0437A681268934208D03B69002B05D03A
:101620003B69052B02D03B69092B3AD17B681B68CB
:10163000DB6803F00073002B2DD07B68DB6D23F497
:10164000405343F480527B68DA657B689B69082BC2
:1016500010D17B681B685A687B681B6822F02002E7
:101660005A607B681B685A687B681B6842F04002BE
:101670005A6010E07B681B685A687B681B6822F020
:1016800040025A607B681B685A687B681B6842F09E
:1016900020025A6000BF7B681B681846FFF7D6FB24
:1016A0005CE07B68DB6D43F480127B68DA657B6805
:1016B0001B68194A934209D07B681B68194A9342F8
:1016C00002D07B681B6803E0174B01E04FF0A0439A
:1016D000FB60FB68DB6803F00073002B3ED07B6887
:1016E000DB6D23F4405343F480527B68DA657B68FA
:1016F0009B69082B1AD17B681B685A687B681B683A
:1017000022F020025A607B681B685A687B681B685D
:1017100042F040025A6021E00001005000030050F6
:101720000007005000050050000400507B681B6853
:101730005A687B681B6822F040025A607B681B680D
:101740005A687B681B6842F020025A6006E07B689A
:10175000002283F8582001E00223FB75FB7D184628
:101760001837BD4680BD00BF80B584B000AF78603B
:101770007B6893F85830012B01D102232BE07B6862
:10178000012283F858200321786800F0D3FE034635
:10179000FB73FB7B002B19D17B681B685A687B6845
:1017A0001B6822F01C025A60786801F015F80346A5
:1017B000FB73FB7B002B09D17B68DB6D23F4885323
:1017C00023F0010343F001027B68DA657B680022A5
:1017D00083F85820FB7B18461037BD4680BD0000BB
:1017E00080B58AB000AF786000237B627B681B689D
:1017F0001B68FB617B681B685B68BB617B681B685F
:10180000B3F1A04F04D07B681B688E4A934201D18C
:101810008D4B00E08D4B1846FFF760FA7861FB694D
:1018200003F00203002B17D0BB6903F00203002B67
:1018300012D07B68DB6D03F01003002B05D17B68B1
:10184000DB6D43F400627B68DA65786801F000F9CB
:101850007B681B6802221A60FB6903F00403002BFB
:1018600004D0BB6903F00403002B0BD1FB6903F028
:101870000803002B00F09480BB6903F00803002BE1
:1018800000F08E807B68DB6D03F01003002B05D128
:101890007B68DB6D43F400727B68DA657B681B68EC
:1018A0001846FFF779F90346002B72D07B681B6856
:1018B000644A934209D07B681B68654A934202D010
:1018C0007B681B6803E0634B01E04FF0A0437A683C
:1018D0001268934208D07B69002B05D07B69052BE9
:1018E00002D07B69092B04D17B681B68DB683B62F3
:1018F00014E07B681B68534A934209D07B681B68DD
:10190000534A934202D07B681B6803E0514B01E0CD
:101910004FF0A0433B613B69DB683B623B6A03F4E9
:101920000053002B35D17B681B681B6803F008034C
:10193000082B2ED17B681B681846FFF7AFFA0346C9
:10194000002B1AD17B681B685A687B681B6822F0E1
:101950000C025A607B68DB6D23F480727B68DA6569
:101960007B68DB6D03F48053002B12D17B68DB6D49
:1019700043F001027B68DA650BE07B68DB6D43F0C6
:1019800010027B68DA657B681B6E43F001027B689E
:101990001A6678680BF0B0FB7B681B680C221A6033
:1019A000FB6903F02003002B04D0BB6903F0200384
:1019B000002B0BD1FB6903F04003002B00F0B38038
:1019C000BB6903F04003002B00F0AD807B68DB6D4A
:1019D00003F01003002B05D17B68DB6D43F400524C
:1019E0007B68DA657B681B681846FFF714F9F860B6
:1019F0007B681B681846FFF7CFF8B8607B681B68E8
:101A0000104A934209D07B681B68114A934202D066
:101A10007B681B6803E00F4B01E04FF0A0437A683E
:101A20001268934208D07B69002B05D07B69062B96
:101A300002D07B69072B0FD17B681B68DB683B6298
:101A40001FE000BF000100500003005000070050DD
:101A500000050050000400507B681B688B4A9342CD
:101A600009D07B681B688A4A934202D07B681B6856
:101A700003E0884B01E04FF0A0433B613B69DB682A
:101A80003B62FB68002B47D03B6A03F00073002BDE
:101A900007D0BB68002B3FD03B6A03F40053002BF8
:101AA0003AD17B681B681B6803F04003402B33D19D
:101AB0003B6A03F40013002B2ED17B681B68184689
:101AC000FFF713FA0346002B1AD17B681B685A688C
:101AD0007B681B6822F060025A607B68DB6D23F430
:101AE00080527B68DA657B68DB6D03F48073002BC2
:101AF00012D17B68DB6D43F001027B68DA650BE095
:101B00007B68DB6D43F010027B68DA657B681B6ED7
:101B100043F001027B681A66786800F071FF7B6809
:101B20001B6860221A60FB6903F08003002B11D050
:101B3000BB6903F08003002B0CD07B68DB6D43F4A2
:101B400080327B68DA65786800F0AAF87B681B68E9
:101B500080221A60FB6903F48073002B12D0BB69EA
:101B600003F48073002B0DD07B68DB6D43F40032EF
:101B70007B68DA65786800F057FF7B681B684FF474
:101B800080721A60FB6903F40073002B12D0BB69EA
:101B900003F40073002B0DD07B68DB6D43F48022CF
:101BA0007B68DA65786800F049FF7B681B684FF452
:101BB00000721A60FB6903F01003002B43D0BB696D
:101BC00003F01003002B3ED07B68DB6B002B02D1AF
:101BD00001237B6221E07B69002B15D07B681B68A9
:101BE000B3F1A04F04D07B681B68284A934201D10F
:101BF000294B00E0294B1846FFF77EF80346002BDF
:101C00000BD001237B6208E07B681B68DB6803F074
:101C10000103002B01D001237B627B6A012B0ED1D3
:101C20007B68DB6D43F480627B68DA657B681B6EE2
:101C300043F002027B681A6678680BF01BFD7B6834
:101C40001B6810221A60FB6903F48063002B18D014
:101C5000BB6903F48063002B13D07B68DB6D43F416
:101C600080427B68DA657B681B6E43F008027B6804
:101C70001A667B681B684FF480621A60786800F00F
:101C8000C9FE00BF2837BD4680BD00BF000100501F
:101C900000050050000400500003005000070050F1
:101CA00080B483B000AF786000BF0C37BD465DF8EC
:101CB000047B704780B5B6B000AF78603960002310
:101CC00087F8D7300023FB607B6893F85830012BEE
:101CD00002D1022300F013BC7B68012283F8582054
:101CE0007B681B681846FFF7D9F80346002B40F0C5
:101CF000F3837B6818683B6859683B681B681A4621
:101D0000FEF75DFF7B681B681846FFF7C7F8C7F84A
:101D1000D0007B681B681846FFF7E7F8C7F8CC00CF
:101D2000D7F8D030002B40F0D981D7F8CC30002B39
:101D300040F0D4813B689B68B3F1004F0FD17B68C2
:101D400018683B681B6800221946FEF777FF7B681E
:101D50001B684FF000411846FEF70BFF0EE07B6852
:101D600018683B6819683B689B681A46FEF766FF6F
:101D70007B681B6800211846FEF7FBFE3B685A692A
:101D80007B681B68DB68DB0803F003035B0002FA77
:101D900003F3C7F8C8303B681B69042B22D07B686B
:101DA00018683B6819693B681A68D7F8C830FEF7AD
:101DB00055FE7B6818683B6819693B689B691A4641
:101DC000FEF7A1FE7B6818683B6819693B681B7FBA
:101DD000012B02D14FF0007300E000231A46FEF7FA
:101DE000ADFE7BE17B681B6800211846FEF75AFEBA
:101DF0000346C3F31203002B0AD17B681B68002142
:101E00001846FEF74FFE03469B0E03F01F021EE02E
:101E10007B681B6800211846FEF744FE0346C7F89E
:101E2000BC30D7F8BC3093FAA3F3C7F8C030D7F86A
:101E3000C030C7F8B830D7F8B830002B01D1202314
:101E400004E0D7F8B830B3FA83F3DBB21A463B6844
:101E50001B68C3F31203002B05D13B681B689B0E64
:101E600003F01F0318E03B681B68C7F8B030D7F8D1
:101E7000B03093FAA3F3C7F8AC30D7F8AC30C7F85A
:101E8000B430D7F8B430002B01D1202304E0D7F8C8
:101E9000B430B3FA83F3DBB29A4206D17B681B6895
:101EA000002200211846FEF713FE7B681B68012103
:101EB0001846FEF7F7FD0346C3F31203002B0AD1C1
:101EC0007B681B6801211846FEF7ECFD03469B0E5C
:101ED00003F01F021EE07B681B6801211846FEF715
:101EE000E1FD0346C7F8A430D7F8A43093FAA3F372
:101EF000C7F8A030D7F8A030C7F8A830D7F8A83076
:101F0000002B01D1202304E0D7F8A830B3FA83F3E3
:101F1000DBB21A463B681B68C3F31203002B05D1E2
:101F20003B681B689B0E03F01F0318E03B681B68AF
:101F3000C7F89830D7F8983093FAA3F3C7F89430DD
:101F4000D7F89430C7F89C30D7F89C30002B01D1DB
:101F5000202304E0D7F89C30B3FA83F3DBB29A4233
:101F600006D17B681B68002201211846FEF7B0FDF0
:101F70007B681B6802211846FEF794FD0346C3F3F5
:101F80001203002B0AD17B681B6802211846FEF75A
:101F900089FD03469B0E03F01F021EE07B681B6851
:101FA00002211846FEF77EFD0346C7F88C30D7F8AD
:101FB0008C3093FAA3F3C7F88830D7F88830C7F885
:101FC0009030D7F89030002B01D1202304E0D7F8CF
:101FD0009030B3FA83F3DBB21A463B681B68C3F355
:101FE0001203002B05D13B681B689B0E03F01F03F7
:101FF00016E03B681B68C7F88030D7F8803093FA4A
:10200000A3F3FB67FB6FC7F88430D7F88430002B4D
:1020100001D1202304E0D7F88430B3FA83F3DBB294
:102020009A4206D17B681B68002202211846FEF7FF
:102030004FFD7B681B6803211846FEF733FD0346FE
:10204000C3F31203002B0AD17B681B6803211846D7
:10205000FEF728FD03469B0E03F01F0217E07B6886
:102060001B6803211846FEF71DFD03467B677B6F47
:1020700093FAA3F33B673B6FBB67BB6F002B01D1A8
:10208000202303E0BB6FB3FA83F3DBB21A463B684D
:102090001B68C3F31203002B05D13B681B689B0E22
:1020A00003F01F0311E03B681B68BB66BB6E93FA2D
:1020B000A3F37B667B6EFB66FB6E002B01D12023B6
:1020C00003E0FB6EB3FA83F3DBB29A4206D17B687E
:1020D0001B68002203211846FEF7FAFC7B681B6888
:1020E0001846FEF78DFE0346002B40F03D817B68CD
:1020F00018683B6819683B68DB681A46FEF7CAFD3A
:102100003B68DB68A24A934240F02E817B681868E6
:102110003B681B68C3F31203002B0BD13B681B68A1
:102120009B0E013303F01F03092B94BF01230023EF
:10213000DBB219E03B681B68FB65FB6D93FAA3F308
:10214000BB65BB6D3B663B6E002B01D1202303E0DA
:102150003B6EB3FA83F3DBB2013303F01F03092BA9
:1021600094BF01230023DBB2002B79D03B681B68AE
:10217000C3F31203002B07D13B681B689B0E01338E
:102180009B0603F0F84215E03B681B683B653B6D1E
:1021900093FAA3F3FB64FB6C7B657B6D002B01D191
:1021A000202303E07B6DB3FA83F3DBB201339B069C
:1021B00003F0F8423B681B68C3F31203002B09D1FC
:1021C0003B681B689B0E013303F01F03012101FADA
:1021D00003F317E03B681B687B647B6C93FAA3F303
:1021E0003B643B6CBB64BB6C002B01D1202303E040
:1021F000BB6CB3FA83F3DBB2013303F01F0301219D
:1022000001FA03F342EA03013B681B68C3F31203BC
:10221000002B0AD13B681B689B0E013303F01F02A1
:1022200013465B0013441B0518E03B681B68BB6347
:10223000BB6B93FAA3F37B637B6BFB63FB6B002BA2
:1022400001D1202303E0FB6BB3FA83F3DBB201334C
:1022500003F01F0213465B0013441B050B437EE093
:102260003B681B68C3F31203002B07D13B681B6854
:102270009B0E01339B0603F0F84215E03B681B6898
:10228000FB62FB6A93FAA3F3BB62BB6A3B633B6BE3
:10229000002B01D1202303E03B6BB3FA83F3DBB2C5
:1022A00001339B0603F0F8423B681B68C3F312033B
:1022B000002B09D13B681B689B0E013303F01F0301
:1022C000012101FA03F317E03B681B683B623B6A9C
:1022D00093FAA3F3FB61FB697B627B6A002B01D15C
:1022E000202303E07B6AB3FA83F3DBB2013303F00C
:1022F0001F03012101FA03F342EA03013B681B6853
:10230000C3F31203002B0DD13B681B689B0E0133F6
:1023100003F01F0213465B0013441E3B1B0543F0F2
:1023200000731BE03B681B687B617B6993FAA3F336
:102330003B613B69BB61BB69002B01D1202303E0FA
:10234000BB69B3FA83F3DBB2013303F01F02134618
:102350005B0013441E3B1B0543F000730B433A68BC
:1023600092681946FEF76AFC3B681A68094B1340ED
:10237000002B00F0BE807B681B68B3F1A04F04D037
:102380007B681B68044A93420AD1044B09E000BFF2
:1023900000007F4000000880000100500003005052
:1023A000594B1846FEF74CFBC7F8C4003B681B6846
:1023B000564A934204D03B681B68554A93423AD12F
:1023C000D7F8C43003F40003002B34D17B681B68BA
:1023D000B3F1A04F05D07B681B684E4A934240F092
:1023E00085807B681B68B3F1A04F04D07B681B68B5
:1023F000494A934201D1494A00E0434AD7F8C430E0
:1024000043F4000319461046FEF707FB444B1B68D4
:102410009B09444AA2FB03239B095A1C13465B00F9
:1024200013449B00FB6002E0FB68013BFB60FB6820
:10243000002BF9D15AE03B681B683B4A934225D1F7
:10244000D7F8C43003F08073002B1FD17B681B6862
:10245000314A93424CD07B681B68344A934247D040
:102460007B681B68B3F1A04F04D07B681B682A4AC5
:10247000934201D1294A00E0234AD7F8C43043F0FF
:10248000807319461046FEF7C8FA31E03B681B68B6
:10249000274A93422DD1D7F8C43003F48003002B90
:1024A00027D17B681B681C4A934222D07B681B683B
:1024B000B3F1A04F04D07B681B68174A934201D147
:1024C000164A00E0104AD7F8C43043F48003194696
:1024D0001046FEF7A2FA0CE07B68DB6D43F02002A9
:1024E0007B68DA65012387F8D73002E000BF00E09F
:1024F00000BF7B68002283F8582097F8D730184631
:10250000D837BD4680BD00BF00070050000021C382
:102510001000C09000060050000100500003005061
:1025200000000020632D3E05000052C7000500504A
:10253000000084CB80B588B000AF7860396000239C
:10254000FB613B68BB617B681B681846FEF7A6FC15
:1025500038617B681B681846FEF7C7FCF8603B696A
:10256000002B03D1FB68002B00F098807B681B6870
:10257000DB6803F00073002B2AD07B685B7F012BA4
:1025800026D17B681B7F012B22D10123BB6114E084
:10259000FB69454A93420DD97B68DB6D43F010021D
:1025A0007B68DA657B681B6E43F001027B681A6604
:1025B000012374E0FB690133FB617B681B681B68C6
:1025C00003F04003402BE3D17B681B6840221A6074
:1025D000BB69022B14D07B681B681846FEF75EFCB3
:1025E0000346002B0CD07B681B681846FEF71BFCCB
:1025F0000346002B04D17B681B681846FEF73AFCA3
:10260000BB69012B14D07B681B681846FEF76DFC74
:102610000346002B0CD07B681B681846FEF703FCB2
:102620000346002B04D17B681B681846FEF749FC63
:10263000BB69022B05D0BB69032B05D10C237B6141
:1026400005E008237B6102E004237B6100BF00F00A
:1026500075FBB8601BE000F071FB0246BB68D31A43
:10266000052B14D97B681B689A687B691340002B83
:102670000DD07B68DB6D43F010027B68DA657B6808
:102680001B6E43F001027B681A66012307E07B683A
:102690001B689A687B691340002BDCD10023184625
:1026A0002037BD4680BD00BFFFFF3FA380B584B08B
:1026B00000AF78600023BB607B681B681846FEF79C
:1026C0009FFB0346002B76D17B681B689A683C4BC6
:1026D0001340002B0DD07B68DB6D43F010027B684C
:1026E000DA657B681B6E43F001027B681A66012382
:1026F00062E07B681B681846FEF75AFB7B681B6824
:10270000B3F1A04F04D07B681B682E4A934201D1DD
:102710002D4B00E02D4B1846FEF792F9034603F4CB
:102720000003002B13D02A4B1B689B09294AA2FBEC
:1027300003239B095A1C13465B0013449B00BB6098
:1027400002E0BB68013BBB60BB68002BF9D100F025
:10275000F5FAF86028E07B681B681846FEF750FB26
:102760000346002B04D17B681B681846FEF720FB4C
:1027700000F0E4FA0246FB68D31A022B14D97B68F6
:102780001B681B6803F00103012B0DD07B68DB6D18
:1027900043F010027B68DA657B681B6E43F0010230
:1027A0007B681A66012307E07B681B681B6803F0DF
:1027B0000103012BCFD1002318461037BD4680BD41
:1027C0003F0000800001005000030050000700504F
:1027D00000000020632D3E0580B584B000AF786016
:1027E0007B681B681846FEF71EFBF8607B681B6859
:1027F0001846FEF705FB0346002B47D0FB68002B6D
:1028000044D17B681B689B6803F00D03012B0CD13E
:102810007B681B681846FEF7DFFA7B681B6803229B
:102820001A6000F08BFAB86029E07B68DB6D43F03A
:1028300010027B68DA657B681B6E43F001027B68DF
:102840001A66012323E000F079FA0246BB68D31A26
:10285000022B14D97B681B689B6803F00103002BD3
:102860000DD07B68DB6D43F010027B68DA657B6816
:102870001B6E43F001027B681A66012307E07B6848
:102880001B689B6803F00103002BDCD10023184672
:102890001037BD4680BD80B483B000AF78607B68E0
:1028A0009B6803F00103012B01D1012300E0002309
:1028B00018460C37BD465DF8047B704780B483B082
:1028C00000AF786039607B689B6823F0404323F059
:1028D0003F033A6802F08042134343F000427B68B2
:1028E0009A6000BF0C37BD465DF8047B704780B42A
:1028F00083B000AF78607B689B6803F00043B3F15E
:10290000004F01D1012300E0002318460C37BD46DB
:102910005DF8047B704780B483B000AF78607B685B
:102920009B6803F00403042B01D1012300E0002382
:1029300018460C37BD465DF8047B704780B584B0FF
:1029400000AF786039600023BB607B6893F8583033
:10295000012B01D102234DE07B68012283F858202E
:102960007868FFF739FF0346FB73FB7B002B36D1FA
:102970007B68DB6D23F4885323F0020343F00202EB
:102980007B68DA657B681B6839681846FFF796FF35
:1029900014E0BB680133BB60BB68184A93420DD991
:1029A0007B68DB6D23F0120343F010027B68DA656D
:1029B0007B68002283F8582001231BE07B681B689A
:1029C0001846FFF794FF0346002BE2D17B68DB6DCE
:1029D00023F0030343F001027B68DA6505E07B68BE
:1029E000DB6D43F010027B68DA657B68002283F8B8
:1029F0005820FB7B18461037BD4680BD01DE040021
:102A000080B483B000AF786000BF0C37BD465DF87E
:102A1000047B704780B483B000AF786000BF0C3790
:102A2000BD465DF8047B704780B483B000AF78602A
:102A300000BF0C37BD465DF8047B704780B483B09F
:102A400000AF786000BF0C37BD465DF8047B70476F
:102A500080B483B000AF786000BF0C37BD465DF82E
:102A6000047B704790B5A1B000AF78603960002357
:102A700087F87F307B6893F85830012B01D102230F
:102A8000E7E07B68012283F8582000237B6600235F
:102A9000BB667B681B68B3F1A04F02D16F4BBB6074
:102AA00009E07B681B686E4A934202D16D4BBB60A4
:102AB00001E00023BB60BB68002B0BD17B68DB6DA2
:102AC00043F020027B68DA657B68002283F8582097
:102AD0000123BEE0BB681846FFF71DFFB8677B689F
:102AE0001B681846FFF717FF0346002B40F0A08035
:102AF000BB6F002B40F09C807B681B68B3F1A04F3C
:102B000004D07B681B68554A934201D1564B00E0C4
:102B1000564B7B673B681B68002B4BD07B6F9B68D9
:102B200023F460423B6859687B6893F838305B0354
:102B30000B431A437B6F9A607B681B68B3F1A04F0D
:102B400004D07B681B68454A93420FD14FF0A040E8
:102B5000FFF7A1FE04464148FFF79DFE03462343CD
:102B6000002B0CBF01230023DBB212E03C48FFF72F
:102B700092FE04463B48FFF78EFE03461C433C484A
:102B8000FFF789FE03462343002B0CBF01230023DC
:102B9000DBB2002B56D07B6F9B6823F4716323F06C
:102BA0000F033A6811683A6892680A431A437B6FC8
:102BB0009A6047E07B6F9B6823F460427B6F9A606A
:102BC0007B681B68B3F1A04F04D07B681B68234A65
:102BD00093420FD14FF0A040FFF75DFE04461F481F
:102BE000FFF759FE03462343002B0CBF01230023AC
:102BF000DBB212E01A48FFF74EFE04461948FFF711
:102C00004AFE03461C431A48FFF745FE034623438A
:102C1000002B0CBF01230023DBB2002B12D07B6FF3
:102C20009B6823F4716323F00F037A6F936009E0CC
:102C30007B68DB6D43F020027B68DA65012387F84F
:102C40007F3000E000BF7B68002283F8582097F8AF
:102C50007F3018468437BD4690BD00BF000100504C
:102C60000004005000050050000300500007005011
:102C70000006005080B582B000AF0023FB71032036
:102C800001F080FD032000F00DF80346002B02D078
:102C90000123FB7101E006F03BFEFB791846083783
:102CA000BD4680BD80B584B000AF78600023FB7363
:102CB000164B1B68002B22D0154B1A68134B1B6850
:102CC0004FF47A71B1FBF3F3B2FBF3F3184601F062
:102CD0008CFD0346002B0FD17B680F2B09D80022F7
:102CE00079684FF0FF3001F058FD0A4A7B681360A5
:102CF00007E00123FB7304E00123FB7301E00123E0
:102D0000FB73FB7B18461037BD4680BD08000020D2
:102D1000000000200400002080B400AF054B1A68BA
:102D2000054B1B681344034A136000BFBD465DF8A2
:102D3000047B70477C0100200800002080B400AFB5
:102D4000034B1B681846BD465DF8047B704700BF07
:102D50007C01002080B584B000AF7860FFF7EEFF03
:102D6000B8607B68FB60FB68B3F1FF3F04D0094BA0
:102D70001B68FA681344FB6000BFFFF7DFFF0246E1
:102D8000BB68D31AFA689A42F7D800BF00BF103761
:102D9000BD4680BD0800002080B588B000AF7860D7
:102DA0007B68002B01D10123FEE27B681B6803F0E6
:102DB0000103002B75D0974B9B6803F00C03BB619C
:102DC000944BDB6803F003037B61BB690C2B02D1DE
:102DD0007B69032B02D0BB69082B0BD18D4B1B6881
:102DE00003F40033002B5BD07B685B68002B57D16A
:102DF0000123D9E27B685B68B3F5803F06D1854B40
:102E00001B68844A43F4803313601DE07B685B6871
:102E1000B3F5A02F0CD17F4B1B687E4A43F480236F
:102E200013607C4B1B687B4A43F4803313600BE0D8
:102E3000784B1B68774A23F480331360754B1B680B
:102E4000744A23F4802313607B685B68002B13D0E3
:102E5000FFF774FF386108E0FFF770FF02463B6937
:102E6000D31A642B01D903239EE26A4B1B6803F437
:102E70000033002BF0D014E0FFF760FF386108E06A
:102E8000FFF75CFF02463B69D31A642B01D9032389
:102E90008AE2604B1B6803F40033002BF0D100E0A2
:102EA00000BF7B681B6803F00203002B75D0594BF1
:102EB0009B6803F00C03BB61564BDB6803F0030314
:102EC0007B61BB690C2B02D17B69022B02D0BB69F1
:102ED000042B1FD14F4B1B6803F48063002B05D0DC
:102EE0007B68DB68002B01D101235DE2494B5B6805
:102EF00023F0FE427B681B691B06464913434B6067
:102F0000454B1B681846FFF7CDFE0346002B43D008
:102F1000012349E27B68DB68002B23D03D4B1B6813
:102F20003C4A43F480731360FFF708FF386108E000
:102F3000FFF704FF02463B69D31A022B01D9032392
:102F400032E2344B1B6803F48063002BF0D0314B2A
:102F50005B6823F0FE427B681B691B062D49134307
:102F60004B601AE02B4B1B682A4A23F480731360D2
:102F7000FFF7E4FE386108E0FFF7E0FE02463B6938
:102F8000D31A022B01D903230EE2224B1B6803F450
:102F90008063002BF0D100E000BF7B681B6803F06A
:102FA0000803002B41D07B685B69002B1CD0194BB8
:102FB000D3F89430174A43F00103C2F89430FFF776
:102FC000BDFE386108E0FFF7B9FE02463B69D31A3F
:102FD000022B01D90323E7E10E4BD3F8943003F021
:102FE0000203002BEFD020E00A4BD3F89430094ABB
:102FF00023F00103C2F89430FFF7A0FE38610DE022
:10300000FFF79CFE02463B69D31A022B06D9032325
:10301000CAE100BF00100240040000208C4BD3F82E
:10302000943003F00203002BEAD17B681B6803F0A5
:103030000403002B00F0A6800023FB77844B9B6DDC
:1030400003F08053002B01D1012300E00023002B6B
:103050000DD07F4B9B6D7E4A43F0805393657C4B34
:103060009B6D03F08053FB60FB680123FB77794B7A
:103070001B6803F48073002B18D1764B1B68754ACC
:1030800043F480731360FFF759FE386108E0FFF7DF
:1030900055FE02463B69D31A022B01D9032383E173
:1030A0006C4B1B6803F48073002BF0D07B689B682B
:1030B000012B08D1664BD3F89030654A43F00103E9
:1030C000C2F8903024E07B689B68052B10D1604BE0
:1030D000D3F890305E4A43F00403C2F890305C4B62
:1030E000D3F890305A4A43F00103C2F890300FE011
:1030F000574BD3F89030564A23F00103C2F8903072
:10310000534BD3F89030524A23F00403C2F8903066
:103110007B689B68002B16D0FFF710FE38610AE031
:10312000FFF70CFE02463B69D31A41F28832934204
:1031300001D9032338E1464BD3F8903003F0020362
:10314000002BEDD015E0FFF7F9FD38610AE0FFF73D
:10315000F5FD02463B69D31A41F28832934201D908
:10316000032321E13A4BD3F8903003F00203002B04
:10317000EDD1FB7F012B05D1354B9B6D344A23F0FC
:10318000805393657B681B6803F02003002B3CD0C1
:103190007B689B69002B1CD02D4BD3F898302C4AB0
:1031A00043F00103C2F89830FFF7C8FD386108E02A
:1031B000FFF7C4FD02463B69D31A022B01D9032352
:1031C000F2E0234BD3F8983003F00203002BEFD04A
:1031D0001BE01F4BD3F898301D4A23F00103C2F8BF
:1031E0009830FFF7ABFD386108E0FFF7A7FD024616
:1031F0003B69D31A022B01D90323D5E0144BD3F832
:10320000983003F00203002BEFD17B68DB69002BC1
:1032100000F0C9800E4B9B6803F00C030C2B00F0F0
:1032200083807B68DB69022B5ED1094B1B68084AEF
:1032300023F080731360FFF781FD38610CE0FFF726
:103240007DFD02463B69D31A022B05D90323ABE06F
:103250000010024000700040554B1B6803F00073E3
:10326000002BECD1524BDA68524B13407A68116A4A
:103270007A68526A013A120111437A68926A12021C
:1032800011437A68126B5208013A520511437A6869
:10329000526B5208013A520611437A68D26AD2063A
:1032A0000A4343491343CB60414B1B68404A43F0F8
:1032B000807313603E4BDB683D4A43F08073D360FC
:1032C000FFF73CFD386108E0FFF738FD02463B6937
:1032D000D31A022B01D9032366E0354B1B6803F098
:1032E0000073002BF0D05EE0314B1B68304A23F0B6
:1032F00080731360FFF722FD386108E0FFF71EFDC1
:1033000002463B69D31A022B01D903234CE0284B18
:103310001B6803F00073002BF0D1254BDA682449B9
:10332000254B1340CB603EE07B68DB69012B01D16C
:10333000012339E01E4BDB687B617B6903F00302EC
:103340007B681B6A9A422CD17B6903F0F0027B6890
:103350005B6A013B1B019A4223D17B6903F4FE4265
:103360007B689B6A1B029A421BD17B6903F07842FF
:103370007B68DB6ADB069A4213D17B6903F4C002E7
:103380007B681B6B5B08013B5B059A4209D17B693B
:1033900003F0C0627B685B6B5B08013B5B069A4293
:1033A00001D0012300E0002318462037BD4680BD30
:1033B000001002400C809F01FCFFEEFE80B586B03D
:1033C00000AF7860396000237B617B68002B01D1FE
:1033D00001231EE1914B1B6803F00F033A689A42E8
:1033E00010D98E4B1B6823F00F028C493B681343A6
:1033F0000B608A4B1B6803F00F033A689A4201D0B6
:10340000012306E17B681B6803F00103002B73D0E6
:103410007B685B68032B29D1814B1B6803F0007329
:10342000002B01D10123F4E000F09EF938613B69E3
:103430007C4A93423FD97A4B9B6803F0F003002B00
:1034400009D07B681B6803F00203002B33D07B6834
:103450009B68002B2FD1724B9B6823F0F003704ABE
:1034600043F08003936080237B6124E07B685B688A
:10347000022B07D16A4B1B6803F40033002B09D1E0
:103480000123C6E0664B1B6803F48063002B01D167
:103490000123BEE000F0CEF838613B69614A9342F7
:1034A00009D95F4B9B6823F0F0035D4A43F080032A
:1034B000936080237B615A4B9B6823F003027B68F7
:1034C0005B68574913438B60FFF738FCF8600AE0EC
:1034D000FFF734FC0246FB68D31A41F2883293426C
:1034E00001D9032395E04E4B9B6803F00C027B68E7
:1034F0005B689B009A42EBD17B681B6803F0020378
:10350000002B23D07B681B6803F00403002B05D03D
:10351000434B9B68424A43F4E06393607B681B68BB
:1035200003F00803002B07D03D4B9B6823F47C532A
:103530003B4A43F4E0639360394B9B6823F0F0020D
:103540007B689B68364913438B6008E07B69802B5E
:1035500005D1334B9B68324A23F0F00393602F4B25
:103560001B6803F00F033A689A421DD22B4B1B686D
:1035700023F00F0229493B6813430B60FFF7DEFB82
:10358000F8600AE0FFF7DAFB0246FB68D31A41F263
:103590008832934201D903233BE0204B1B6803F0A0
:1035A0000F033A689A42EDD17B681B6803F004036D
:1035B000002B08D01A4B9B6823F4E0627B68DB6821
:1035C000174913438B607B681B6803F00803002BCB
:1035D00009D0134B9B6823F460527B681B69DB00A6
:1035E0000F4913438B6000F025F802460C4B9B6893
:1035F0001B0903F00F030C49CB5C03F01F0322FAF5
:1036000003F30A4A13600A4B1B681846FFF74AFB8C
:10361000034618461837BD4680BD00BF0020024053
:103620000010024000B4C40428FB00080000002081
:103630000400002080B487B000AF2C4B9B6803F0DF
:103640000C03042B02D12A4B3B6147E0274B9B68BC
:1036500003F00C03082B02D1264B3B613EE0234BC9
:103660009B6803F00C030C2B36D1204BDB6803F076
:103670000303FB601D4BDB681B0903F00F030133E1
:10368000BB60FB68032B0CD11A4ABB68B2FBF3F397
:10369000164AD268120A02F07F0202FB03F37B6132
:1036A0000CE0134ABB68B2FBF3F3104AD268120A6B
:1036B00002F07F0202FB03F37B6100BF0B4BDB6870
:1036C0005B0E03F0030301335B007B607A697B6868
:1036D000B2FBF3F33B6101E000233B613B69184619
:1036E0001C37BD465DF8047B704700BF00100240E8
:1036F0000024F400002D310180B400AF034B1B689F
:103700001846BD465DF8047B704700BF00000020EE
:1037100080B500AFFFF7F0FF0246064B9B681B0A1F
:1037200003F007030449CB5C03F01F0322FA03F301
:10373000184680BD0010024038FB000880B500AF7D
:10374000FFF7DAFF0246064B9B68DB0A03F007032C
:103750000449CB5C03F01F0322FA03F3184680BD33
:103760000010024038FB000880B487B000AF1E4B49
:10377000DB6803F003033B611B4BDB681B0903F0B1
:103780000F030133FB603B69032B0CD1174AFB6825
:10379000B2FBF3F3144AD268120A02F07F0202FB72
:1037A00003F37B610CE0124AFB68B2FBF3F30E4AB1
:1037B000D268120A02F07F0202FB03F37B6100BFB2
:1037C000094BDB685B0E03F0030301335B00BB6056
:1037D0007A69BB68B2FBF3F37B607B6818461C37E1
:1037E000BD465DF8047B704700100240002D31019A
:1037F0000024F40080B586B000AF78600023FB742D
:103800000023BB747B681B6803F40023002B00F0CB
:10381000988000237B74434B9B6D03F08053002BF7
:103820000DD1404B9B6D3F4A43F0805393653D4B18
:103830009B6D03F08053BB60BB6801237B743A4BE4
:103840001B68394A43F480731360FFF777FAF86016
:1038500009E0FFF773FA0246FB68D31A022B02D97C
:103860000323FB7405E0304B1B6803F48073002BCB
:10387000EFD0FB7C002B59D12A4BD3F8903003F4C6
:1038800040737B617B69002B1ED07B681B6D7A695E
:103890009A4219D0234BD3F8903023F440737B61C4
:1038A000204BD3F890301F4A43F48033C2F8903055
:1038B0001C4BD3F890301B4A23F48033C2F890306D
:1038C000184A7B69C2F890307B6903F00103002B32
:1038D00016D0FFF733FAF8600BE0FFF72FFA024635
:1038E000FB68D31A41F28832934202D90323FB7456
:1038F00006E00C4BD3F8903003F00203002BECD021
:10390000FB7C002B0BD1074BD3F8903023F4407293
:103910007B681B6D03491343C1F8903008E0FB7CC2
:10392000BB7405E00010024000700040FB7CBB74DB
:103930007B7C012B05D1A74B9B6DA64A23F08053BE
:1039400093657B681B6803F00103002B0AD0A14B31
:10395000D3F8883023F003027B685B689D491343EA
:10396000C1F888307B681B6803F00203002B0AD083
:10397000984BD3F8883023F00C027B689B689549FC
:103980001343C1F888307B681B6803F00403002BE5
:103990000AD0904BD3F8883023F030027B68DB6884
:1039A0008C491343C1F888307B681B6803F0080317
:1039B000002B0AD0874BD3F8883023F0C0027B68F5
:1039C0001B6984491343C1F888307B681B6803F086
:1039D0001003002B0AD07F4BD3F8883023F44072B9
:1039E0007B685B697B491343C1F888307B681B683F
:1039F00003F02003002B0AD0764BD3F8883023F451
:103A000040627B689B6973491343C1F888307B68C7
:103A10001B6803F04003002B0AD06E4BD3F88830AC
:103A200023F440527B68DB696A491343C1F888304C
:103A30007B681B6803F08003002B0AD0654BD3F82A
:103A4000883023F440427B681B6A62491343C1F803
:103A500088307B681B6803F48073002B0AD05D4BB1
:103A6000D3F8883023F440327B685B6A59491343AA
:103A7000C1F888307B681B6803F40033002B0AD040
:103A8000544BD3F89C3023F003027B689B6A514966
:103A90001343C1F89C307B681B6803F40073002B50
:103AA0000AD04C4BD3F8883023F440227B68DB6A81
:103AB00048491343C1F888307B681B6803F480636E
:103AC000002B15D0434BD3F8883023F440127B6889
:103AD0001B6B40491343C1F888307B681B6BB3F5FF
:103AE000801F05D13B4BDB683A4A43F48013D36017
:103AF0007B681B6803F40063002B15D0354BD3F8AB
:103B0000883023F440027B685B6B32491343C1F871
:103B100088307B685B6BB3F5800F05D12D4BDB687C
:103B20002C4A43F48013D3607B681B6803F48053F2
:103B3000002B15D0274BD3F8883023F040727B68D8
:103B40009B6B24491343C1F888307B689B6BB3F1AE
:103B5000807F05D11F4BDB681E4A43F48013D3607E
:103B60007B681B6803F40053002B15D0194BD3F866
:103B7000883023F040627B68DB6B16491343C1F841
:103B800088307B68DB6BB3F1006F05D1114BDB68CC
:103B9000104A43F48013D3607B681B6803F48043AE
:103BA000002B19D00B4BD3F8883023F040627B6890
:103BB0001B6C08491343C1F888307B681B6CB3F158
:103BC000006F09D1034BDB68024A43F48013D360D2
:103BD00002E000BF001002407B681B6803F4004352
:103BE000002B15D0294BD3F8883023F040527B6846
:103BF0005B6C26491343C1F888307B685B6CB3F17A
:103C0000805F05D1214BDB68204A43F48033D360C9
:103C10007B681B6803F48033002B15D01B4BD3F853
:103C2000883023F040427B689B6C18491343C1F8ED
:103C300088307B689B6CB3F1804F05D1134BDB68F8
:103C4000124A43F48033D3607B681B6803F48023FB
:103C5000002B15D00D4BD3F89C3023F440127B6819
:103C6000DB6C0A491343C1F89C307B68DB6CB3F50D
:103C7000001F05D1054BDB68044A43F48013D36071
:103C8000BB7C18461837BD4680BD00BF00100240FF
:103C900080B487B000AF7860396000237B6164E155
:103CA0003B681A6801217B6901FA03F31340FB604A
:103CB000FB68002B00F056813B685B6803F0030350
:103CC000012B05D03B685B6803F00303022B30D166
:103CD0007B689B683B617B695B00032202FA03F30C
:103CE000DB433A6913403B613B68DA687B695B0000
:103CF00002FA03F33A6913433B617B683A699A60BD
:103D00007B685B683B6101227B6902FA03F3DB435A
:103D10003A6913403B613B685B681B0903F0010291
:103D20007B6902FA03F33A6913433B617B683A69A2
:103D30005A603B685B6803F00303032B09D13B68BF
:103D40005B6803F00303032B1BD13B689B68012BCB
:103D500017D07B68DB683B617B695B00032202FA5A
:103D600003F3DB433A6913403B613B689A687B6924
:103D70005B0002FA03F33A6913433B617B683A69DB
:103D8000DA603B685B6803F00303022B23D17B6995
:103D9000DA087B68083253F822303B617B6903F014
:103DA00007039B000F2202FA03F3DB433A69134037
:103DB0003B613B681A697B6903F007039B0002FAC9
:103DC00003F33A6913433B617B69DA087B68083285
:103DD000396943F822107B681B683B617B695B0093
:103DE000032202FA03F3DB433A6913403B613B6869
:103DF0005B6803F003027B695B0002FA03F33A6934
:103E000013433B617B683A691A603B685B6803F463
:103E10004033002B00F0A6805B4B1B6E5A4A43F0E8
:103E200001031366584B1B6E03F00103BB60BB68B4
:103E3000564A7B699B08023352F823303B617B6909
:103E400003F003039B000F2202FA03F3DB433A69FA
:103E500013403B617B68B3F1904F1FD07B684C4AA5
:103E6000934219D07B684B4A934213D07B684A4AED
:103E700093420DD07B68494A934207D07B68484AF9
:103E8000934201D105230AE0062308E0042306E05B
:103E9000032304E0022302E0012300E000237A6907
:103EA00002F00302920093403A6913433B613749A1
:103EB0007B699B0802333A6941F82320394B9B68A0
:103EC0003B61FB68DB433A6913403B613B685B68DD
:103ED00003F48013002B03D03A69FB6813433B6162
:103EE000304A3B6993602F4BDB683B61FB68DB43E7
:103EF0003A6913403B613B685B6803F40013002B95
:103F000003D03A69FB6813433B61264A3B69D3609F
:103F1000244B5B683B61FB68DB433A6913403B61C0
:103F20003B685B6803F40033002B03D03A69FB68FD
:103F300013433B611B4A3B6953601A4B1B683B614F
:103F4000FB68DB433A6913403B613B685B6803F401
:103F50008033002B03D03A69FB6813433B61114A5D
:103F60003B6913607B6901337B613B681A687B693D
:103F700022FA03F3002B7FF493AE00BF00BF1C377F
:103F8000BD465DF8047B7047001002400000014010
:103F90000004004800080048000C004800100048D9
:103FA000001400480004014080B485B000AF786080
:103FB0000B467B807B681A697B881340002B02D0FC
:103FC0000123FB7301E00023FB73FB7B18461437CE
:103FD000BD465DF8047B704780B483B000AF786065
:103FE0000B467B8013467B707B78002B03D07A884E
:103FF0007B689A6102E07A887B689A6200BF0C371E
:10400000BD465DF8047B704780B584B000AF786032
:104010007B68002B01D101238EE07B681B681A4668
:10402000474B9A420FD87B681B681A46454B13448E
:10403000454AA2FB03231B099A007B685A647B68EC
:10404000424A1A640EE07B681B681A46404B1344D0
:104050003D4AA2FB03231B099A007B685A647B68D4
:104060003C4A1A647B68022283F825207B681B681F
:104070001B68FB60FB6823F4FF4323F07003FB60C5
:104080007B689A687B68DB681A437B681B691A4304
:104090007B685B691A437B689B691A437B68DB69B1
:1040A0001A437B681B6A1343FA681343FB607B68FF
:1040B0001B68FA681A60786800F072F97B689B6880
:1040C000B3F5804F02D17B6800225A607B685A6842
:1040D0007B689B6C02F07F021A607B68DB6C7A68FD
:1040E000126D5A607B685B68002B10D07B685B6840
:1040F000042B0CD8786800F09BF97B685B6D00227C
:104100001A607B689B6D7A68D26D5A6008E07B68A4
:1041100000225A657B6800229A657B680022DA6576
:104120007B680022DA637B68012283F825207B68A4
:10413000002283F82420002318461037BD4680BD96
:1041400007040240F8FFFDBFCDCCCCCC00000240FC
:10415000F8FBFDBF0004024080B584B000AF78607A
:104160000023FB737B6893F82530DBB2022B0DD064
:104170007B680422DA637B68012283F825207B6850
:10418000002283F824200123FB7347E07B681B682F
:104190001A687B681B6822F001021A607B681B6842
:1041A0001A687B681B6822F00E021A607B689B6CA1
:1041B0001A687B689B6C22F480721A607B685B6C67
:1041C00003F01F027B681B6C012101FA02F25A60A6
:1041D0007B68DB6C7A68126D5A607B685B6D002BC4
:1041E0000CD07B685B6D1A687B685B6D22F4807213
:1041F0001A607B689B6D7A68D26D5A607B68012279
:1042000083F825207B68002283F824207B689B6B41
:10421000002B03D07B689B6B78689847FB7B184624
:104220001037BD4680BD80B584B000AF78607B6834
:104230001B6C1B68FB607B681B681B68BB607B6832
:104240005B6C03F01F0304229A40FB681340002BB1
:1042500026D0BB6803F00403002B21D07B681B68C9
:104260001B6803F02003002B07D17B681B681A68CA
:104270007B681B6822F004021A607B685B6C03F0A9
:104280001F027B681B6C042101FA02F25A607B68F2
:104290001B6B002B71D07B681B6B786898476CE0B8
:1042A0007B685B6C03F01F0302229A40FB6813409B
:1042B000002B2ED0BB6803F00203002B29D07B68B3
:1042C0001B681B6803F02003002B0BD17B681B6865
:1042D0001A687B681B6822F00A021A607B68012258
:1042E00083F825207B685B6C03F01F027B681B6CE6
:1042F000022101FA02F25A607B68002283F824202E
:104300007B68DB6A002B38D07B68DB6A786898476B
:1043100033E07B685B6C03F01F0308229A40FB6864
:104320001340002B2AD0BB6803F00803002B25D0D4
:104330007B681B681A687B681B6822F00E021A6093
:104340007B685B6C03F01F027B681B6C012101FA28
:1043500002F25A607B680122DA637B68012283F8EB
:1043600025207B68002283F824207B685B6B002B70
:1043700004D07B685B6B7868984700BF00BF10373C
:10438000BD4680BD80B483B000AF78607B6893F891
:104390002530DBB218460C37BD465DF8047B70470C
:1043A00080B487B000AF78607B681B681A461B4BEF
:1043B0009A420BD81A4B3B617B681B68DBB2083B07
:1043C000184AA2FB03231B097B610BE0164B3B61E0
:1043D0007B681B68DBB2083B124AA2FB03231B0964
:1043E00008337B613B69FB607B685B6C9B089A00D0
:1043F000FB6813441A467B689A647B680B4ADA644C
:104400007B6903F01F0301229A407B681A6500BF95
:104410001C37BD465DF8047B704700BF07040240AF
:1044200000080240CDCCCCCC2008024080080240DD
:1044300080B485B000AF78607B685B6803F07F0371
:10444000FB60FA680B4B13449B001A467B685A6565
:104450007B68094A9A65FB68013B03F01F03012250
:104460009A407B68DA6500BF1437BD465DF8047B6F
:10447000704700BF3F8200104009024080B485B001
:1044800000AF78607B68002B41D14B4B1B6803F475
:10449000C063B3F5806F31D1474BD3F88030464AC3
:1044A00023F48073C2F88030434B1B6823F4C0634D
:1044B000414A43F400731360404B1B68322202FBF5
:1044C00003F33F4AA2FB03239B0C0133FB6002E092
:1044D000FB68013BFB60384B5B6903F48063B3F519
:1044E000806F02D1FB68002BF2D1334B5B6903F480
:1044F0008063B3F5806F58D1032357E02E4BD3F878
:1045000080302D4A23F48073C2F880304DE07B6800
:10451000B3F5007F41D1284B1B6803F4C063B3F5AA
:10452000806F31D1244BD3F88030234A43F4807319
:10453000C2F88030204B1B6823F4C0631E4A43F44A
:10454000007313601D4B1B68322202FB03F31C4AED
:10455000A2FB03239B0C0133FB6002E0FB68013BE1
:10456000FB60154B5B6903F48063B3F5806F02D188
:10457000FB68002BF2D1104B5B6903F48063B3F549
:10458000806F12D1032311E00B4BD3F880300A4A1D
:1045900043F48073C2F8803007E0074B1B6823F4B4
:1045A000C063054A43F48063136000231846143740
:1045B000BD465DF8047B704700700040000000209D
:1045C00083DE1B4380B400AF054B9B68044A43F471
:1045D0008043936000BFBD465DF8047B704700BF19
:1045E0000070004080B485B000AF78607B6803F055
:1045F0000703FB600C4BDB68BB60BA684FF6FF0338
:104600001340BB60FB681A02BB68134343F0BF63EF
:1046100043F40033BB60044ABB68D36000BF143767
:10462000BD465DF8047B704700ED00E080B400AF4C
:10463000044BDB681B0A03F007031846BD465DF810
:10464000047B704700ED00E080B483B000AF034608
:10465000FB7197F90730002B0BDBFB7903F01F028E
:10466000074997F907305B09012000FA02F241F887
:10467000232000BF0C37BD465DF8047B704700BFA8
:1046800000E100E080B483B000AF03463960FB7105
:1046900097F90730002B0ADB3B68DAB20C4997F92F
:1046A00007301201D2B20B4483F800230AE03B68C2
:1046B000DAB20849FB7903F00F03043B1201D2B2CE
:1046C0000B441A7600BF0C37BD465DF8047B70477B
:1046D00000E100E000ED00E080B489B000AFF860D8
:1046E000B9607A60FB6803F00703FB61FB69C3F103
:1046F0000703042B28BF0423BB61FB690433062B8B
:1047000002D9FB69033B00E000237B614FF0FF32DD
:10471000BB6902FA03F3DA43BB681A407B699A402B
:104720004FF0FF317B6901FA03F3D9437B680B40FB
:10473000134318462437BD465DF8047B70470000DC
:1047400080B582B000AF78607B68013BB3F1807FB9
:1047500001D301230FE00A4A7B68013B53600F211C
:104760004FF0FF30FFF78EFF054B00229A60044B9D
:1047700007221A60002318460837BD4680BD00BFD7
:1047800010E000E080B582B000AF78607868FFF795
:1047900029FF00BF0837BD4680BD80B586B000AF99
:1047A0000346B9607A60FB73FFF740FF78617A686F
:1047B000B9687869FFF790FF024697F90F30114604
:1047C0001846FFF75FFF00BF1837BD4680BD80B5B4
:1047D00082B000AF0346FB7197F907301846FFF728
:1047E00033FF00BF0837BD4680BD80B582B000AF43
:1047F00078607868FFF7A4FF034618460837BD467F
:1048000080BD80B582B000AF78607B68002B01D19D
:1048100001238DE07B6893F84130DBB2002B06D199
:104820007B68002283F84020786804F08DFD7B6867
:10483000242283F841207B681B681A687B681B6808
:1048400022F001021A607B685A687B681B6822F0BC
:1048500070621A617B681B689A687B681B6822F427
:1048600000429A607B68DB68012B07D17B689A68FD
:104870007B681B6842F400429A6006E07B689A6895
:104880007B681B6842F404429A607B68DB68022BF9
:1048900008D17B681B685A687B681B6842F4006219
:1048A0005A6007E07B681B685A687B681B6822F4C3
:1048B00000625A607B681B685B687A68126843F024
:1048C000007343F4004353607B681B68DA687B68BD
:1048D0001B6822F40042DA607B681A697B685B69B6
:1048E00042EA03017B689B691A027B681B680A43E2
:1048F000DA607B68D9697B681A6A7B681B680A433F
:104900001A607B681B681A687B681B6842F00102AA
:104910001A607B6800225A647B68202283F8412059
:104920007B6800221A637B68002283F84220002300
:1049300018460837BD4680BD80B588B002AFF86024
:104940007A601A460B467B8113463B81FB6893F8DD
:104950004130DBB2202B40F0FD80FB6893F8403003
:10496000012B01D10223F6E0FB68012283F84020ED
:10497000FEF7E4F938613B690093192301224FF4F3
:104980000041F86800F0A1FE0346002B01D001238E
:10499000E1E0FB68212283F84120FB68102283F8C4
:1049A0004220FB6800225A64FB687A685A62FB68FE
:1049B0003A895A85FB6800225A63FB685B8D9BB27B
:1049C000FF2B06D9FB68FF221A854FF080737B61AD
:1049D00007E0FB685B8D9AB2FB681A854FF00073A5
:1049E0007B61FB681B8D002B24D0FB685B6A1A7807
:1049F000FB681B689A62FB685B6A5A1CFB685A6218
:104A0000FB685B8D9BB2013B9AB2FB685A85FB68E1
:104A10001B8D013B9AB2FB681A85FB681B8DDBB2CC
:104A20000133DAB279894E4B00937B69F86801F063
:104A30000FF866E0FB681B8DDAB27989484B00936A
:104A40007B69F86801F004F85BE03A69396AF86854
:104A500000F094FE0346002B01D001237BE0FB68AD
:104A60005B6A1A78FB681B689A62FB685B6A5A1C6F
:104A7000FB685A62FB685B8D9BB2013B9AB2FB6894
:104A80005A85FB681B8D013B9AB2FB681A85FB684F
:104A90005B8D9BB2002B34D0FB681B8D002B30D17B
:104AA0003B6900933B6A00228021F86800F00DFE0C
:104AB0000346002B01D001234DE0FB685B8D9BB2C8
:104AC000FF2B0ED9FB68FF221A85FB681B8DDAB21B
:104AD0007989002300934FF08073F86800F0B8FFE5
:104AE0000FE0FB685B8D9AB2FB681A85FB681B8D33
:104AF000DAB27989002300934FF00073F86800F070
:104B0000A7FFFB685B8D9BB2002B9ED13A69396A87
:104B1000F86800F07AFE0346002B01D001231AE06A
:104B2000FB681B682022DA61FB681B685968FB6818
:104B30001A680C4B0B405360FB68202283F841201D
:104B4000FB68002283F84220FB68002283F84020A3
:104B5000002300E0022318461837BD4680BD00BF81
:104B60000020008000E800FE80B584B000AF7860CF
:104B70007B681B689B69FB607B681B681B68BB606C
:104B80007B685B6B002B05D07B685B6BBA68F96850
:104B90007868984700BF1037BD4680BD80B586B0A5
:104BA00000AF78607B681B689B697B617B681B68D2
:104BB0001B683B617B691B0A03F00103002B10D0CB
:104BC0003B69DB0903F00103002B0AD07B685B6CB7
:104BD00043F001027B685A647B681B684FF4807263
:104BE000DA617B699B0A03F00103002B10D03B695B
:104BF000DB0903F00103002B0AD07B685B6C43F0F8
:104C000008027B685A647B681B684FF48062DA6133
:104C10007B695B0A03F00103002B10D03B69DB09C1
:104C200003F00103002B0AD07B685B6C43F00202A7
:104C30007B685A647B681B684FF40072DA617B689A
:104C40005B6CFB60FB6803F00B03002B03D0F9687F
:104C5000786800F0E1FB00BF1837BD4680BD80B426
:104C600083B000AF786000BF0C37BD465DF8047BB1
:104C7000704780B483B000AF786000BF0C37BD468A
:104C80005DF8047B704780B483B000AF78600B465A
:104C9000FB7013463B8000BF0C37BD465DF8047BBC
:104CA000704780B483B000AF786000BF0C37BD465A
:104CB0005DF8047B704780B483B000AF786000BFBC
:104CC0000C37BD465DF8047B704780B586B000AFF9
:104CD000F860B9607A60FB68DB6A7B61BB683B6146
:104CE000FB6893F84030012B01D10223EDE0FB6813
:104CF000012283F840203B695B0903F00103002B8C
:104D00000AD07B685B0903F00103002B04D03969EA
:104D1000F86800F0C1F9D3E03B691B0903F0010317
:104D2000002B4DD07B681B0903F00103002B47D0FB
:104D3000FB685B8D9BB2002B28D1FB6893F8413058
:104D4000DBB2282B08D17B69B3F1007F04D139692C
:104D5000F86800F00BFB32E0FB6893F84130DBB2FF
:104D6000292B0ED17B6913F5803F0AD0FB681B68A5
:104D70001022DA61F86800F066FCF86800F02DF99E
:104D80001DE0FB681B681022DA6196E0FB681B6877
:104D90001022DA61FB685B6C43F00402FB685A6422
:104DA0007B69002B04D07B69B3F1807F40F0858064
:104DB000FB685B6C1946F86800F02EFB7DE07CE038
:104DC0003B699B0803F00103002B30D07B689B08F4
:104DD00003F00103002B2AD0FB685B8D9BB2002BF4
:104DE00018D0FB681B685A6AFB685B6AD2B21A70FB
:104DF000FB685B6A5A1CFB685A62FB681B8D013BAF
:104E00009AB2FB681A85FB685B8D9BB2013B9AB234
:104E1000FB685A85FB685B8D9BB2002B4FD17B6989
:104E200013F5803F4BD0F86800F0D7F847E03B69B6
:104E3000DB0803F00103002B0AD07B68DB0803F0DA
:104E40000103002B04D03969F86800F042F837E01C
:104E50003B695B0803F00103002B31D07B685B08E2
:104E600003F00103002B2BD0FB685B8D9BB2002B62
:104E700018D0FB685B6A1A78FB681B689A62FB684B
:104E80005B6A5A1CFB685A62FB685B8D9BB2013BF4
:104E90009AB2FB685A85FB681B8D013B9AB2FB688E
:104EA0001A850DE07B69B3F1807F02D07B69002B0E
:104EB00006D1F86800F091F802E000BF00E000BF02
:104EC000FB68002283F84020002318461837BD46AF
:104ED00080BD80B584B000AF786039607B6893F89E
:104EE0004130DBB203F02803282B6AD17B681B68B2
:104EF0009B691B0CDBB203F00103FB737B681B682F
:104F00009B691B0C9BB203F0FE03BB817B681B6893
:104F10009B689BB2C3F309037B817B681B68DB68DA
:104F20009BB203F0FE033B817B68DB68022B38D128
:104F30007B89DB099AB2BB8953409BB203F006031D
:104F4000002B1CD17B89BB817B689B6C5A1C7B68C6
:104F50009A647B689B6C022B3BD17B6800229A642D
:104F60007B681B680822DA617B68002283F8402096
:104F7000BA89FB7B19467868FFF785FE29E03B89F3
:104F8000BB814FF40041786800F094FD7B680022FB
:104F900083F84020BA89FB7B19467868FFF773FED7
:104FA00017E04FF40041786800F084FD7B68002230
:104FB00083F84020BA89FB7B19467868FFF763FEC7
:104FC00007E07B681B680822DA617B68002283F8AF
:104FD000402000BF1037BD4680BD80B584B000AF13
:104FE00078607B681B681B68FB607B68002283F825
:104FF0004220FB689B0B03F00103002B08D07B6869
:105000001B681A687B681B6822F480421A600DE0F6
:10501000FB68DB0B03F00103002B07D07B681B68E8
:105020001A687B681B6822F400421A607B6893F858
:105030004130DBB2292B12D17B68282283F8412032
:105040007B6821221A630121786800F033FD7B68B8
:10505000002283F840207868FFF701FE17E07B68A4
:1050600093F84130DBB22A2B11D17B68282283F8D8
:1050700041207B6822221A630221786800F01AFD21
:105080007B68002283F840207868FFF7F2FD00BFBC
:105090001037BD4680BD000080B586B000AF786097
:1050A00039607B681B681B683B613B687B617B6880
:1050B000DB6AFB607B6893F84130FB727B681B689E
:1050C0002022DA61FB7A212B02D0FB7A292B08D12E
:1050D00048F20101786800F0EDFC7B6821221A6338
:1050E00019E0FB7A222B02D0FB7A2A2B08D148F256
:1050F0000201786800F0DEFC7B6822221A630AE075
:10510000FB7A282B07D148F20301786800F0D2FC23
:105110007B6800221A637B681B685A687B681B687F
:1051200042F400425A607B681B6859687B681A68C1
:105130008C4B0B405360786800F085FA3B699B0B01
:1051400003F00103002B13D07B681B681A687B688F
:105150001B6822F480421A607B689B6B002B20D076
:105160007B689B6B1B685B689AB27B685A8518E00A
:105170003B69DB0B03F00103002B12D07B681B683B
:105180001A687B681B6822F400421A607B68DB6B3C
:10519000002B06D07B68DB6B1B685B689AB27B6870
:1051A0005A857B699B0803F00103002B20D07B69A3
:1051B00023F004037B617B681B685A6A7B685B6A27
:1051C000D2B21A707B685B6A5A1C7B685A627B6831
:1051D0001B8D002B0CD07B681B8D013B9AB27B682A
:1051E0001A857B685B8D9BB2013B9AB27B685A85BE
:1051F0007B685B8D9BB2002B05D07B685B6C43F0BA
:1052000004027B685A647B691B0903F00103002BCD
:105210004AD03B691B0903F00103002B44D07B6893
:105220005B8D9BB2002B28D17B6893F84130DBB2B9
:10523000282B08D1FB68B3F1007F04D17969786825
:1052400000F094F830E07B6893F84130DBB2292B12
:105250000ED1FB6813F5803F0AD07B681B681022D3
:10526000DA61786800F0EFF97868FFF7B6FE1BE0C6
:105270007B681B681022DA6116E07B681B681022CD
:10528000DA617B685B6C43F004027B685A64FB68FC
:10529000002B03D0FB68B3F1807F05D17B685B6C8A
:1052A0001946786800F0B8F87B68002283F842203D
:1052B0007B6800225A637B685B6C002B10D07B6894
:1052C0005B6C1946786800F0A7F87B6893F841306A
:1052D000DBB2282B41D17969786800F047F83CE0CF
:1052E0007B68DB6A13F5803F14D07868FFF775FEA2
:1052F0007B681D4ADA627B68202283F841207B6844
:1053000000221A637B68002283F840207868FFF748
:10531000C8FC22E07B6893F84130DBB2222B0ED12F
:105320007B68202283F841207B6800221A637B6817
:10533000002283F840207868FFF79BFC0DE07B6833
:10534000202283F841207B6800221A637B680022B8
:1053500083F840207868FFF782FC00BF1837BD460D
:1053600080BD00BF00E800FE0000FFFF80B582B0F6
:1053700000AF786039607B68264ADA627B68002279
:105380001A637B68202283F841207B68002283F81F
:1053900042207B6800225A633B689B0803F00103AC
:1053A000002B22D07B681B685A6A7B685B6AD2B28A
:1053B0001A707B685B6A5A1C7B685A627B681B8D1B
:1053C000002B12D07B681B8D013B9AB27B681A853B
:1053D0007B685B8D9BB2013B9AB27B685A857B6888
:1053E0005B6C43F004027B685A6448F203017868FE
:1053F00000F060FB7B681B681022DA617B6800228A
:1054000083F840207868FFF74CFC00BF0837BD46A2
:1054100080BD00BF0000FFFF80B584B000AF7860A2
:1054200039607B6893F84130FB737B68002283F816
:1054300042207B686D4ADA627B6800225A857B686D
:105440005A6C3B681A437B685A64FB7B282B05D057
:10545000FB7B292B02D0FB7B2A2B0BD10321786805
:1054600000F028FB7B68282283F841207B68604A93
:105470005A6330E048F20301786800F01BFB78685B
:1054800000F0E1F87B6893F84130DBB2602B1FD06D
:105490007B68202283F841207B681B689B6903F0AE
:1054A0002003202B14D17B681B689B6903F0100339
:1054B000102B09D17B681B681022DA617B685B6C5A
:1054C00043F004027B685A647B681B682022DA611F
:1054D0007B6800225A637B681B6BBB607B689B6B9D
:1054E000002B39D0BB68112B02D0BB68212B33D1E4
:1054F0007B681B681B6803F48043B3F5804F07D1BA
:105500007B681B681A687B681B6822F480421A60FB
:105510007B689B6B1846FEF735FF0346012B17D0BF
:105520007B689B6B334A9A637B68002283F8402038
:105530007B689B6B1846FEF70FFE0346002B4DD091
:105540007B689B6B9B6B7A68926B1046984745E033
:10555000786800F051F841E07B68DB6B002B39D0B4
:10556000BB68122B02D0BB68222B33D17B681B682F
:105570001B6803F40043B3F5004F07D17B681B6839
:105580001A687B681B6822F400421A607B68DB6B38
:105590001846FEF7F7FE0346012B17D07B68DB6B3E
:1055A000144A9A637B68002283F840207B68DB6B97
:1055B0001846FEF7D1FD0346002B11D07B68DB6B4C
:1055C0009B6B7A68D26B1046984709E0786800F0C8
:1055D00013F805E0786800F00FF802E000BF00E083
:1055E00000BF00BF1037BD4680BD00BF0000FFFFF9
:1055F000CB4C00088F56000880B582B000AF7860B1
:105600007B6893F84130DBB2602B0ED17B6820229F
:1056100083F841207B6800221A637B68002283F8AC
:1056200040207868FFF747FB09E07B6800221A6397
:105630007B68002283F84020786806F097F800BF66
:105640000837BD4680BD80B483B000AF78607B680A
:105650001B689B6903F00203022B03D17B681B6864
:1056600000229A627B681B689B6903F00103012B8F
:1056700007D07B681B689A697B681B6842F001024F
:105680009A6100BF0C37BD465DF8047B704780B55A
:1056900084B000AF78607B689B6AFB60FB689B6BA3
:1056A000002B03D0FB689B6B00229A63FB68DB6BCB
:1056B000002B03D0FB68DB6B00229A63F868FFF7CE
:1056C0009BFF00BF1037BD4680BD80B584B000AFE2
:1056D000F860B9603B601346FB713BE0BA6939681A
:1056E000F86800F0D5F80346002B01D0012341E013
:1056F0003B68B3F1FF3F2DD0FDF720FB0246BB69AD
:10570000D31A3A689A4202D33B68002B22D1FB6835
:105710001B689A69BB681340BA689A420CBF0123A0
:105720000023DBB21A46FB799A4213D1FB685B6C0B
:1057300043F02002FB685A64FB68202283F8412072
:10574000FB68002283F84220FB68002283F8402097
:1057500001230FE0FB681B689A69BB681340BA68B5
:105760009A420CBF01230023DBB21A46FB799A420E
:10577000B4D0002318461037BD4680BD80B584B034
:1057800000AFF860B9607A6033E07A68B968F868A9
:1057900000F07EF80346002B01D0012331E0BB6806
:1057A000B3F1FF3F25D0FDF7C9FA02467B68D31A53
:1057B000BA689A4202D3BB68002B1AD1FB681B68F7
:1057C0009B6903F00203022B13D0FB685B6C43F070
:1057D0002002FB685A64FB68202283F84120FB68A2
:1057E000002283F84220FB68002283F84020012336
:1057F00007E0FB681B689B6903F00203022BC4D11E
:10580000002318461037BD4680BD80B584B000AF78
:10581000F860B9607A602FE07A68B968F86800F0DB
:1058200037F80346002B01D001232DE0FDF786FA5F
:1058300002467B68D31ABA689A4202D3BB68002B2F
:105840001AD1FB681B689B6903F02003202B13D03F
:10585000FB685B6C43F02002FB685A64FB68202203
:1058600083F84120FB68002283F84220FB68002275
:1058700083F84020012307E0FB681B689B6903F065
:105880002003202BC8D1002318461037BD4680BD09
:1058900080B58AB000AFF860B9607A60002387F8FD
:1058A0002730FB681B689B69BB6100233B627B68F8
:1058B000FB61BB6903F01003002B68D0FB681B6819
:1058C0001022DA6149E0BB68B3F1FF3F45D0FDF734
:1058D00035FA0246FB69D31ABA689A4202D3BB680A
:1058E000002B3AD1FB681B685B6803F480437B6143
:1058F000FB6893F84230FB74FB681B689B6903F4F8
:105900000043B3F5004F21D17B69B3F5804F1DD023
:10591000FB7C202B1AD0FB681B685A68FB681B684D
:1059200042F480425A60FDF709FAF8610EE0FDF793
:1059300005FA0246FB69D31A192B07D93B6A43F0D3
:1059400020033B62012387F8273006E0FB681B68D1
:105950009B6903F02003202BE9D1FB681B689B693E
:1059600003F02003202B03D097F82730002BAAD078
:1059700097F82730002B03D1FB681B682022DA61DF
:105980003B6A43F004033B62012387F82730FB683E
:105990001B689B69BB61BB6903F48073002B0BD050
:1059A0003B6A43F001033B62FB681B684FF4807263
:1059B000DA61012387F82730BB6903F48063002B89
:1059C0000BD03B6A43F008033B62FB681B684FF453
:1059D0008062DA61012387F82730BB6903F4007322
:1059E000002B0BD03B6A43F002033B62FB681B6851
:1059F0004FF40072DA61012387F8273097F82730D7
:105A0000002B1CD0F868FFF71EFEFB681B68596866
:105A1000FB681A680D4B0B405360FB685A6C3B6A7D
:105A20001A43FB685A64FB68202283F84120FB6814
:105A3000002283F84220FB68002283F8402097F878
:105A4000273018462837BD4680BD00BF00E800FE5D
:105A500080B487B000AFF8607B600B467B81134653
:105A60007B727B89C3F309027B7A1B0403F47F03F7
:105A70001A437B681A433B6A134323F000437B615C
:105A8000FB681B685A683B6A5B0D03F48061084B36
:105A90000B43DB4302EA0301FB681B687A690A4394
:105AA0005A6000BF1C37BD465DF8047B704700BFDD
:105AB000FF63FF0380B485B000AF78600B467B8046
:105AC0000023FB607B8803F00103002B0FD0FB68F1
:105AD00043F04203FB607B6893F84130DBB203F094
