:020000040800F2
:1000000000000220859E0008F19C0008F99C000871
:10001000019D0008099D0008119D000800000000D6
:10002000000000000000000000000000199D000812
:10003000279D000800000000359D0008439D000832
:10004000D59E0008D59E0008D59E0008D59E0008C4
:10005000D59E0008D59E0008D59E0008D59E0008B4
:10006000D59E0008D59E0008D59E0008D59E0008A4
:10007000D59E0008D59E0008D59E0008D59E000894
:10008000519D0008659D0008799D0008D59E0008D7
:10009000D59E0008D59E0008D59E0008D59E000874
:1000A000D59E0008D59E0008D59E0008D59E000864
:1000B000959D0008D59E0008D59E0008D59E000895
:1000C000D59E0008A99D0008BD9D0008D59E00088A
:1000D000D59E0008D59E0008D59E0008D59E000834
:1000E000D59E0008D59E0008D59E0008D59E000824
:1000F000D59E0008D59E0008D59E0008D59E000814
:10010000D59E0008D59E0008D59E0008D59E000803
:10011000D59E0008D59E0008D59E0008D59E0008F3
:10012000D59E0008D59E0008D59E0008D59E0008E3
:10013000D59E0008D59E0008D59E0008D59E0008D3
:10014000D59E0008D59E0008D59E0008D59E0008C3
:10015000D59E0008D59E0008D59E0008D59E0008B3
:10016000D59E0008D59E0008D59E0008D59E0008A3
:10017000D59E0008D59E0008D59E0008D59E000893
:10018000D59E0008D59E0008D59E0008D59E000883
:10019000D59E000800000000D59E0008D59E0008EE
:1001A000D59E0008D59E0008D59E0008D59E000863
:1001B000D59E0008D59E0008D59E0008D59E000853
:1001C000D59E0008D59E0008D59E0008D59E000843
:0801D000D59E0008D59E000831
:1001E00010B5054C237833B9044B13B10448AFF371
:1001F00000800123237010BD980100200000000042
:10020000B4F5000808B5034B1BB103490348AFF32D
:10021000008008BD000000009C010020B4F500082B
:1002200081F0004102E000BF83F0004330B54FEAA7
:1002300041044FEA430594EA050F08BF90EA020F14
:100240001FBF54EA000C55EA020C7FEA645C7FEAA7
:10025000655C00F0E2804FEA5454D4EB5555B8BFCA
:100260006D420CDD2C4480EA020281EA030382EA3B
:10027000000083EA010180EA020281EA0303362DCD
:1002800088BF30BD11F0004F4FEA01314FF4801CA0
:100290004CEA113102D0404261EB410113F0004FB2
:1002A0004FEA03334CEA133302D0524263EB430369
:1002B00094EA050F00F0A780A4F10104D5F1200E07
:1002C0000DDB02FA0EFC22FA05F2801841F1000162
:1002D00003FA0EF2801843FA05F359410EE0A5F136
:1002E00020050EF1200E012A03FA0EFC28BF4CF067
:1002F000020C43FA05F3C01851EBE37101F000451D
:1003000007D54FF0000EDCF1000C7EEB00006EEB29
:100310000101B1F5801F1BD3B1F5001F0CD34908B3
:100320005FEA30004FEA3C0C04F101044FEA44520A
:1003300012F5800F80F09A80BCF1004F08BF5FEA91
:10034000500C50F1000041EB045141EA050130BD71
:100350005FEA4C0C404141EB0101013C28BFB1F583
:10036000801FE9D291F0000F04BF01460020B1FACE
:1003700081F308BF2033A3F10B03B3F120020CDAA1
:100380000C3208DD02F1140CC2F10C0201FA0CF07F
:1003900021FA02F10CE002F11402D8BFC2F1200CE4
:1003A00001FA02F120FA0CFCDCBF41EA0C0190409A
:1003B000E41AA2BF01EB0451294330BD6FEA0404E3
:1003C0001F3C1CDA0C340EDC04F11404C4F12002CE
:1003D00020FA04F001FA02F340EA030021FA04F3E0
:1003E00045EA030130BDC4F10C04C4F1200220FA37
:1003F00002F001FA04F340EA0300294630BD21FA75
:1004000004F0294630BD94F0000F83F4801306BF3A
:1004100081F480110134013D4EE77FEA645C18BF2E
:100420007FEA655C29D094EA050F08BF90EA020FC5
:1004300005D054EA000C04BF1946104630BD91EABD
:10044000030F1EBF0021002030BD5FEA545C05D1C0
:100450004000494128BF41F0004130BD14F58004FF
:100460003CBF01F5801130BD01F0004545F0FE4173
:1004700041F470014FF0000030BD7FEA645C1ABFA8
:10048000194610467FEA655C1CBF0B46024650EADF
:10049000013406BF52EA033591EA030F41F400210B
:1004A00030BD00BF90F0000F04BF0021704730B591
:1004B0004FF4806404F132044FF000054FF0000166
:1004C00050E700BF90F0000F04BF0021704730B527
:1004D0004FF4806404F1320410F0004548BF4042FC
:1004E0004FF000013EE700BF42004FEAE2014FEA51
:1004F00031014FEA02701FBF12F07F4393F07F4F2C
:1005000081F06051704732F07F4208BF704793F02E
:100510007F4F04BF41F40021704730B54FF4607441
:1005200001F0004521F000411CE700BF50EA010244
:1005300008BF704730B54FF000050AE050EA0102ED
:1005400008BF704730B511F0004502D5404261EB5D
:1005500041014FF4806404F132045FEA915C3FF49E
:10056000D8AE4FF003025FEADC0C18BF03325FEA3B
:10057000DC0C18BF033202EBDC02C2F1200300FAEC
:1005800003FC20FA02F001FA03FE40EA0E0021FA11
:1005900002F11444BDE600BF53B94AB9002908BFAF
:1005A00000281CBF4FF0FF314FF0FF3000F088B93A
:1005B000ADF1080C6DE904CE00F006F8DDF804E0BA
:1005C000DDE9022304B070472DE9F047089D0F468E
:1005D00004468C46002B48D18A42164661D9B2FAAD
:1005E00082F34BB1C3F1200201FA03FC20FA02F2BC
:1005F0009E4042EA0C0C9C404FEA164EB7B2BCFB40
:10060000FEF1220C0EFB11CC42EA0C4201FB07F07A
:10061000904209D9B21801F1FF3C80F0EE8090427F
:1006200040F2EB8002393244121AA4B2B2FBFEF05F
:100630000EFB102244EA024400FB07F7A74209D947
:10064000341900F1FF3280F0DA80A74240F2D780FF
:100650003444023840EA0140E41B00211DB1DC4073
:100660000023C5E90043BDE8F0878B4206D90DB1F0
:10067000C5E9000100210846BDE8F087B3FA83F11F
:10068000002948D1BB4202D3824200F20781841A7A
:1006900067EB030201209446002DE4D0C5E9004C2D
:1006A000E1E7002A00F09280B2FA82F3002B40F0DA
:1006B000A8808A1A4FEA164E1FFA86FC0121200CE8
:1006C000B2FBFEF70EFB172240EA02420CFB07F0DA
:1006D000904207D9B21807F1FF3802D2904200F2D7
:1006E000E2804746121AA4B2B2FBFEF00EFB1022C3
:1006F00044EA02440CFB00FCA44507D9341900F17C
:10070000FF3202D2A44500F2CB801046A4EB0C04C9
:1007100040EA0740A2E7C1F120068B4022FA06FC1E
:100720004CEA030C07FA01F420FA06F3F7404FEA0B
:100730001C49234300FA01F81FFA8CFEB7FBF9F0BD
:100740001C0C09FB107744EA074400FB0EF7A74294
:1007500002FA01F20AD91CEB040400F1FF3A80F01E
:100760009B80A74240F2988002386444E41B9FB209
:10077000B4FBF9F309FB134447EA044403FB0EFE00
:10078000A64509D91CEB040403F1FF3780F08280F1
:10079000A6457FD9023B644443EA0040A4EB0E0423
:1007A000A0FB02E7BC427346B94663D360D05DB19B
:1007B000B8EB030264EB090404FA06F622FA01F32B
:1007C0001E43CC40C5E9006400214CE7620848089C
:1007D00042EAC1710B0C43EA00438AB242EA034287
:1007E000B3FBF6F1E407B4463746B6461F23B0FB29
:1007F000F6F0D21B41EA004161E7614614E710467A
:1008000028E7C3F1200120FA01F29E4027FA01F106
:100810009F403A434FEA164E1FFA86FCB1FBFEF7A3
:100820000EFB1710110C41EA004107FB0CF888453C
:1008300004FA03F43AD9711807F1FF3001D2884560
:100840001FD8A1EB0801B1FBFEF808FB0CF70EFB6B
:10085000181192B242EA0142BA422FD2B21808F1FC
:10086000FF31C6D2BA42C4D2A8F102013244C0E775
:10087000F0459CD2BEEB020367EB0C070138B9468A
:1008800095E7A6EB08084144B81EB1FBFEF808FB4B
:100890000CF7DCE73B467FE7504667E70846FBE698
:1008A0003444023832E7023F32441BE7A1EB08012F
:1008B0003846B1FBFEF808FB0CF7C8E7414698E75D
:1008C000704700BF000000000000000000000000B2
:1008D00001F0FF01102A2BDB10F0070F08D010F8F1
:1008E000013B013A8B422DD010F0070F42B3F6D1F5
:1008F000F0B441EA012141EA014122F007047FF00E
:1009000000070023F0E80256083C85EA010586EA64
:10091000010685FA47F5A3FA87F586FA47F6A5FAA0
:1009200087F68EB9EED1F0BC01F0FF0102F00702AC
:1009300032B110F8013B013A83EA010313B1F8D157
:100940000020704701387047002D06BF3546033838
:10095000073815F0010F07D1013015F4807F02BF71
:10096000013015F4C03F0130F0BC0138704700BFC2
:1009700080B400AF064BD3F88830054A43F47003C7
:10098000C2F8883000BFBD465DF8047B704700BFE9
:1009900000ED00E080B483B000AF786039607B6820
:1009A0009B6823F47C123B681A437B689A6000BF03
:1009B0000C37BD465DF8047B704780B483B000AF50
:1009C000786039607B689B6823F0E0723B681A436B
:1009D0007B689A6000BF0C37BD465DF8047B7047AA
:1009E00080B483B000AF78607B689B6803F0E073ED
:1009F00018460C37BD465DF8047B704780B487B05D
:100A000000AFF860B9607A603B60FB6860331A46FB
:100A1000BB689B0013447B617B691A68084B1340D9
:100A20007A6802F0F8413A680A43134343F00042FF
:100A30007B691A6000BF1C37BD465DF8047B7047B8
:100A400000F0FF0380B485B000AF786039607B6848
:100A500060331A463B689B001344FB60FB681B68CD
:100A600003F0F84318461437BD465DF8047B704721
:100A700080B487B000AFF860B9607A60FB6860331B
:100A80001A46BB689B0013447B617B691B6823F09B
:100A900000427B681A437B691A6000BF1C37BD4661
:100AA0005DF8047B704780B487B000AFF860B96030
:100AB0007A60FB6860331A46BB689B0013447B6115
:100AC0007B691B6823F080727B681A437B691A601C
:100AD00000BF1C37BD465DF8047B704780B487B00B
:100AE00000AFF860B9607A60FB6860331A46BB6893
:100AF0009B0013447B617B691B6823F000727B6859
:100B00001A437B691A6000BF1C37BD465DF8047B41
:100B1000704780B483B000AF786039607B685B69F0
:100B200023F000423B681A437B685A6100BF0C37D0
:100B3000BD465DF8047B704780B483B000AF786039
:100B40007B68DB6803F44063002B01D1012300E0E4
:100B5000002318460C37BD465DF8047B704780B40F
:100B600087B000AFF860B9607A60FB6830331A462E
:100B7000BB681B0A9B0003F00C0313447B617B6979
:100B80001A68BB6803F01F031F2101FA03F3DB435C
:100B90001A407B689B0E03F01F01BB6803F01F0324
:100BA00001FA03F31A437B691A6000BF1C37BD4684
:100BB0005DF8047B704780B483B000AF78607B68D9
:100BC000DB6C03F4C073002B01D1012300E0002390
:100BD00018460C37BD465DF8047B704780B487B07B
:100BE00000AFF860B9607A60FB6814331A46BB68DE
:100BF0005B0E9B0003F0040313447B617B691A685E
:100C0000BB681B0D03F01F03072101FA03F3DB434D
:100C10001A40BB681B0D03F01F03796801FA03F348
:100C20001A437B691A6000BF1C37BD465DF8047B20
:100C30007047000080B485B000AFF860B9607A609A
:100C4000FB68D3F8B020BB68C3F31203DB431A4040
:100C50007B6803F018030849D940BB680B40C3F315
:100C600012031A43FB68C3F8B02000BF1437BD4617
:100C70005DF8047B704700BFFFFF070080B483B0BE
:100C800000AF78607B689B6803F01F0318460C3741
:100C9000BD465DF8047B704780B483B000AF7860D8
:100CA0007B689B6803F4604318460C37BD465DF8CB
:100CB000047B704780B483B000AF78607B689B682A
:100CC00023F0204323F03F037A68936000BF0C3782
:100CD000BD465DF8047B704780B483B000AF786098
:100CE0007B689B6803F00053B3F1005F01D10123DF
:100CF00000E0002318460C37BD465DF8047B7047C2
:100D000080B483B000AF78607B689B6823F01043A9
:100D100023F03F0343F080527B689A6000BF0C379A
:100D2000BD465DF8047B704780B483B000AF786047
:100D30007B689B6803F08053B3F1805F01D101238E
:100D400000E0002318460C37BD465DF8047B704771
:100D500080B483B000AF78607B689B6823F0004369
:100D600023F03F0343F001027B689A6000BF0C3719
:100D7000BD465DF8047B704780B483B000AF7860F7
:100D80007B689B6803F00103012B01D1012300E084
:100D9000002318460C37BD465DF8047B704780B4CD
:100DA00083B000AF78607B689B6823F0004323F03A
:100DB0003F0343F004027B689A6000BF0C37BD46D6
:100DC0005DF8047B704780B483B000AF78607B68C7
:100DD0009B6803F00403042B01D1012300E00023EE
:100DE00018460C37BD465DF8047B704780B483B06D
:100DF00000AF78607B689B6803F00803082B01D183
:100E0000012300E0002318460C37BD465DF8047B43
:100E10007047000090B589B000AF78600023FB7781
:100E20000023FB607B68002B01D10123A9E17B68D3
:100E30005B69002B7B68DB6D002B09D1786808F0BB
:100E40003BFB7B6800221A667B68002283F85820EF
:100E50007B681B681846FFF73FFF0346002B04D052
:100E60007B681B681846FFF725FF7B681B681846E0
:100E7000FFF75AFF0346002B15D17B681B68184605
:100E8000FFF73EFF9C4B1B689B099C4AA2FB032378
:100E90009B0901335B00FB6002E0FB68013BFB60E8
:100EA000FB68002BF9D17B681B681846FFF73CFFF5
:100EB0000346002B0DD17B68DB6D43F010027B688D
:100EC000DA657B681B6E43F001027B681A660123BA
:100ED000FB777B681B681846FFF775FF78617B68B6
:100EE000DB6D03F01003002B40F042817B69002B87
:100EF00040F03E817B68DB6D23F4817343F0020296
:100F00007B68DA657B681B681846FFF735FF034688
:100F1000002B41D17B681B68B3F1A04F04D07B68E4
:100F20001B68774A93420FD14FF0A040FFF724FF90
:100F300004467348FFF720FF03462343002B0CBFF2
:100F400001230023DBB212E06E48FFF715FF0446D1
:100F50006D48FFF711FF03461C436C48FFF70CFF79
:100F600003462343002B0CBF01230023DBB2002BDD
:100F700012D07B681B68B3F1A04F04D07B681B685C
:100F80005F4A934201D1624A00E0624A7B685B6833
:100F900019461046FFF7FEFC7B685B7F5A037B68AF
:100FA000DB6B1A437B68DB681A437B689B681A43D8
:100FB0007B6893F824301B041343BB617B6893F870
:100FC0002430012B06D17B689B6A013B5B04BA6924
:100FD0001343BB617B68DB6A002B09D07B68DB6A4B
:100FE00003F478727B681B6B1343BA691343BB61CC
:100FF0007B681B68DA68484B13407A681268B969E5
:101000000B43D3607B681B681B6923F040617B68DE
:101010005A6B7B681B680A431A617B681B68184619
:10102000FFF7E4FE38617B69002B7FD13B69002B21
:101030007CD17B681B7F9A037B6893F838305B0018
:101040001343BB617B681B68DB6823F4804323F098
:1010500002037A681268B9690B43D3607B681B6925
:10106000002B17D07B681B681A697B681B6842F4E9
:1010700080321A617B681B68D3F8C03023F47F5339
:1010800023F03F037A6811697A6812680B43C2F84B
:10109000C03013E07B681B681A697B681B6822F408
:1010A00080321A617B681B68D3F8C0307A68126896
:1010B00023F47F5323F03F03C2F8C0307B6893F8DA
:1010C0004030012B2AD17B681B681B6923F4FF6326
:1010D00023F004037A68516C7A68926C11437A6841
:1010E000D26C11437A68126D0A431A437B681B68FD
:1010F00042F001021A6119E000000020632D3E0554
:10110000000100500004005000050050000600508F
:1011100000030050000700500740F0FF7B681B6889
:101120001A697B681B6822F001021A617B685B699F
:10113000012B0CD17B681B681B6B23F00F017B68B4
:101140001B6A5A1E7B681B680A431A6307E07B68A8
:101150001B681A6B7B681B6822F00F021A637B689E
:10116000DB6D23F0030343F001027B68DA6507E0DF
:101170007B68DB6D43F010027B68DA650123FB7747
:10118000FB7F18462437BD4690BD00BF80B586B0B2
:1011900000AF78607B681B68B3F1A04F04D07B6818
:1011A0001B68674A934201D1664B00E0664B1846C4
:1011B000FFF764FD38617B681B681846FFF703FE84
:1011C0000346002B40F0B4807B6893F85830012B25
:1011D00001D10223AFE07B68012283F858207868B0
:1011E00001F0BAF80346FB75FB7D002B40F09B80B5
:1011F0007B68DB6D23F4706323F0010343F480729A
:101200007B68DA657B681B684D4A934209D07B682E
:101210001B684E4A934202D07B681B6803E04C4B2C
:1012200001E04FF0A0437A681268934202D03B6914
:10123000002B05D17B68DB6D23F480127B68DA65B7
:101240007B68DB6D03F48053B3F5805F06D17B6868
:101250001B6E23F006027B681A6602E07B680022A0
:101260001A667B681B681C221A607B68002283F860
:1012700058207B681B68324A934209D07B681B6800
:10128000324A934202D07B681B6803E0304B01E096
:101290004FF0A0437A681268934208D03B69002B54
:1012A00005D03B69052B02D03B69092B14D17B6823
:1012B0001B68DB6803F00073002B07D07B68DB6DD5
:1012C00023F4405343F480527B68DA657B681B68E3
:1012D0001846FFF764FD2DE07B68DB6D43F4801258
:1012E0007B68DA657B681B68154A934209D07B6886
:1012F0001B68164A934202D07B681B6803E0144BBC
:1013000001E04FF0A043FB60FB68DB6803F0007373
:10131000002B0FD07B68DB6D23F4405343F48052E5
:101320007B68DA6506E07B68002283F8582001E0DC
:101330000223FB75FB7D18461837BD4680BD00BFF4
:10134000000100500003005000070050000500504D
:101350000004005080B586B000AF78607B681B68E1
:10136000B3F1A04F04D07B681B68924A934201D12D
:10137000914B00E0914B1846FFF780FC38617B6889
:101380001B681846FFF71FFD0346002B40F0328113
:101390007B6893F85830012B01D102232DE17B6843
:1013A000012283F85820786800F0D6FF0346FB75C9
:1013B000FB7D002B40F019817B68DB6D23F47063AB
:1013C00023F0010343F480727B68DA657B681B6855
:1013D000784A934209D07B681B68794A934202D0CD
:1013E0007B681B6803E0774B01E04FF0A0437A680D
:1013F0001268934202D03B69002B05D17B68DB6DFC
:1014000023F480127B68DA657B68DB6D03F480531C
:10141000002B06D07B681B6E23F006027B681A66E1
:1014200002E07B6800221A667B681B681C221A6037
:101430007B68002283F858207B681B685A687B68A9
:101440001B6822F01C025A607B689B69082B08D13C
:101450007B681B685A687B681B6842F008025A6008
:1014600008E07B681B685A687B681B6842F00402CE
:101470005A6000BF7B68DB6B002B07D17B681B6861
:101480005A687B681B6842F010025A607B681B68D0
:10149000484A934209D07B681B68494A934202D06C
:1014A0007B681B6803E0474B01E04FF0A0437A687C
:1014B0001268934208D03B69002B05D03B69052B8D
:1014C00002D03B69092B3AD17B681B68DB6803F0CB
:1014D0000073002B2DD07B68DB6D23F4405343F465
:1014E00080527B68DA657B689B69082B10D17B682A
:1014F0001B685A687B681B6822F020025A607B6870
:101500001B685A687B681B6842F040025A6010E012
:101510007B681B685A687B681B6822F040025A602F
:101520007B681B685A687B681B6842F020025A601F
:1015300000BF7B681B681846FFF731FC5CE07B68E6
:10154000DB6D43F480127B68DA657B681B68194A9F
:10155000934209D07B681B68194A934202D07B688A
:101560001B6803E0174B01E04FF0A043FB60FB68F2
:10157000DB6803F00073002B3ED07B68DB6D23F447
:10158000405343F480527B68DA657B689B69082B83
:101590001AD17B681B685A687B681B6822F020029E
:1015A0005A607B681B685A687B681B6842F040027F
:1015B0005A6021E000010050000300500007005075
:1015C00000050050000400507B681B685A687B6867
:1015D0001B6822F040025A607B681B685A687B686F
:1015E0001B6842F020025A6006E07B68002283F804
:1015F000582001E00223FB75FB7D18461837BD46D5
:1016000080BD00BF80B58AB000AF786000237B62E8
:101610007B681B681B68FB617B681B685B68BB6140
:101620007B681B68B3F1A04F04D07B681B688E4AAF
:10163000934201D18D4B00E08D4B1846FFF71EFB06
:101640007861FB6903F00203002B17D0BB6903F03C
:101650000203002B12D07B68DB6D03F01003002B1C
:1016600005D17B68DB6D43F400627B68DA657868DE
:1016700000F056FF7B681B6802221A60FB6903F0CA
:101680000403002B04D0BB6903F00403002B0BD12F
:10169000FB6903F00803002B00F09480BB6903F0A2
:1016A0000803002B00F08E807B68DB6D03F01003D5
:1016B000002B05D17B68DB6D43F400727B68DA6533
:1016C0007B681B681846FFF737FA0346002B72D079
:1016D0007B681B68644A934209D07B681B68654A33
:1016E000934202D07B681B6803E0634B01E04FF03C
:1016F000A0437A681268934208D07B69002B05D01A
:101700007B69052B02D07B69092B04D17B681B68A0
:10171000DB683B6214E07B681B68534A934209D044
:101720007B681B68534A934202D07B681B6803E0C6
:10173000514B01E04FF0A0433B613B69DB683B62EA
:101740003B6A03F40053002B35D17B681B681B6890
:1017500003F00803082B2ED17B681B681846FFF79F
:1017600032FB0346002B1AD17B681B685A687B68E2
:101770001B6822F00C025A607B68DB6D23F48072D8
:101780007B68DA657B68DB6D03F48053002B12D134
:101790007B68DB6D43F001027B68DA650BE07B68F8
:1017A000DB6D43F010027B68DA657B681B6E43F0EB
:1017B00001027B681A6678680BF03EFC7B681B6848
:1017C0000C221A60FB6903F02003002B04D0BB69D4
:1017D00003F02003002B0BD1FB6903F04003002B27
:1017E00000F0B380BB6903F04003002B00F0AD8034
:1017F0007B68DB6D03F01003002B05D17B68DB6D8C
:1018000043F400527B68DA657B681B681846FFF773
:10181000D2F9F8607B681B681846FFF78DF9B8604D
:101820007B681B68104A934209D07B681B68114A89
:10183000934202D07B681B6803E00F4B01E04FF03E
:10184000A0437A681268934208D07B69002B05D0C8
:101850007B69062B02D07B69072B0FD17B681B6845
:10186000DB683B621FE000BF000100500003005036
:101870000007005000050050000400507B681B6802
:101880008B4A934209D07B681B688A4A934202D0F4
:101890007B681B6803E0884B01E04FF0A0433B618D
:1018A0003B69DB683B62FB68002B47D03B6A03F077
:1018B0000073002B07D0BB68002B3FD03B6A03F4BA
:1018C0000053002B3AD17B681B681B6803F0400370
:1018D000402B33D13B6A03F40013002B2ED17B68DD
:1018E0001B681846FFF782FA0346002B1AD17B6863
:1018F0001B685A687B681B6822F060025A607B682C
:10190000DB6D23F480527B68DA657B68DB6D03F462
:101910008073002B12D17B68DB6D43F001027B6882
:10192000DA650BE07B68DB6D43F010027B68DA65FB
:101930007B681B6E43F001027B681A66786800F0D2
:10194000C7FD7B681B6860221A60FB6903F0800397
:10195000002B11D0BB6903F08003002B0CD07B68F7
:10196000DB6D43F480327B68DA65786800F0AAF8B2
:101970007B681B6880221A60FB6903F48073002B6C
:1019800012D0BB6903F48073002B0DD07B68DB6D34
:1019900043F400327B68DA65786800F0ADFD7B685F
:1019A0001B684FF480721A60FB6903F40073002B0C
:1019B00012D0BB6903F40073002B0DD07B68DB6D84
:1019C00043F480227B68DA65786800F09FFD7B68CD
:1019D0001B684FF400721A60FB6903F01003002BC0
:1019E00043D0BB6903F01003002B3ED07B68DB6B58
:1019F000002B02D101237B6221E07B69002B15D0F3
:101A00007B681B68B3F1A04F04D07B681B68284A31
:101A1000934201D1294B00E0294B1846FFF73CF9CE
:101A20000346002B0BD001237B6208E07B681B6818
:101A3000DB6803F00103002B01D001237B627B6A8A
:101A4000012B0ED17B68DB6D43F480627B68DA6525
:101A50007B681B6E43F002027B681A6678680BF0A5
:101A600085FD7B681B6810221A60FB6903F48063A4
:101A7000002B18D0BB6903F48063002B13D07B6864
:101A8000DB6D43F480427B68DA657B681B6E43F054
:101A900008027B681A667B681B684FF480621A60D4
:101AA000786800F01FFD00BF2837BD4680BD00BF2D
:101AB00000010050000500500004005000030050D9
:101AC0000007005080B483B000AF786000BF0C37CF
:101AD000BD465DF8047B704780B5B6B000AF786056
:101AE0003960002387F8D7300023FB607B6893F8C8
:101AF0005830012B02D1022300F013BC7B68012275
:101B000083F858207B681B681846FFF75CF903468A
:101B1000002B40F0F3837B6818683B6859683B688A
:101B20001B681A46FFF71BF87B681B681846FFF70F
:101B30004AF9C7F8D0007B681B681846FFF756F9CA
:101B4000C7F8CC00D7F8D030002B40F0D981D7F8B7
:101B5000CC30002B40F0D4813B689B68B3F1004F40
:101B60000FD17B6818683B681B6800221946FFF795
:101B700035F87B681B684FF000411846FEF7C9FF37
:101B80000EE07B6818683B6819683B689B681A46DA
:101B9000FFF724F87B681B6800211846FEF7B9FFA1
:101BA0003B685A697B681B68DB68DB0803F003034A
:101BB0005B0002FA03F3C7F8C8303B681B69042BCB
:101BC00022D07B6818683B6819693B681A68D7F8A7
:101BD000C830FEF713FF7B6818683B6819693B68DB
:101BE0009B691A46FEF75FFF7B6818683B681969B6
:101BF0003B681B7F012B02D14FF0007300E00023F4
:101C00001A46FEF76BFF7BE17B681B6800211846D4
:101C1000FEF718FF0346C3F31203002B0AD17B68BB
:101C20001B6800211846FEF70DFF03469B0E03F0CC
:101C30001F021EE07B681B6800211846FEF702FFAA
:101C40000346C7F8BC30D7F8BC3093FAA3F3C7F803
:101C5000C030D7F8C030C7F8B830D7F8B830002B4C
:101C600001D1202304E0D7F8B830B3FA83F3DBB214
:101C70001A463B681B68C3F31203002B05D13B686F
:101C80001B689B0E03F01F0318E03B681B68C7F836
:101C9000B030D7F8B03093FAA3F3C7F8AC30D7F828
:101CA000AC30C7F8B430D7F8B430002B01D12023C2
:101CB00004E0D7F8B430B3FA83F3DBB29A4206D12A
:101CC0007B681B68002200211846FEF7D1FE7B6866
:101CD0001B6801211846FEF7B5FE0346C3F3120345
:101CE000002B0AD17B681B6801211846FEF7AAFE6B
:101CF00003469B0E03F01F021EE07B681B68012158
:101D00001846FEF79FFE0346C7F8A430D7F8A43064
:101D100093FAA3F3C7F8A030D7F8A030C7F8A830DB
:101D2000D7F8A830002B01D1202304E0D7F8A83041
:101D3000B3FA83F3DBB21A463B681B68C3F31203A2
:101D4000002B05D13B681B689B0E03F01F0318E0B6
:101D50003B681B68C7F89830D7F8983093FAA3F31C
:101D6000C7F89430D7F89430C7F89C30D7F89C3037
:101D7000002B01D1202304E0D7F89C30B3FA83F381
:101D8000DBB29A4206D17B681B680022012118460B
:101D9000FEF76EFE7B681B6802211846FEF752FEB6
:101DA0000346C3F31203002B0AD17B681B68022190
:101DB0001846FEF747FE03469B0E03F01F021EE087
:101DC0007B681B6802211846FEF73CFE0346C7F8F5
:101DD0008C30D7F88C3093FAA3F3C7F88830D7F853
:101DE0008830C7F89030D7F89030002B01D12023ED
:101DF00004E0D7F89030B3FA83F3DBB21A463B68BD
:101E00001B68C3F31203002B05D13B681B689B0EB4
:101E100003F01F0316E03B681B68C7F88030D7F853
:101E2000803093FAA3F3FB67FB6FC7F88430D7F8D1
:101E30008430002B01D1202304E0D7F88430B3FA9A
:101E400083F3DBB29A4206D17B681B680022022131
:101E50001846FEF70DFE7B681B6803211846FEF747
:101E6000F1FD0346C3F31203002B0AD17B681B6804
:101E700003211846FEF7E6FD03469B0E03F01F0202
:101E800017E07B681B6803211846FEF7DBFD03465D
:101E90007B677B6F93FAA3F33B673B6FBB67BB6FBB
:101EA000002B01D1202303E0BB6FB3FA83F3DBB235
:101EB0001A463B681B68C3F31203002B05D13B682D
:101EC0001B689B0E03F01F0311E03B681B68BB6699
:101ED000BB6E93FAA3F37B667B6EFB66FB6E002BF7
:101EE00001D1202303E0FB6EB3FA83F3DBB29A4205
:101EF00006D17B681B68002203211846FEF7B8FD57
:101F00007B681B681846FEF737FF0346002B40F03E
:101F10003D817B6818683B6819683B68DB681A4636
:101F2000FEF788FE3B68DB68A24A934240F02E81B0
:101F30007B6818683B681B68C3F31203002B0BD146
:101F40003B681B689B0E013303F01F03092B94BFF2
:101F500001230023DBB219E03B681B68FB65FB6DC6
:101F600093FAA3F3BB65BB6D3B663B6E002B01D1BF
:101F7000202303E03B6EB3FA83F3DBB2013303F0BB
:101F80001F03092B94BF01230023DBB2002B79D060
:101F90003B681B68C3F31203002B07D13B681B6827
:101FA0009B0E01339B0603F0F84215E03B681B686B
:101FB0003B653B6D93FAA3F3FB64FB6C7B657B6D28
:101FC000002B01D1202303E07B6DB3FA83F3DBB256
:101FD00001339B0603F0F8423B681B68C3F312030E
:101FE000002B09D13B681B689B0E013303F01F03D4
:101FF000012101FA03F317E03B681B687B647B6CEB
:1020000093FAA3F33B643B6CBB64BB6C002B01D124
:10201000202303E0BB6CB3FA83F3DBB2013303F09C
:102020001F03012101FA03F342EA03013B681B6825
:10203000C3F31203002B0AD13B681B689B0E0133CC
:1020400003F01F0213465B0013441B0518E03B68B6
:102050001B68BB63BB6B93FAA3F37B637B6BFB6374
:10206000FB6B002B01D1202303E0FB6BB3FA83F35E
:10207000DBB2013303F01F0213465B0013441B0560
:102080000B437EE03B681B68C3F31203002B07D1B0
:102090003B681B689B0E01339B0603F0F84215E07A
:1020A0003B681B68FB62FB6A93FAA3F3BB62BB6AE3
:1020B0003B633B6B002B01D1202303E03B6BB3FA66
:1020C00083F3DBB201339B0603F0F8423B681B68E5
:1020D000C3F31203002B09D13B681B689B0E01332D
:1020E00003F01F03012101FA03F317E03B681B68AB
:1020F0003B623B6A93FAA3F3FB61FB697B627B6AF9
:10210000002B01D1202303E07B6AB3FA83F3DBB217
:10211000013303F01F03012101FA03F342EA030133
:102120003B681B68C3F31203002B0DD13B681B688F
:102130009B0E013303F01F0213465B0013441E3B4A
:102140001B0543F000731BE03B681B687B617B69E8
:1021500093FAA3F33B613B69BB61BB69002B01D1DF
:10216000202303E0BB69B3FA83F3DBB2013303F04E
:102170001F0213465B0013441E3B1B0543F0007314
:102180000B433A6892681946FEF728FD3B681A68C7
:10219000094B1340002B00F0BE807B681B68B3F135
:1021A000A04F04D07B681B68044A93420AD1044BB9
:1021B00009E000BF00007F400000088000010050DF
:1021C00000030050594B1846FEF70AFCC7F8C4003C
:1021D0003B681B68564A934204D03B681B68554ACB
:1021E00093423AD1D7F8C43003F40003002B34D122
:1021F0007B681B68B3F1A04F05D07B681B684E4A13
:10220000934240F085807B681B68B3F1A04F04D0F7
:102210007B681B68494A934201D1494A00E0434A1E
:10222000D7F8C43043F4000319461046FEF7C5FB47
:10223000444B1B689B09444AA2FB03239B095A1C7D
:1022400013465B0013449B00FB6002E0FB68013B0C
:10225000FB60FB68002BF9D15AE03B681B683B4AE6
:10226000934225D1D7F8C43003F08073002B1FD1DF
:102270007B681B68314A93424CD07B681B68344AA8
:10228000934247D07B681B68B3F1A04F04D07B68B2
:102290001B682A4A934201D1294A00E0234AD7F811
:1022A000C43043F0807319461046FEF786FB31E0D8
:1022B0003B681B68274A93422DD1D7F8C43003F4FA
:1022C0008003002B27D17B681B681C4A934222D0D5
:1022D0007B681B68B3F1A04F04D07B681B68174A6A
:1022E000934201D1164A00E0104AD7F8C43043F4B3
:1022F000800319461046FEF760FB0CE07B68DB6D3F
:1023000043F020027B68DA65012387F8D73002E0CA
:1023100000BF00E000BF7B68002283F8582097F8D8
:10232000D7301846D837BD4680BD00BF00070050E3
:10233000000021C31000C0900006005000010050B2
:102340000003005000000020632D3E05000052C72E
:1023500000050050000084CB80B584B000AF7860E9
:102360000023BB607B681B681846FEF705FD03462B
:10237000002B76D17B681B689A683C4B1340002B7E
:102380000DD07B68DB6D43F010027B68DA657B68FB
:102390001B6E43F001027B681A66012362E07B68D2
:1023A0001B681846FEF7D4FC7B681B68B3F1A04F8E
:1023B00004D07B681B682E4A934201D12D4B00E06C
:1023C0002D4B1846FEF70CFB034603F40003002BCD
:1023D00013D02A4B1B689B09294AA2FB03239B09A4
:1023E0005A1C13465B0013449B00BB6002E0BB68B1
:1023F000013BBB60BB68002BF9D100F007FAF86025
:1024000028E07B681B681846FEF7B6FC0346002BE5
:1024100004D17B681B681846FEF79AFC00F0F6F9B9
:102420000246FB68D31A022B14D97B681B681B6811
:1024300003F00103012B0DD07B68DB6D43F010022C
:102440007B68DA657B681B6E43F001027B681A6665
:10245000012307E07B681B681B6803F00103012B65
:10246000CFD1002318461037BD4680BD3F00008005
:102470000001005000030050000700500000002041
:10248000632D3E0580B483B000AF78607B689B68A5
:1024900003F00103012B01D1012300E000231846C2
:1024A0000C37BD465DF8047B704780B483B000AF45
:1024B00078607B689B6803F00403042B01D101233F
:1024C00000E0002318460C37BD465DF8047B7047DA
:1024D00080B483B000AF786000BF0C37BD465DF8B4
:1024E000047B704780B483B000AF786000BF0C37C6
:1024F000BD465DF8047B704780B483B000AF786060
:1025000000BF0C37BD465DF8047B704780B483B0D4
:1025100000AF786000BF0C37BD465DF8047B7047A4
:1025200080B483B000AF786000BF0C37BD465DF863
:10253000047B704790B5A1B000AF7860396000238C
:1025400087F87F307B6893F85830012B01D1022344
:10255000E7E07B68012283F8582000237B66002394
:10256000BB667B681B68B3F1A04F02D16F4BBB60A9
:1025700009E07B681B686E4A934202D16D4BBB60D9
:1025800001E00023BB60BB68002B0BD17B68DB6DD7
:1025900043F020027B68DA657B68002283F85820CC
:1025A0000123BEE0BB681846FFF77FFFB8677B6872
:1025B0001B681846FFF779FF0346002B40F0A08008
:1025C000BB6F002B40F09C807B681B68B3F1A04F71
:1025D00004D07B681B68554A934201D1564B00E0FA
:1025E000564B7B673B681B68002B4BD07B6F9B680F
:1025F00023F460423B6859687B6893F838305B038A
:102600000B431A437B6F9A607B681B68B3F1A04F42
:1026100004D07B681B68454A93420FD14FF0A0401D
:10262000FFF730FF04464148FFF72CFF03462343E2
:10263000002B0CBF01230023DBB212E03C48FFF764
:1026400021FF04463B48FFF71DFF03461C433C485F
:10265000FFF718FF03462343002B0CBF0123002381
:10266000DBB2002B56D07B6F9B6823F4716323F0A1
:102670000F033A6811683A6892680A431A437B6FFD
:102680009A6047E07B6F9B6823F460427B6F9A609F
:102690007B681B68B3F1A04F04D07B681B68234A9A
:1026A00093420FD14FF0A040FFF7ECFE04461F48C5
:1026B000FFF7E8FE03462343002B0CBF0123002352
:1026C000DBB212E01A48FFF7DDFE04461948FFF7B7
:1026D000D9FE03461C431A48FFF7D4FE03462343A2
:1026E000002B0CBF01230023DBB2002B12D07B6F29
:1026F0009B6823F4716323F00F037A6F936009E002
:102700007B68DB6D43F020027B68DA65012387F884
:102710007F3000E000BF7B68002283F8582097F8E4
:102720007F3018468437BD4690BD00BF0001005081
:102730000004005000050050000300500007005046
:102740000006005080B582B000AF0023FB7103206B
:1027500001F03AFE032000F00DF80346002B02D0F2
:102760000123FB7101E007F033FBFB7918460837C2
:10277000BD4680BD80B584B000AF78600023FB7398
:10278000164B1B68002B22D0154B1A68134B1B6885
:102790004FF47A71B1FBF3F3B2FBF3F3184601F097
:1027A00046FE0346002B0FD17B680F2B09D8002271
:1027B00079684FF0FF3001F012FE0A4A7B6813601F
:1027C00007E00123FB7304E00123FB7301E0012315
:1027D000FB73FB7B18461037BD4680BD0800002008
:1027E000000000200400002080B400AF054B1A68F0
:1027F000054B1B681344034A136000BFBD465DF8D8
:10280000047B7047B40100200800002080B400AFB2
:10281000034B1B681846BD465DF8047B704700BF3C
:10282000B401002080B584B000AF7860FFF7EEFF00
:10283000B8607B68FB60FB68B3F1FF3F04D0094BD5
:102840001B68FA681344FB6000BFFFF7DFFF024616
:10285000BB68D31AFA689A42F7D800BF00BF103796
:10286000BD4680BD0800002080B588B000AF78600C
:102870007B68002B01D10123FEE27B681B6803F01B
:102880000103002B75D0974B9B6803F00C03BB61D1
:10289000944BDB6803F003037B61BB690C2B02D113
:1028A0007B69032B02D0BB69082B0BD18D4B1B68B6
:1028B00003F40033002B5BD07B685B68002B57D19F
:1028C0000123D9E27B685B68B3F5803F06D1854B75
:1028D0001B68844A43F4803313601DE07B685B68A7
:1028E000B3F5A02F0CD17F4B1B687E4A43F48023A5
:1028F00013607C4B1B687B4A43F4803313600BE00E
:10290000784B1B68774A23F480331360754B1B6840
:10291000744A23F4802313607B685B68002B13D018
:10292000FFF774FF386108E0FFF770FF02463B696C
:10293000D31A642B01D903239EE26A4B1B6803F46C
:102940000033002BF0D014E0FFF760FF386108E09F
:10295000FFF75CFF02463B69D31A642B01D90323BE
:102960008AE2604B1B6803F40033002BF0D100E0D7
:1029700000BF7B681B6803F00203002B75D0594B26
:102980009B6803F00C03BB61564BDB6803F0030349
:102990007B61BB690C2B02D17B69022B02D0BB6926
:1029A000042B1FD14F4B1B6803F48063002B05D011
:1029B0007B68DB68002B01D101235DE2494B5B683A
:1029C00023F0FE427B681B691B06464913434B609C
:1029D000454B1B681846FFF7CDFE0346002B43D03E
:1029E000012349E27B68DB68002B23D03D4B1B6849
:1029F0003C4A43F480731360FFF708FF386108E036
:102A0000FFF704FF02463B69D31A022B01D90323C7
:102A100032E2344B1B6803F48063002BF0D0314B5F
:102A20005B6823F0FE427B681B691B062D4913433C
:102A30004B601AE02B4B1B682A4A23F48073136007
:102A4000FFF7E4FE386108E0FFF7E0FE02463B696D
:102A5000D31A022B01D903230EE2224B1B6803F485
:102A60008063002BF0D100E000BF7B681B6803F09F
:102A70000803002B41D07B685B69002B1CD0194BED
:102A8000D3F89430174A43F00103C2F89430FFF7AB
:102A9000BDFE386108E0FFF7B9FE02463B69D31A74
:102AA000022B01D90323E7E10E4BD3F8943003F056
:102AB0000203002BEFD020E00A4BD3F89430094AF0
:102AC00023F00103C2F89430FFF7A0FE38610DE057
:102AD000FFF79CFE02463B69D31A022B06D903235B
:102AE000CAE100BF00100240040000208C4BD3F864
:102AF000943003F00203002BEAD17B681B6803F0DB
:102B00000403002B00F0A6800023FB77844B9B6D11
:102B100003F08053002B01D1012300E00023002BA0
:102B20000DD07F4B9B6D7E4A43F0805393657C4B69
:102B30009B6D03F08053FB60FB680123FB77794BAF
:102B40001B6803F48073002B18D1764B1B68754A01
:102B500043F480731360FFF759FE386108E0FFF714
:102B600055FE02463B69D31A022B01D9032383E1A8
:102B70006C4B1B6803F48073002BF0D07B689B6860
:102B8000012B08D1664BD3F89030654A43F001031E
:102B9000C2F8903024E07B689B68052B10D1604B15
:102BA000D3F890305E4A43F00403C2F890305C4B97
:102BB000D3F890305A4A43F00103C2F890300FE046
:102BC000574BD3F89030564A23F00103C2F89030A7
:102BD000534BD3F89030524A23F00403C2F890309C
:102BE0007B689B68002B16D0FFF710FE38610AE067
:102BF000FFF70CFE02463B69D31A41F2883293423A
:102C000001D9032338E1464BD3F8903003F0020397
:102C1000002BEDD015E0FFF7F9FD38610AE0FFF772
:102C2000F5FD02463B69D31A41F28832934201D93D
:102C3000032321E13A4BD3F8903003F00203002B39
:102C4000EDD1FB7F012B05D1354B9B6D344A23F031
:102C5000805393657B681B6803F02003002B3CD0F6
:102C60007B689B69002B1CD02D4BD3F898302C4AE5
:102C700043F00103C2F89830FFF7C8FD386108E05F
:102C8000FFF7C4FD02463B69D31A022B01D9032387
:102C9000F2E0234BD3F8983003F00203002BEFD07F
:102CA0001BE01F4BD3F898301D4A23F00103C2F8F4
:102CB0009830FFF7ABFD386108E0FFF7A7FD02464B
:102CC0003B69D31A022B01D90323D5E0144BD3F867
:102CD000983003F00203002BEFD17B68DB69002BF7
:102CE00000F0C9800E4B9B6803F00C030C2B00F026
:102CF00083807B68DB69022B5ED1094B1B68084A25
:102D000023F080731360FFF781FD38610CE0FFF75B
:102D10007DFD02463B69D31A022B05D90323ABE0A4
:102D20000010024000700040554B1B6803F0007318
:102D3000002BECD1524BDA68524B13407A68116A7F
:102D40007A68526A013A120111437A68926A120251
:102D500011437A68126B5208013A520511437A689E
:102D6000526B5208013A520611437A68D26AD2066F
:102D70000A4343491343CB60414B1B68404A43F02D
:102D8000807313603E4BDB683D4A43F08073D36031
:102D9000FFF73CFD386108E0FFF738FD02463B696C
:102DA000D31A022B01D9032366E0354B1B6803F0CD
:102DB0000073002BF0D05EE0314B1B68304A23F0EB
:102DC00080731360FFF722FD386108E0FFF71EFDF6
:102DD00002463B69D31A022B01D903234CE0284B4E
:102DE0001B6803F00073002BF0D1254BDA682449EF
:102DF000254B1340CB603EE07B68DB69012B01D1A2
:102E0000012339E01E4BDB687B617B6903F0030221
:102E10007B681B6A9A422CD17B6903F0F0027B68C5
:102E20005B6A013B1B019A4223D17B6903F4FE429A
:102E30007B689B6A1B029A421BD17B6903F0784234
:102E40007B68DB6ADB069A4213D17B6903F4C0021C
:102E50007B681B6B5B08013B5B059A4209D17B6970
:102E600003F0C0627B685B6B5B08013B5B069A42C8
:102E700001D0012300E0002318462037BD4680BD65
:102E8000001002400C809F01FCFFEEFE80B586B072
:102E900000AF7860396000237B617B68002B01D133
:102EA00001231EE1914B1B6803F00F033A689A421D
:102EB00010D98E4B1B6823F00F028C493B681343DB
:102EC0000B608A4B1B6803F00F033A689A4201D0EB
:102ED000012306E17B681B6803F00103002B73D01C
:102EE0007B685B68032B29D1814B1B6803F000735F
:102EF000002B01D10123F4E000F09EF938613B6919
:102F00007C4A93423FD97A4B9B6803F0F003002B35
:102F100009D07B681B6803F00203002B33D07B6869
:102F20009B68002B2FD1724B9B6823F0F003704AF3
:102F300043F08003936080237B6124E07B685B68BF
:102F4000022B07D16A4B1B6803F40033002B09D115
:102F50000123C6E0664B1B6803F48063002B01D19C
:102F60000123BEE000F0CEF838613B69614A93422C
:102F700009D95F4B9B6823F0F0035D4A43F080035F
:102F8000936080237B615A4B9B6823F003027B682C
:102F90005B68574913438B60FFF738FCF8600AE021
:102FA000FFF734FC0246FB68D31A41F288329342A1
:102FB00001D9032395E04E4B9B6803F00C027B681C
:102FC0005B689B009A42EBD17B681B6803F00203AD
:102FD000002B23D07B681B6803F00403002B05D073
:102FE000434B9B68424A43F4E06393607B681B68F1
:102FF00003F00803002B07D03D4B9B6823F47C5360
:103000003B4A43F4E0639360394B9B6823F0F00242
:103010007B689B68364913438B6008E07B69802B93
:1030200005D1334B9B68324A23F0F00393602F4B5A
:103030001B6803F00F033A689A421DD22B4B1B68A2
:1030400023F00F0229493B6813430B60FFF7DEFBB7
:10305000F8600AE0FFF7DAFB0246FB68D31A41F298
:103060008832934201D903233BE0204B1B6803F0D5
:103070000F033A689A42EDD17B681B6803F00403A2
:10308000002B08D01A4B9B6823F4E0627B68DB6856
:10309000174913438B607B681B6803F00803002B00
:1030A00009D0134B9B6823F460527B681B69DB00DB
:1030B0000F4913438B6000F025F802460C4B9B68C8
:1030C0001B0903F00F030C49CB5C03F01F0322FA2A
:1030D00003F30A4A13600A4B1B681846FFF74AFBC2
:1030E000034618461837BD4680BD00BF0020024089
:1030F0000010024000B4C40458F70008000000208B
:103100000400002080B487B000AF2C4B9B6803F014
:103110000C03042B02D12A4B3B6147E0274B9B68F1
:1031200003F00C03082B02D1264B3B613EE0234BFE
:103130009B6803F00C030C2B36D1204BDB6803F0AB
:103140000303FB601D4BDB681B0903F00F03013316
:10315000BB60FB68032B0CD11A4ABB68B2FBF3F3CC
:10316000164AD268120A02F07F0202FB03F37B6167
:103170000CE0134ABB68B2FBF3F3104AD268120AA0
:1031800002F07F0202FB03F37B6100BF0B4BDB68A5
:103190005B0E03F0030301335B007B607A697B689D
:1031A000B2FBF3F33B6101E000233B613B6918464E
:1031B0001C37BD465DF8047B704700BF001002401D
:1031C0000024F400002D310180B400AF034B1B68D4
:1031D0001846BD465DF8047B704700BF0000002024
:1031E00080B500AFFFF7F0FF0246064B9B681B0A55
:1031F00003F007030449CB5C03F01F0322FA03F337
:10320000184680BD0010024068F7000880B500AF86
:10321000FFF7DAFF0246064B9B68DB0A03F0070361
:103220000449CB5C03F01F0322FA03F3184680BD68
:103230000010024068F7000880B487B000AF1E4B52
:10324000DB6803F003033B611B4BDB681B0903F0E6
:103250000F030133FB603B69032B0CD1174AFB685A
:10326000B2FBF3F3144AD268120A02F07F0202FBA7
:1032700003F37B610CE0124AFB68B2FBF3F30E4AE6
:10328000D268120A02F07F0202FB03F37B6100BFE7
:10329000094BDB685B0E03F0030301335B00BB608B
:1032A0007A69BB68B2FBF3F37B607B6818461C3716
:1032B000BD465DF8047B704700100240002D3101CF
:1032C0000024F40080B586B000AF78600023FB7462
:1032D0000023BB747B681B6803F40023002B00F001
:1032E000988000237B74434B9B6D03F08053002B2D
:1032F0000DD1404B9B6D3F4A43F0805393653D4B4E
:103300009B6D03F08053BB60BB6801237B743A4B19
:103310001B68394A43F480731360FFF777FAF8604B
:1033200009E0FFF773FA0246FB68D31A022B02D9B1
:103330000323FB7405E0304B1B6803F48073002B00
:10334000EFD0FB7C002B59D12A4BD3F8903003F4FB
:1033500040737B617B69002B1ED07B681B6D7A6993
:103360009A4219D0234BD3F8903023F440737B61F9
:10337000204BD3F890301F4A43F48033C2F890308A
:103380001C4BD3F890301B4A23F48033C2F89030A2
:10339000184A7B69C2F890307B6903F00103002B67
:1033A00016D0FFF733FAF8600BE0FFF72FFA02466A
:1033B000FB68D31A41F28832934202D90323FB748B
:1033C00006E00C4BD3F8903003F00203002BECD056
:1033D000FB7C002B0BD1074BD3F8903023F44072C9
:1033E0007B681B6D03491343C1F8903008E0FB7CF8
:1033F000BB7405E00010024000700040FB7CBB7411
:103400007B7C012B05D1A74B9B6DA64A23F08053F3
:1034100093657B681B6803F00103002B0AD0A14B66
:10342000D3F8883023F003027B685B689D4913431F
:10343000C1F888307B681B6803F00203002B0AD0B8
:10344000984BD3F8883023F00C027B689B68954931
:103450001343C1F888307B681B6803F00403002B1A
:103460000AD0904BD3F8883023F030027B68DB68B9
:103470008C491343C1F888307B681B6803F008034C
:10348000002B0AD0874BD3F8883023F0C0027B682A
:103490001B6984491343C1F888307B681B6803F0BB
:1034A0001003002B0AD07F4BD3F8883023F44072EE
:1034B0007B685B697B491343C1F888307B681B6874
:1034C00003F02003002B0AD0764BD3F8883023F486
:1034D00040627B689B6973491343C1F888307B68FD
:1034E0001B6803F04003002B0AD06E4BD3F88830E2
:1034F00023F440527B68DB696A491343C1F8883082
:103500007B681B6803F08003002B0AD0654BD3F85F
:10351000883023F440427B681B6A62491343C1F838
:1035200088307B681B6803F48073002B0AD05D4BE6
:10353000D3F8883023F440327B685B6A59491343DF
:10354000C1F888307B681B6803F40033002B0AD075
:10355000544BD3F89C3023F003027B689B6A51499B
:103560001343C1F89C307B681B6803F40073002B85
:103570000AD04C4BD3F8883023F440227B68DB6AB6
:1035800048491343C1F888307B681B6803F48063A3
:10359000002B15D0434BD3F8883023F440127B68BE
:1035A0001B6B40491343C1F888307B681B6BB3F534
:1035B000801F05D13B4BDB683A4A43F48013D3604C
:1035C0007B681B6803F40063002B15D0354BD3F8E0
:1035D000883023F440027B685B6B32491343C1F8A7
:1035E00088307B685B6BB3F5800F05D12D4BDB68B2
:1035F0002C4A43F48013D3607B681B6803F4805328
:10360000002B15D0274BD3F8883023F040727B680D
:103610009B6B24491343C1F888307B689B6BB3F1E3
:10362000807F05D11F4BDB681E4A43F48013D360B3
:103630007B681B6803F40053002B15D0194BD3F89B
:10364000883023F040627B68DB6B16491343C1F876
:1036500088307B68DB6BB3F1006F05D1114BDB6801
:10366000104A43F48013D3607B681B6803F48043E3
:10367000002B19D00B4BD3F8883023F040627B68C5
:103680001B6C08491343C1F888307B681B6CB3F18D
:10369000006F09D1034BDB68024A43F48013D36007
:1036A00002E000BF001002407B681B6803F4004387
:1036B000002B15D0294BD3F8883023F040527B687B
:1036C0005B6C26491343C1F888307B685B6CB3F1AF
:1036D000805F05D1214BDB68204A43F48033D360FF
:1036E0007B681B6803F48033002B15D01B4BD3F889
:1036F000883023F040427B689B6C18491343C1F823
:1037000088307B689B6CB3F1804F05D1134BDB682D
:10371000124A43F48033D3607B681B6803F4802330
:10372000002B15D00D4BD3F89C3023F440127B684E
:10373000DB6C0A491343C1F89C307B68DB6CB3F542
:10374000001F05D1054BDB68044A43F48013D360A6
:10375000BB7C18461837BD4680BD00BF0010024034
:1037600080B487B000AF7860396000237B6164E18A
:103770003B681A6801217B6901FA03F31340FB607F
:10378000FB68002B00F056813B685B6803F0030385
:10379000012B05D03B685B6803F00303022B30D19B
:1037A0007B689B683B617B695B00032202FA03F341
:1037B000DB433A6913403B613B68DA687B695B0035
:1037C00002FA03F33A6913433B617B683A699A60F2
:1037D0007B685B683B6101227B6902FA03F3DB4390
:1037E0003A6913403B613B685B681B0903F00102C7
:1037F0007B6902FA03F33A6913433B617B683A69D8
:103800005A603B685B6803F00303032B09D13B68F4
:103810005B6803F00303032B1BD13B689B68012B00
:1038200017D07B68DB683B617B695B00032202FA8F
:1038300003F3DB433A6913403B613B689A687B6959
:103840005B0002FA03F33A6913433B617B683A6910
:10385000DA603B685B6803F00303022B23D17B69CA
:10386000DA087B68083253F822303B617B6903F049
:1038700007039B000F2202FA03F3DB433A6913406C
:103880003B613B681A697B6903F007039B0002FAFE
:1038900003F33A6913433B617B69DA087B680832BA
:1038A000396943F822107B681B683B617B695B00C8
:1038B000032202FA03F3DB433A6913403B613B689E
:1038C0005B6803F003027B695B0002FA03F33A6969
:1038D00013433B617B683A691A603B685B6803F499
:1038E0004033002B00F0A6805B4B1B6E5A4A43F01E
:1038F00001031366584B1B6E03F00103BB60BB68EA
:10390000564A7B699B08023352F823303B617B693E
:1039100003F003039B000F2202FA03F3DB433A692F
:1039200013403B617B68B3F1904F1FD07B684C4ADA
:10393000934219D07B684B4A934213D07B684A4A22
:1039400093420DD07B68494A934207D07B68484A2E
:10395000934201D105230AE0062308E0042306E090
:10396000032304E0022302E0012300E000237A693C
:1039700002F00302920093403A6913433B613749D6
:103980007B699B0802333A6941F82320394B9B68D5
:103990003B61FB68DB433A6913403B613B685B6812
:1039A00003F48013002B03D03A69FB6813433B6197
:1039B000304A3B6993602F4BDB683B61FB68DB431C
:1039C0003A6913403B613B685B6803F40013002BCA
:1039D00003D03A69FB6813433B61264A3B69D360D5
:1039E000244B5B683B61FB68DB433A6913403B61F6
:1039F0003B685B6803F40033002B03D03A69FB6833
:103A000013433B611B4A3B6953601A4B1B683B6184
:103A1000FB68DB433A6913403B613B685B6803F436
:103A20008033002B03D03A69FB6813433B61114A92
:103A30003B6913607B6901337B613B681A687B6972
:103A400022FA03F3002B7FF493AE00BF00BF1C37B4
:103A5000BD465DF8047B7047001002400000014045
:103A60000004004800080048000C0048001000480E
:103A7000001400480004014080B485B000AF7860B5
:103A80000B467B807B681A697B881340002B02D031
:103A90000123FB7301E00023FB73FB7B1846143703
:103AA000BD465DF8047B704780B483B000AF78609A
:103AB0000B467B8013467B707B78002B03D07A8883
:103AC0007B689A6102E07A887B689A6200BF0C3753
:103AD000BD465DF8047B704780B584B000AF786068
:103AE0007B68002B01D101238EE07B681B681A469E
:103AF000474B9A420FD87B681B681A46454B1344C4
:103B0000454AA2FB03231B099A007B685A647B6821
:103B1000424A1A640EE07B681B681A46404B134405
:103B20003D4AA2FB03231B099A007B685A647B6809
:103B30003C4A1A647B68022283F825207B681B6854
:103B40001B68FB60FB6823F4FF4323F07003FB60FA
:103B50007B689A687B68DB681A437B681B691A4339
:103B60007B685B691A437B689B691A437B68DB69E6
:103B70001A437B681B6A1343FA681343FB607B6834
:103B80001B68FA681A60786800F02CFA7B689B68FA
:103B9000B3F5804F02D17B6800225A607B685A6877
:103BA0007B689B6C02F07F021A607B68DB6C7A6832
:103BB000126D5A607B685B68002B10D07B685B6875
:103BC000042B0CD8786800F055FA7B685B6D0022F6
:103BD0001A607B689B6D7A68D26D5A6008E07B68DA
:103BE00000225A657B6800229A657B680022DA65AC
:103BF0007B680022DA637B68012283F825207B68DA
:103C0000002283F82420002318461037BD4680BDCB
:103C100007040240F8FFFDBFCDCCCCCC0000024031
:103C2000F8FBFDBF0004024080B586B000AFF8602D
:103C3000B9607A603B600023FB75FB6893F8243021
:103C4000012B01D1022366E0FB68012283F82420C6
:103C5000FB6893F82530DBB2012B55D1FB680222BB
:103C600083F82520FB680022DA63FB681B681A686A
:103C7000FB681B6822F001021A603B687A68B96829
:103C8000F86800F070F9FB681B6B002B08D0FB682C
:103C90001B681A68FB681B6842F00E021A600FE08E
:103CA000FB681B681A68FB681B6822F004021A6034
:103CB000FB681B681A68FB681B6842F00A021A60FE
:103CC000FB689B6C1B6803F48033002B07D0FB68F8
:103CD0009B6C1A68FB689B6C42F480721A60FB68EC
:103CE0005B6D002B07D0FB685B6D1A68FB685B6D32
:103CF00042F480721A60FB681B681A68FB681B68D4
:103D000042F001021A6005E0FB68002283F82420DB
:103D10000223FB75FB7D18461837BD4680BD80B574
:103D200084B000AF78600023FB737B6893F8253084
:103D3000DBB2022B0DD07B680422DA637B680122A0
:103D400083F825207B68002283F824200123FB735D
:103D500047E07B681B681A687B681B6822F00102D9
:103D60001A607B681B681A687B681B6822F00E0269
:103D70001A607B689B6C1A687B689B6C22F480726B
:103D80001A607B685B6C03F01F027B681B6C01216F
:103D900001FA02F25A607B68DB6C7A68126D5A6035
:103DA0007B685B6D002B0CD07B685B6D1A687B6851
:103DB0005B6D22F480721A607B689B6D7A68D26DAD
:103DC0005A607B68012283F825207B68002283F8F3
:103DD00024207B689B6B002B03D07B689B6B7868EF
:103DE0009847FB7B18461037BD4680BD80B584B030
:103DF00000AF78607B681B6C1B68FB607B681B688E
:103E00001B68BB607B685B6C03F01F0304229A4055
:103E1000FB681340002B26D0BB6803F00403002B83
:103E200021D07B681B681B6803F02003002B07D19F
:103E30007B681B681A687B681B6822F004021A60A2
:103E40007B685B6C03F01F027B681B6C042101FA2A
:103E500002F25A607B681B6B002B71D07B681B6B76
:103E6000786898476CE07B685B6C03F01F03022264
:103E70009A40FB681340002B2ED0BB6803F002036E
:103E8000002B29D07B681B681B6803F02003002BE4
:103E90000BD17B681B681A687B681B6822F00A02DA
:103EA0001A607B68012283F825207B685B6C03F035
:103EB0001F027B681B6C022101FA02F25A607B68C8
:103EC000002283F824207B68DB6A002B38D07B68D3
:103ED000DB6A7868984733E07B685B6C03F01F030C
:103EE00008229A40FB681340002B2AD0BB6803F0DD
:103EF0000803002B25D07B681B681A687B681B6849
:103F000022F00E021A607B685B6C03F01F027B6874
:103F10001B6C012101FA02F25A607B680122DA630C
:103F20007B68012283F825207B68002283F8242007
:103F30007B685B6B002B04D07B685B6B7868984771
:103F400000BF00BF1037BD4680BD80B483B000AF56
:103F500078607B6893F82530DBB218460C37BD4695
:103F60005DF8047B704780B485B000AFF860B9603D
:103F70007A603B60FB68DB6CFA68126D5A60FB6824
:103F80005B6D002B04D0FB689B6DFA68D26D5A60A4
:103F9000FB685B6C03F01F02FB681B6C012101FADC
:103FA00002F25A60FB681B683A685A60FB689B68BB
:103FB000102B08D1FB681B687A689A60FB681B6845
:103FC000BA68DA6007E0FB681B68BA689A60FB6849
:103FD0001B687A68DA6000BF1437BD465DF8047B61
:103FE0007047000080B487B000AF78607B681B68C2
:103FF0001A461B4B9A420BD81A4B3B617B681B68D5
:10400000DBB2083B184AA2FB03231B097B610BE0D0
:10401000164B3B617B681B68DBB2083B124AA2FB74
:1040200003231B0908337B613B69FB607B685B6C86
:104030009B089A00FB6813441A467B689A647B6865
:104040000B4ADA647B6903F01F0301229A407B6804
:104050001A6500BF1C37BD465DF8047B704700BF82
:104060000704024000080240CDCCCCCC200802401E
:104070008008024080B485B000AF78607B685B68E0
:1040800003F07F03FB60FA680B4B13449B001A4656
:104090007B685A657B68094A9A65FB68013B03F0B7
:1040A0001F0301229A407B68DA6500BF1437BD46C2
:1040B0005DF8047B704700BF3F820010400902405A
:1040C00080B485B000AF78607B68002B41D14B4B4A
:1040D0001B6803F4C063B3F5806F31D1474BD3F84D
:1040E0008030464A23F48073C2F88030434B1B680B
:1040F00023F4C063414A43F400731360404B1B68D0
:10410000322202FB03F33F4AA2FB03239B0C013341
:10411000FB6002E0FB68013BFB60384B5B6903F42A
:104120008063B3F5806F02D1FB68002BF2D1334B73
:104130005B6903F48063B3F5806F58D1032357E0C4
:104140002E4BD3F880302D4A23F48073C2F8803090
:104150004DE07B68B3F5007F41D1284B1B6803F429
:10416000C063B3F5806F31D1244BD3F88030234A3C
:1041700043F48073C2F88030204B1B6823F4C06383
:104180001E4A43F4007313601D4B1B68322202FB6E
:1041900003F31C4AA2FB03239B0C0133FB6002E0E8
:1041A000FB68013BFB60154B5B6903F48063B3F56F
:1041B000806F02D1FB68002BF2D1104B5B6903F4D6
:1041C0008063B3F5806F12D1032311E00B4BD3F85A
:1041D00080300A4A43F48073C2F8803007E0074B0E
:1041E0001B6823F4C063054A43F480631360002313
:1041F00018461437BD465DF8047B704700700040D8
:104200000000002083DE1B4380B400AF054B9B6899
:10421000044A43F48043936000BFBD465DF8047BCD
:10422000704700BF0070004080B485B000AF786078
:104230007B6803F00703FB600C4BDB68BB60BA686C
:104240004FF6FF031340BB60FB681A02BB681343C1
:1042500043F0BF6343F40033BB60044ABB68D360E0
:1042600000BF1437BD465DF8047B704700ED00E0E9
:1042700080B400AF044BDB681B0A03F00703184649
:10428000BD465DF8047B704700ED00E080B483B06C
:1042900000AF0346FB7197F90730002B0BDBFB796E
:1042A00003F01F02074997F907305B09012000FA64
:1042B00002F241F8232000BF0C37BD465DF8047BB5
:1042C000704700BF00E100E080B483B000AF034658
:1042D0003960FB7197F90730002B0ADB3B68DAB2D3
:1042E0000C4997F907301201D2B20B4483F800232E
:1042F0000AE03B68DAB20849FB7903F00F03043B9C
:104300001201D2B20B441A7600BF0C37BD465DF8DD
:10431000047B704700E100E000ED00E080B489B06C
:1043200000AFF860B9607A60FB6803F00703FB61D7
:10433000FB69C3F10703042B28BF0423BB61FB699E
:104340000433062B02D9FB69033B00E000237B61A9
:104350004FF0FF32BB6902FA03F3DA43BB681A403D
:104360007B699A404FF0FF317B6901FA03F3D9432F
:104370007B680B40134318462437BD465DF8047B29
:104380007047000080B582B000AF78607B68013B69
:10439000B3F1807F01D301230FE00A4A7B68013B20
:1043A00053600F214FF0FF30FFF78EFF054B0022C7
:1043B0009A60044B07221A60002318460837BD464E
:1043C00080BD00BF10E000E080B582B000AF786033
:1043D0007868FFF729FF00BF0837BD4680BD80B56C
:1043E00086B000AF0346B9607A60FB73FFF740FF09
:1043F00078617A68B9687869FFF790FF024697F9A3
:104400000F3011461846FFF75FFF00BF1837BD4653
:1044100080BD80B582B000AF0346FB7197F90730CD
:104420001846FFF733FF00BF0837BD4680BD80B593
:1044300082B000AF78607868FFF7A4FF03461846A3
:104440000837BD4680BD80B582B000AF78607B681C
:10445000002B01D101238DE07B6893F84130DBB262
:10446000002B06D17B68002283F84020786805F095
:10447000BBF97B68242283F841207B681B681A689B
:104480007B681B6822F001021A607B685A687B68AF
:104490001B6822F070621A617B681B689A687B68EF
:1044A0001B6822F400429A607B68DB68012B07D10D
:1044B0007B689A687B681B6842F400429A6006E059
:1044C0007B689A687B681B6842F404429A607B6848
:1044D000DB68022B08D17B681B685A687B681B6805
:1044E00042F400625A6007E07B681B685A687B6888
:1044F0001B6822F400625A607B681B685B687A68FC
:10450000126843F0007343F4004353607B681B68F8
:10451000DA687B681B6822F40042DA607B681A69FB
:104520007B685B6942EA03017B689B691A027B68CE
:104530001B680A43DA607B68D9697B681A6A7B6802
:104540001B680A431A607B681B681A687B681B68D3
:1045500042F001021A607B6800225A647B682022C4
:1045600083F841207B6800221A637B68002283F86D
:104570004220002318460837BD4680BD80B588B06C
:1045800002AFF8607A601A460B467B8113463B8186
:10459000FB6893F84130DBB2202B40F0FD80FB68D4
:1045A00093F84030012B01D10223F6E0FB68012291
:1045B00083F84020FEF72AF938613B6900931923FC
:1045C00001224FF40041F86801F073FD0346002B0F
:1045D00001D00123E1E0FB68212283F84120FB6840
:1045E000102283F84220FB6800225A64FB687A6834
:1045F0005A62FB683A895A85FB6800225A63FB6855
:104600005B8D9BB2FF2B06D9FB68FF221A854FF00A
:1046100080737B6107E0FB685B8D9AB2FB681A854B
:104620004FF000737B61FB681B8D002B24D0FB686F
:104630005B6A1A78FB681B689A62FB685B6A5A1CA3
:10464000FB685A62FB685B8D9BB2013B9AB2FB68C8
:104650005A85FB681B8D013B9AB2FB681A85FB6883
:104660001B8DDBB20133DAB279894E4B00937B6943
:10467000F86801F0E1FE66E0FB681B8DDAB279892B
:10468000484B00937B69F86801F0D6FE5BE03A691D
:10469000396AF86801F066FD0346002B01D001235A
:1046A0007BE0FB685B6A1A78FB681B689A62FB68B0
:1046B0005B6A5A1CFB685A62FB685B8D9BB2013BCC
:1046C0009AB2FB685A85FB681B8D013B9AB2FB6866
:1046D0001A85FB685B8D9BB2002B34D0FB681B8D69
:1046E000002B30D13B6900933B6A00228021F8689F
:1046F00001F0DFFC0346002B01D001234DE0FB68F5
:104700005B8D9BB2FF2B0ED9FB68FF221A85FB68DD
:104710001B8DDAB27989002300934FF08073F8681B
:1047200001F08AFE0FE0FB685B8D9AB2FB681A8588
:10473000FB681B8DDAB27989002300934FF0007378
:10474000F86801F079FEFB685B8D9BB2002B9ED16F
:104750003A69396AF86801F04CFD0346002B01D034
:1047600001231AE0FB681B682022DA61FB681B68E2
:104770005968FB681A680C4B0B405360FB68202299
:1047800083F84120FB68002283F84220FB68002266
:1047900083F84020002300E0022318461837BD4666
:1047A00080BD00BF0020008000E800FE80B58AB018
:1047B00002AFF8607A601A460B467B8113463B8154
:1047C0000023BB61FB6893F84130DBB2202B40F043
:1047D000EF80FB681B689B6903F40043B3F5004F4F
:1047E00001D10223E5E0FB6893F84030012B01D1B1
:1047F0000223DEE0FB68012283F84020FB682122CF
:1048000083F84120FB68102283F84220FB680022D5
:104810005A64FB687A685A62FB683A895A85FB6871
:10482000664ADA62FB68664A5A63FB685B8D9BB234
:10483000FF2B06D9FB68FF221A854FF08073FB61BE
:1048400007E0FB685B8D9AB2FB681A854FF0007336
:10485000FB61FB681B8D002B1AD0FB685B6A1A7822
:10486000FB681B689A62FB685B6A5A1CFB685A62A9
:10487000FB681B8DBB61FB685B8D9BB2013B9AB2F1
:10488000FB685A85FB681B8D013B9AB2FB681A8551
:10489000FB681B8D002B74D0FB689B6B002B22D018
:1048A000FB689B6B474ADA62FB689B6B464A5A631C
:1048B000FB689B6B00221A63FB689B6B00229A6368
:1048C000FB68986BFB685B6A1946FB681B682833BA
:1048D0001A46FB681B8DFFF7A7F90346FB75FB7DA6
:1048E000002B3AD113E0FB68202283F84120FB68BB
:1048F000002283F84220FB685B6C43F08002FB6877
:104900005A64FB68002283F84020012351E0FB68D1
:104910001B8DDBB20133DAB279892C4B0093FB6932
:10492000F86801F089FDFB685B8D9AB2FB681B8D0E
:10493000D31A9AB2FB685A85FB68002283F840209C
:104940001021F86801F0AAFDFB681B681A68FB6873
:104950001B6842F480421A6028E0FB68202283F83A
:104960004120FB68002283F84220FB685B6C43F027
:104970001002FB685A64FB68002283F84020012380
:1049800017E0FB68124A5A63BB69DAB279890F4BA8
:1049900000934FF00073F86801F04EFDFB680022B1
:1049A00083F840200121F86801F078FD002300E041
:1049B000022318462037BD4680BD00BF0000FFFF20
:1049C000E34F0008B35F0008496000080020008042
:1049D000734B000880B584B000AF78607B681B68BB
:1049E0009B69FB607B681B681B68BB607B685B6BBB
:1049F000002B05D07B685B6BBA68F96878689847CC
:104A000000BF1037BD4680BD80B586B000AF78606E
:104A10007B681B689B697B617B681B681B683B61CB
:104A20007B691B0A03F00103002B10D03B69DB09F3
:104A300003F00103002B0AD07B685B6C43F001029A
:104A40007B685A647B681B684FF48072DA617B690B
:104A50009B0A03F00103002B10D03B69DB0903F034
:104A60000103002B0AD07B685B6C43F008027B6873
:104A70005A647B681B684FF48062DA617B695B0A69
:104A800003F00103002B10D03B69DB0903F00103A5
:104A9000002B0AD07B685B6C43F002027B685A648F
:104AA0007B681B684FF40072DA617B685B6CFB60AB
:104AB000FB6803F00B03002B03D0F968786801F062
:104AC0003DF900BF1837BD4680BD80B483B000AF4C
:104AD000786000BF0C37BD465DF8047B704780B43A
:104AE00083B000AF786000BF0C37BD465DF8047B33
:104AF000704780B483B000AF786000BF0C37BD460C
:104B00005DF8047B704780B483B000AF78600B46DB
:104B1000FB7013463B8000BF0C37BD465DF8047B3D
:104B2000704780B483B000AF786000BF0C37BD46DB
:104B30005DF8047B704780B483B000AF786000BF3D
:104B40000C37BD465DF8047B704780B483B000AF7E
:104B5000786000BF0C37BD465DF8047B704780B4B9
:104B600083B000AF786000BF0C37BD465DF8047BB2
:104B7000704780B588B002AFF860B9607A60BB68F2
:104B80007B61FB6893F84030012B01D1022320E1C7
:104B9000FB68012283F840207B691B0903F00103B5
:104BA000002B13D07B681B0903F00103002B0DD0F1
:104BB000FB681B681022DA61FB685B6C43F004023F
:104BC000FB685A64F86801F0D0F9EDE07B699B0856
:104BD00003F00103002B23D07B689B0803F0010343
:104BE000002B1DD07B6923F004037B61FB681B68ED
:104BF0005A6AFB685B6AD2B21A70FB685B6A5A1C1D
:104C0000FB685A62FB681B8D013B9AB2FB681A85F0
:104C1000FB685B8D9BB2013B9AB2FB685A85C3E08F
:104C20007B699B0903F00103002B2AD17B695B0898
:104C300003F00103002B24D07B685B0803F0010321
:104C4000002B1ED0FB685B8D9BB2002B00F0AC806C
:104C5000FB685B6A1A78FB681B689A62FB685B6A90
:104C60005A1CFB685A62FB681B8D013B9AB2FB68B9
:104C70001A85FB685B8D9BB2013B9AB2FB685A8533
:104C800092E07B69DB0903F00103002B5DD07B68B8
:104C90009B0903F00103002B57D0FB685B8D9BB28F
:104CA000002B40D0FB681B8D002B3CD1FB681B68A0
:104CB0005B689BB2C3F309037B82FB685B8D9BB28D
:104CC000FF2B0ED9FB68FF221A85FB681B8DDAB219
:104CD000798A002300934FF08073F86801F0ACFBF1
:104CE00032E0FB685B8D9AB2FB681A85FB68DB6A71
:104CF00013F5803F0BD0FB681B8DDAB2FB68DB6AD3
:104D0000798A00200090F86801F096FB1CE0FB68AF
:104D10001B8DDAB2798A002300934FF00073F86894
:104D200001F08AFB10E0FB681B685B6803F000730E
:104D3000B3F1007F03D0F86800F0DBFC34E04021E1
:104D4000F86800F0FBFF2FE02EE07B699B0903F081
:104D50000103002B28D07B689B0903F00103002B83
:104D600022D0FB685B8D9BB2002B19D1FB681B68BE
:104D70005B6803F00073B3F1007F15D0FB68DB6A5A
:104D800013F5803F08D1FB681B685A68FB681B68F5
:104D900042F480425A6007E0F86800F0AAFC03E0A1
:104DA0004021F86800F0CAFF7B695B0903F001034A
:104DB000002B09D07B685B0903F00103002B03D0B3
:104DC0007969F86800F030FDFB68002283F8402024
:104DD000002318461837BD4680BD80B586B000AFA9
:104DE000F860B9607A60FB68DB6A7B61BB683B6135
:104DF000FB6893F84030012B01D10223EDE0FB6802
:104E0000012283F840203B695B0903F00103002B7A
:104E10000AD07B685B0903F00103002B04D03969D9
:104E2000F86800F0CBFDD3E03B691B0903F00103F8
:104E3000002B4DD07B681B0903F00103002B47D0EA
:104E4000FB685B8D9BB2002B28D1FB6893F8413047
:104E5000DBB2282B08D17B69B3F1007F04D139691B
:104E6000F86800F015FF32E0FB6893F84130DBB2E0
:104E7000292B0ED17B6913F5803F0AD0FB681B6894
:104E80001022DA61F86801F070F8F86800F06EFC42
:104E90001DE0FB681B681022DA6196E0FB681B6866
:104EA0001022DA61FB685B6C43F00402FB685A6411
:104EB0007B69002B04D07B69B3F1807F40F0858053
:104EC000FB685B6C1946F86800F038FF7DE07CE019
:104ED0003B699B0803F00103002B30D07B689B08E3
:104EE00003F00103002B2AD0FB685B8D9BB2002BE3
:104EF00018D0FB681B685A6AFB685B6AD2B21A70EA
:104F0000FB685B6A5A1CFB685A62FB681B8D013B9D
:104F10009AB2FB681A85FB685B8D9BB2013B9AB223
:104F2000FB685A85FB685B8D9BB2002B4FD17B6978
:104F300013F5803F4BD0F86800F018FC47E03B6960
:104F4000DB0803F00103002B0AD07B68DB0803F0C9
:104F50000103002B04D03969F86800F046FB37E004
:104F60003B695B0803F00103002B31D07B685B08D1
:104F700003F00103002B2BD0FB685B8D9BB2002B51
:104F800018D0FB685B6A1A78FB681B689A62FB683A
:104F90005B6A5A1CFB685A62FB685B8D9BB2013BE3
:104FA0009AB2FB685A85FB681B8D013B9AB2FB687D
:104FB0001A850DE07B69B3F1807F02D07B69002BFD
:104FC00006D1F86800F0D2FB02E000BF00E000BFAD
:104FD000FB68002283F84020002318461837BD469E
:104FE00080BD80B588B002AFF860B9607A60FB68B8
:104FF00093F84030012B01D10223E1E0FB6801224C
:1050000083F84020BB681B0903F00103002B17D075
:105010007B681B0903F00103002B11D0FB681B68A0
:105020001022DA61FB685B6C43F00402FB685A648F
:105030002021F86801F032FAF86800F096FFBAE033
:10504000BB68DB0903F00103002B72D07B689B096E
:1050500003F00103002B6CD0FB681B681A68FB6827
:105060001B6822F040021A60FB685B8D9BB2002B2C
:105070004ED0FB681B685B689BB2C3F309037B825D
:10508000FB685B8D9BB2FF2B06D9FB68FF221A855C
:105090004FF080737B6110E0FB685B8D9AB2FB6818
:1050A0001A85FB68DB6A13F5803F03D0FB68DB6A77
:1050B0007B6102E04FF000737B61FB681B8DDAB20D
:1050C000798A002300937B69F86801F0B5F9FB68E1
:1050D0005B8D9AB2FB681B8DD31A9AB2FB685A8516
:1050E000FB6893F84130DBB2222B08D1FB681B68C8
:1050F0001A68FB681B6842F400421A605BE0FB68B8
:105100001B681A68FB681B6842F480421A6052E010
:10511000FB681B685B6803F00073B3F1007F03D08A
:10512000F86800F0E6FA46E04021F86800F006FE74
:1051300041E0BB689B0903F00103002B29D07B6889
:105140009B0903F00103002B23D0FB685B8D9BB20E
:10515000002B19D1FB681B685B6803F00073B3F187
:10516000007F27D0FB68DB6A13F5803F08D1FB681E
:105170001B685A68FB681B6842F480425A6019E059
:10518000F86800F0B6FA15E04021F86800F0D6FDA6
:1051900010E0BB685B0903F00103002B0BD07B68B8
:1051A0005B0903F00103002B05D0B968F86800F033
:1051B0003BFB00E000BFFB68002283F84020002397
:1051C00018461837BD4680BD80B588B002AFF8607C
:1051D000B9607A60924B7B61FB6893F84030012B99
:1051E00001D1022318E1FB68012283F84020BB684B
:1051F0001B0903F00103002B17D07B681B0903F088
:105200000103002B11D0FB681B681022DA61FB68D8
:105210005B6C43F00402FB685A642021F86801F0DB
:105220003DF9F86800F0A1FEF1E0BB685B0803F00F
:105230000103002B0FD07B685B0803F00103002BF8
:1052400009D0FB681B68FA68126D9A62FB684FF020
:10525000FF321A65DBE0BB68DB0903F00103002BBA
:1052600060D07B689B0903F00103002B5AD0012119
:10527000F86801F097F91021F86801F00FF9FB6860
:105280005B8D9BB2002B48D0FB685B8D9BB2FF2BE4
:1052900010D9FB68FF221A85FB68DB6C99B2FB68AA
:1052A0001B8DDAB2002300934FF08073F86801F091
:1052B000C3F811E0FB685B8D9AB2FB681A85FB6846
:1052C000DB6C99B2FB681B8DDAB2002300934FF0C0
:1052D0000073F86801F0B0F8FB685B8D9AB2FB6868
:1052E0001B8DD31A9AB2FB685A85FB6893F841303C
:1052F000DBB2222B08D1FB681B681A68FB681B68AD
:1053000042F400421A6082E0FB681B681A68FB687E
:105310001B6842F480421A6079E04021F86800F08E
:105320000DFD74E0BB689B0903F00103002B5ED008
:105330007B689B0903F00103002B58D00121F8681A
:1053400001F030F91021F86801F0A8F8FB6893F833
:105350004130DBB2222B01D1324B7B61FB685B8D8C
:105360009BB2FF2B10D9FB68FF221A85FB68DB6C10
:1053700099B2FB681B8DDAB27B6900934FF08073A2
:10538000F86801F059F811E0FB685B8D9AB2FB6890
:105390001A85FB68DB6C99B2FB681B8DDAB27B69FE
:1053A00000934FF00073F86801F046F8FB685B8DDE
:1053B0009AB2FB681B8DD31A9AB2FB685A85FB68B8
:1053C00093F84130DBB2222B08D1FB681B681A68C6
:1053D000FB681B6842F400421A6018E0FB681B6817
:1053E0001A68FB681B6842F480421A600FE0BB68D1
:1053F0005B0903F00103002B09D07B685B0903F014
:105400000103002B03D0B968F86800F00DFAFB68BF
:10541000002283F84020002318461837BD4680BD7F
:10542000002000800024008080B588B000AFF860C4
:10543000B9607A60FB68DB6ABB610023FB61FB68D3
:1054400093F84030012B01D10223CAE0FB6801220E
:1054500083F84020BB685B0903F00103002B0AD0EE
:105460007B685B0903F00103002B04D0B968F8687E
:1054700000F0A4FAB0E0BB681B0903F00103002BA5
:1054800000F09A807B681B0903F00103002B00F0F9
:1054900093807B689B0B03F00103002B05D17B6895
:1054A000DB0B03F00103002B7FD0FB68DB6B002BD1
:1054B0000DD07B68DB0B03F00103002B07D0FB68EA
:1054C000DB6B1B685B68002B01D10123FB61FB6870
:1054D0009B6B002B0DD07B689B0B03F00103002B13
:1054E00007D0FB689B6B1B685B68002B01D1012315
:1054F000FB61FB69012B28D1FB6893F84130DBB2DB
:10550000282B08D1BB69B3F1007F04D1B968F868D2
:1055100000F0BEFB48E0FB6893F84130DBB2292B7A
:105520000ED1BB6913F5803F0AD0FB681B681022BF
:10553000DA61F86800F019FDF86800F017F933E057
:10554000FB681B681022DA6134E0FB681B681022DC
:10555000DA61FB685B6C43F00402FB685A64FB6829
:1055600093F84130FB75BB69002B03D0BB69B3F1E5
:10557000807F1FD1FB7D212B02D0FB7D292B03D106
:10558000FB6821221A6308E0FB7D222B02D0FB7D01
:105590002A2B02D1FB6822221A63FB685B6C194636
:1055A000F86800F0CBFB05E004E0FB681B68102204
:1055B000DA6111E000BF0FE0BB68DB0803F0010314
:1055C000002B09D07B68DB0803F00103002B03D01C
:1055D000B968F86800F009F8FB68002283F84020F9
:1055E000002318462037BD4680BD80B584B000AF8B
:1055F000786039607B6893F84130DBB203F02803B0
:10560000282B6AD17B681B689B691B0CDBB203F0FB
:105610000103FB737B681B689B691B0C9BB203F047
:10562000FE03BB817B681B689B689BB2C3F30903C5
:105630007B817B681B68DB689BB203F0FE033B81C8
:105640007B68DB68022B38D17B89DB099AB2BB8986
:1056500053409BB203F00603002B1CD17B89BB8116
:105660007B689B6C5A1C7B689A647B689B6C022BE2
:105670003BD17B6800229A647B681B680822DA6150
:105680007B68002283F84020BA89FB7B1946786842
:10569000FFF739FA29E03B89BB814FF40041786874
:1056A00000F080FF7B68002283F84020BA89FB7BF2
:1056B00019467868FFF727FA17E04FF40041786839
:1056C00000F070FF7B68002283F84020BA89FB7BE2
:1056D00019467868FFF717FA07E07B681B6808220D
:1056E000DA617B68002283F8402000BF1037BD4696
:1056F00080BD80B582B000AF78607B68002283F8FF
:1057000042207B6893F84130DBB2212B15D17B68B6
:10571000202283F841207B6811221A637B680022D3
:105720005A630121786800F03DFF7B68002283F80E
:105730004020786805F0C0FF14E07B68202283F8E1
:1057400041207B6812221A637B6800225A6302217F
:10575000786800F027FF7B68002283F84020786893
:10576000FFF7B3F900BF0837BD4680BD80B584B0F0
:1057700000AF78607B681B681B68FB607B68002259
:1057800083F84220FB689B0B03F00103002B08D039
:105790007B681B681A687B681B6822F480421A6069
:1057A0000DE0FB68DB0B03F00103002B07D07B68E7
:1057B0001B681A687B681B6822F400421A607B68C9
:1057C00093F84130DBB2292B12D17B68282283F871
:1057D00041207B6821221A630121786800F0E2FEF3
:1057E0007B68002283F840207868FFF778F917E09B
:1057F0007B6893F84130DBB22A2B11D17B682822D9
:1058000083F841207B6822221A630221786800F025
:10581000C9FE7B68002283F840207868FFF769F9A9
:1058200000BF1037BD4680BD80B586B000AF786040
:1058300039603B687B617B681B682022DA617B688A
:1058400093F84130DBB2212B07D10121786800F0B9
:10585000A9FE7B6811221A630CE07B6893F8413043
:10586000DBB2222B06D10221786800F09BFE7B6818
:1058700012221A637B681B6859687B681A684D4B53
:105880000B4053607B6800225A637B684A4ADA62A5
:105890007B691B0903F00103002B09D07B681B689F
:1058A0001022DA617B685B6C43F004027B685A6407
:1058B0007B6893F84130DBB2602B0BD17B699B088E
:1058C00003F00103002B05D07B681B685B6ADBB229
:1058D000FB60FB68786800F048FB7B685B6C3B61B1
:1058E0007B6893F84130DBB2602B02D03B69002B20
:1058F00006D07B685B6C1946786800F01FFA54E0AC
:105900007B6893F84130DBB2212B24D17B682022C5
:1059100083F841207B6800221A637B6893F8423049
:10592000DBB2402B0BD17B68002283F842207B68DE
:10593000002283F840207868FFF7FDF835E07B68A7
:10594000002283F842207B68002283F84020786898
:1059500005F0B2FE29E07B6893F84130DBB2222BE0
:1059600023D17B68202283F841207B6800221A63C0
:105970007B6893F84230DBB2402B0BD17B6800226E
:1059800083F842207B68002283F840207868FFF784
:10599000DCF80AE07B68002283F842207B68002262
:1059A00083F840207868FFF790F800BF1837BD46AD
:1059B00080BD00BF00E800FE0000FFFF80B586B09C
:1059C00000AF786039607B681B681B683B613B688F
:1059D0007B617B68DB6AFB607B6893F84130FB721C
:1059E0007B681B682022DA61FB7A212B02D0FB7ACC
:1059F000292B08D148F20101786800F0D3FD7B68BB
:105A000021221A6319E0FB7A222B02D0FB7A2A2B7F
:105A100008D148F20201786800F0C4FD7B682222B8
:105A20001A630AE0FB7A282B07D148F20301786851
:105A300000F0B8FD7B6800221A637B681B685A6817
:105A40007B681B6842F400425A607B681B68596897
:105A50007B681A688C4B0B405360786800F085FABD
:105A60003B699B0B03F00103002B13D07B681B6881
:105A70001A687B681B6822F480421A607B689B6B03
:105A8000002B20D07B689B6B1B685B689AB27B689D
:105A90005A8518E03B69DB0B03F00103002B12D0A1
:105AA0007B681B681A687B681B6822F400421A60D6
:105AB0007B68DB6B002B06D07B68DB6B1B685B684D
:105AC0009AB27B685A857B699B0803F00103002B1F
:105AD00020D07B6923F004037B617B681B685A6AD2
